{"contracts/RedistributionPool.sol":{"RedistributionPool":{"abi":[{"inputs":[{"internalType":"address","name":"admin","type":"address"},{"internalType":"contract IERC20","name":"token_","type":"address"},{"internalType":"contract EligibilityRegistry","name":"registry_","type":"address"},{"internalType":"uint64","name":"minIntervalSeconds","type":"uint64"}],"stateMutability":"nonpayable","type":"constructor"},{"inputs":[],"name":"AccessControlBadConfirmation","type":"error"},{"inputs":[{"internalType":"address","name":"account","type":"address"},{"internalType":"bytes32","name":"neededRole","type":"bytes32"}],"name":"AccessControlUnauthorizedAccount","type":"error"},{"inputs":[],"name":"EnforcedPause","type":"error"},{"inputs":[],"name":"ExpectedPause","type":"error"},{"inputs":[],"name":"ReentrancyGuardReentrantCall","type":"error"},{"anonymous":false,"inputs":[{"indexed":true,"internalType":"address","name":"from","type":"address"},{"indexed":false,"internalType":"uint256","name":"amount","type":"uint256"}],"name":"Deposited","type":"event"},{"anonymous":false,"inputs":[{"indexed":false,"internalType":"uint256","name":"recipientsProcessed","type":"uint256"},{"indexed":false,"internalType":"uint256","name":"amountPerRecipient","type":"uint256"},{"indexed":false,"internalType":"uint64","name":"timestamp","type":"uint64"},{"indexed":false,"internalType":"uint256","name":"newCursor","type":"uint256"}],"name":"Distributed","type":"event"},{"anonymous":false,"inputs":[{"indexed":false,"internalType":"address","name":"account","type":"address"}],"name":"Paused","type":"event"},{"anonymous":false,"inputs":[{"indexed":true,"internalType":"bytes32","name":"role","type":"bytes32"},{"indexed":true,"internalType":"bytes32","name":"previousAdminRole","type":"bytes32"},{"indexed":true,"internalType":"bytes32","name":"newAdminRole","type":"bytes32"}],"name":"RoleAdminChanged","type":"event"},{"anonymous":false,"inputs":[{"indexed":true,"internalType":"bytes32","name":"role","type":"bytes32"},{"indexed":true,"internalType":"address","name":"account","type":"address"},{"indexed":true,"internalType":"address","name":"sender","type":"address"}],"name":"RoleGranted","type":"event"},{"anonymous":false,"inputs":[{"indexed":true,"internalType":"bytes32","name":"role","type":"bytes32"},{"indexed":true,"internalType":"address","name":"account","type":"address"},{"indexed":true,"internalType":"address","name":"sender","type":"address"}],"name":"RoleRevoked","type":"event"},{"anonymous":false,"inputs":[{"indexed":false,"internalType":"address","name":"account","type":"address"}],"name":"Unpaused","type":"event"},{"inputs":[],"name":"ADMIN_ROLE","outputs":[{"internalType":"bytes32","name":"","type":"bytes32"}],"stateMutability":"view","type":"function"},{"inputs":[],"name":"DEFAULT_ADMIN_ROLE","outputs":[{"internalType":"bytes32","name":"","type":"bytes32"}],"stateMutability":"view","type":"function"},{"inputs":[],"name":"DEPOSITOR_ROLE","outputs":[{"internalType":"bytes32","name":"","type":"bytes32"}],"stateMutability":"view","type":"function"},{"inputs":[{"internalType":"uint256","name":"amount","type":"uint256"}],"name":"deposit","outputs":[],"stateMutability":"nonpayable","type":"function"},{"inputs":[{"internalType":"uint256","name":"maxRecipients","type":"uint256"}],"name":"distribute","outputs":[],"stateMutability":"nonpayable","type":"function"},{"inputs":[],"name":"distributionCursor","outputs":[{"internalType":"uint256","name":"","type":"uint256"}],"stateMutability":"view","type":"function"},{"inputs":[{"internalType":"bytes32","name":"role","type":"bytes32"}],"name":"getRoleAdmin","outputs":[{"internalType":"bytes32","name":"","type":"bytes32"}],"stateMutability":"view","type":"function"},{"inputs":[{"internalType":"bytes32","name":"role","type":"bytes32"},{"internalType":"address","name":"account","type":"address"}],"name":"grantRole","outputs":[],"stateMutability":"nonpayable","type":"function"},{"inputs":[{"internalType":"bytes32","name":"role","type":"bytes32"},{"internalType":"address","name":"account","type":"address"}],"name":"hasRole","outputs":[{"internalType":"bool","name":"","type":"bool"}],"stateMutability":"view","type":"function"},{"inputs":[],"name":"lastDistributionTime","outputs":[{"internalType":"uint64","name":"","type":"uint64"}],"stateMutability":"view","type":"function"},{"inputs":[],"name":"minDistributionInterval","outputs":[{"internalType":"uint64","name":"","type":"uint64"}],"stateMutability":"view","type":"function"},{"inputs":[],"name":"pause","outputs":[],"stateMutability":"nonpayable","type":"function"},{"inputs":[],"name":"paused","outputs":[{"internalType":"bool","name":"","type":"bool"}],"stateMutability":"view","type":"function"},{"inputs":[],"name":"registry","outputs":[{"internalType":"contract EligibilityRegistry","name":"","type":"address"}],"stateMutability":"view","type":"function"},{"inputs":[{"internalType":"bytes32","name":"role","type":"bytes32"},{"internalType":"address","name":"callerConfirmation","type":"address"}],"name":"renounceRole","outputs":[],"stateMutability":"nonpayable","type":"function"},{"inputs":[{"internalType":"bytes32","name":"role","type":"bytes32"},{"internalType":"address","name":"account","type":"address"}],"name":"revokeRole","outputs":[],"stateMutability":"nonpayable","type":"function"},{"inputs":[{"internalType":"bytes4","name":"interfaceId","type":"bytes4"}],"name":"supportsInterface","outputs":[{"internalType":"bool","name":"","type":"bool"}],"stateMutability":"view","type":"function"},{"inputs":[],"name":"token","outputs":[{"internalType":"contract IERC20","name":"","type":"address"}],"stateMutability":"view","type":"function"},{"inputs":[],"name":"unpause","outputs":[],"stateMutability":"nonpayable","type":"function"}],"evm":{"bytecode":{"linkReferences":{},"object":"60e060405234801561000f575f80fd5b506040516111c23803806111c283398101604081905261002e916101d9565b600180556001600160a01b0383166100775760405162461bcd60e51b81526020600482015260076024820152660746f6b656e3d360cc1b60448201526064015b60405180910390fd5b6001600160a01b0382166100ba5760405162461bcd60e51b815260206004820152600a602482015269072656769737472793d360b41b604482015260640161006e565b6001600160a01b03808416608052821660a0526001600160401b03811660c0526100e45f85610119565b5061010f7fa49807205ce4d355092ef5a8a18f56e8913cf4a201fbe287825b095693c2177585610119565b5050505050610240565b5f828152602081815260408083206001600160a01b038516845290915281205460ff166101b9575f838152602081815260408083206001600160a01b03861684529091529020805460ff191660011790556101713390565b6001600160a01b0316826001600160a01b0316847f2f8788117e7eff1d82e926ec794901d17c78024a50270940304540a733656f0d60405160405180910390a45060016101bc565b505f5b92915050565b6001600160a01b03811681146101d6575f80fd5b50565b5f805f80608085870312156101ec575f80fd5b84516101f7816101c2565b6020860151909450610208816101c2565b6040860151909350610219816101c2565b60608601519092506001600160401b0381168114610235575f80fd5b939692955090935050565b60805160a05160c051610f2e6102945f395f81816102eb015261085e01525f818161021a01528181610459015261069a01525f8181610325015281816105320152818161076801526109de0152610f2e5ff3fe608060405234801561000f575f80fd5b506004361061011c575f3560e01c80637b103999116100a9578063a3b0b5a31161006e578063a3b0b5a3146102ac578063b6b55f25146102d3578063d3e04000146102e6578063d547741f1461030d578063fc0c546a14610320575f80fd5b80637b103999146102155780638456cb591461025457806391c05b0b1461025c57806391d148541461026f578063a217fddf146102a5575f80fd5b80633f4ba83a116100ef5780633f4ba83a146101a0578063543ca95f146101a85780635c975abb146101b157806375b17350146101bc57806375b238fc146101ee575f80fd5b806301ffc9a714610120578063248a9ca3146101485780632f2ff15d1461017857806336568abe1461018d575b5f80fd5b61013361012e366004610d8c565b610347565b60405190151581526020015b60405180910390f35b61016a610156366004610dba565b5f9081526020819052604090206001015490565b60405190815260200161013f565b61018b610186366004610de5565b61037d565b005b61018b61019b366004610de5565b6103a7565b61018b6103df565b61016a60035481565b60025460ff16610133565b6002546101d590610100900467ffffffffffffffff1681565b60405167ffffffffffffffff909116815260200161013f565b61016a7fa49807205ce4d355092ef5a8a18f56e8913cf4a201fbe287825b095693c2177581565b61023c7f000000000000000000000000000000000000000000000000000000000000000081565b6040516001600160a01b03909116815260200161013f565b61018b610414565b61018b61026a366004610dba565b610446565b61013361027d366004610de5565b5f918252602082815260408084206001600160a01b0393909316845291905290205460ff1690565b61016a5f81565b61016a7f8f4f2da22e8ac8f11e15f9fc141cddbb5deea8800186560abb6e68c5496619a981565b61018b6102e1366004610dba565b610970565b6101d57f000000000000000000000000000000000000000000000000000000000000000081565b61018b61031b366004610de5565b610ade565b61023c7f000000000000000000000000000000000000000000000000000000000000000081565b5f6001600160e01b03198216637965db0b60e01b148061037757506301ffc9a760e01b6001600160e01b03198316145b92915050565b5f8281526020819052604090206001015461039781610b02565b6103a18383610b0c565b50505050565b6001600160a01b03811633146103d05760405163334bd91960e11b815260040160405180910390fd5b6103da8282610bb3565b505050565b7fa49807205ce4d355092ef5a8a18f56e8913cf4a201fbe287825b095693c2177561040981610b02565b610411610c34565b50565b7fa49807205ce4d355092ef5a8a18f56e8913cf4a201fbe287825b095693c2177561043e81610b02565b610411610c86565b61044e610cc3565b610456610ced565b5f7f00000000000000000000000000000000000000000000000000000000000000006001600160a01b031663630cb4dc6040518163ffffffff1660e01b8152600401602060405180830381865afa1580156104b3573d5f803e3d5ffd5b505050506040513d601f19601f820116820180604052508101906104d79190610e13565b90505f811161051b5760405162461bcd60e51b815260206004820152600b60248201526a6e6f20656c696769626c6560a81b60448201526064015b60405180910390fd5b6040516370a0823160e01b81523060048201525f907f00000000000000000000000000000000000000000000000000000000000000006001600160a01b0316906370a0823190602401602060405180830381865afa15801561057f573d5f803e3d5ffd5b505050506040513d601f19601f820116820180604052508101906105a39190610e13565b90505f81116105e15760405162461bcd60e51b815260206004820152600a6024820152696e6f2062616c616e636560b01b6044820152606401610512565b5f826003546105f09190610e3e565b6105fa9084610e65565b90505f81851061060a578161060c565b845b90505f81116106455760405162461bcd60e51b815260206004820152600560248201526406e756d3d360dc1b6044820152606401610512565b5f6106508285610e78565b90505f811161068d5760405162461bcd60e51b81526020600482015260096024820152681d1bdbc81cdb585b1b60ba1b6044820152606401610512565b5f5b82811015610817575f7f00000000000000000000000000000000000000000000000000000000000000006001600160a01b03166391d0b7f188846003546106d69190610e8b565b6106e09190610e3e565b6040518263ffffffff1660e01b81526004016106fe91815260200190565b602060405180830381865afa158015610719573d5f803e3d5ffd5b505050506040513d601f19601f8201168201806040525081019061073d9190610e9e565b60405163a9059cbb60e01b81526001600160a01b038083166004830152602482018690529192505f917f0000000000000000000000000000000000000000000000000000000000000000169063a9059cbb906044016020604051808303815f875af11580156107ae573d5f803e3d5ffd5b505050506040513d601f19601f820116820180604052508101906107d29190610eb9565b90508061080d5760405162461bcd60e51b81526020600482015260096024820152681e19995c8819985a5b60ba1b6044820152606401610512565b505060010161068f565b5084826003546108279190610e8b565b6108319190610e3e565b60038190555f0361090f57600254610100900467ffffffffffffffff1615806108a05750600254610892907f000000000000000000000000000000000000000000000000000000000000000090610100900467ffffffffffffffff16610ed8565b67ffffffffffffffff164210155b6108ec5760405162461bcd60e51b815260206004820152601460248201527f696e74657276616c206e6f7420726561636865640000000000000000000000006044820152606401610512565b6002805468ffffffffffffffff0019166101004267ffffffffffffffff16021790555b60035460408051848152602081018490524267ffffffffffffffff16818301526060810192909252517f3015830f22d7f1c3eab2e3551e1d89e56567fb7e354f93978511b6c60f1928f09181900360800190a1505050505061041160018055565b610978610cc3565b610980610ced565b5f81116109ba5760405162461bcd60e51b81526020600482015260086024820152670616d6f756e743d360c41b6044820152606401610512565b6040516323b872dd60e01b8152336004820152306024820152604481018290525f907f00000000000000000000000000000000000000000000000000000000000000006001600160a01b0316906323b872dd906064016020604051808303815f875af1158015610a2c573d5f803e3d5ffd5b505050506040513d601f19601f82011682018060405250810190610a509190610eb9565b905080610a9f5760405162461bcd60e51b815260206004820152600f60248201527f7472616e73666572206661696c656400000000000000000000000000000000006044820152606401610512565b60405182815233907f2da466a7b24304f47e87fa2e1e5a81b9831ce54fec19055ce277ca2f39ba42c49060200160405180910390a25061041160018055565b5f82815260208190526040902060010154610af881610b02565b6103a18383610bb3565b6104118133610d13565b5f828152602081815260408083206001600160a01b038516845290915281205460ff16610bac575f838152602081815260408083206001600160a01b03861684529091529020805460ff19166001179055610b643390565b6001600160a01b0316826001600160a01b0316847f2f8788117e7eff1d82e926ec794901d17c78024a50270940304540a733656f0d60405160405180910390a4506001610377565b505f610377565b5f828152602081815260408083206001600160a01b038516845290915281205460ff1615610bac575f838152602081815260408083206001600160a01b0386168085529252808320805460ff1916905551339286917ff6391f5c32d9c69d2a47ea670b442974b53935d1edc7fd64eb21e047a839171b9190a4506001610377565b610c3c610d69565b6002805460ff191690557f5db9ee0a495bf2e6ff9c91a7834c1ba4fdd244a5e8aa4e537bd38aeae4b073aa335b6040516001600160a01b03909116815260200160405180910390a1565b610c8e610ced565b6002805460ff191660011790557f62e78cea01bee320cd4e420270b5ea74000d11b0c9f74754ebdbfc544b05a258610c693390565b600260015403610ce657604051633ee5aeb560e01b815260040160405180910390fd5b6002600155565b60025460ff1615610d115760405163d93c066560e01b815260040160405180910390fd5b565b5f828152602081815260408083206001600160a01b038516845290915290205460ff16610d655760405163e2517d3f60e01b81526001600160a01b038216600482015260248101839052604401610512565b5050565b60025460ff16610d1157604051638dfc202b60e01b815260040160405180910390fd5b5f60208284031215610d9c575f80fd5b81356001600160e01b031981168114610db3575f80fd5b9392505050565b5f60208284031215610dca575f80fd5b5035919050565b6001600160a01b0381168114610411575f80fd5b5f8060408385031215610df6575f80fd5b823591506020830135610e0881610dd1565b809150509250929050565b5f60208284031215610e23575f80fd5b5051919050565b634e487b7160e01b5f52601260045260245ffd5b5f82610e4c57610e4c610e2a565b500690565b634e487b7160e01b5f52601160045260245ffd5b8181038181111561037757610377610e51565b5f82610e8657610e86610e2a565b500490565b8082018082111561037757610377610e51565b5f60208284031215610eae575f80fd5b8151610db381610dd1565b5f60208284031215610ec9575f80fd5b81518015158114610db3575f80fd5b67ffffffffffffffff818116838216019081111561037757610377610e5156fea26469706673582212205ef6474d7c3eb3a2438bd8ce331a6c46cee2b822230657a2710c3d89b0a6336564736f6c634300081a0033","opcodes":"PUSH1 0xE0 PUSH1 0x40 MSTORE CALLVALUE DUP1 ISZERO PUSH2 0xF JUMPI PUSH0 DUP1 REVERT JUMPDEST POP PUSH1 0x40 MLOAD PUSH2 0x11C2 CODESIZE SUB DUP1 PUSH2 0x11C2 DUP4 CODECOPY DUP2 ADD PUSH1 0x40 DUP2 SWAP1 MSTORE PUSH2 0x2E SWAP2 PUSH2 0x1D9 JUMP JUMPDEST PUSH1 0x1 DUP1 SSTORE PUSH1 0x1 PUSH1 0x1 PUSH1 0xA0 SHL SUB DUP4 AND PUSH2 0x77 JUMPI PUSH1 0x40 MLOAD PUSH3 0x461BCD PUSH1 0xE5 SHL DUP2 MSTORE PUSH1 0x20 PUSH1 0x4 DUP3 ADD MSTORE PUSH1 0x7 PUSH1 0x24 DUP3 ADD MSTORE PUSH7 0x746F6B656E3D3 PUSH1 0xCC SHL PUSH1 0x44 DUP3 ADD MSTORE PUSH1 0x64 ADD JUMPDEST PUSH1 0x40 MLOAD DUP1 SWAP2 SUB SWAP1 REVERT JUMPDEST PUSH1 0x1 PUSH1 0x1 PUSH1 0xA0 SHL SUB DUP3 AND PUSH2 0xBA JUMPI PUSH1 0x40 MLOAD PUSH3 0x461BCD PUSH1 0xE5 SHL DUP2 MSTORE PUSH1 0x20 PUSH1 0x4 DUP3 ADD MSTORE PUSH1 0xA PUSH1 0x24 DUP3 ADD MSTORE PUSH10 0x72656769737472793D3 PUSH1 0xB4 SHL PUSH1 0x44 DUP3 ADD MSTORE PUSH1 0x64 ADD PUSH2 0x6E JUMP JUMPDEST PUSH1 0x1 PUSH1 0x1 PUSH1 0xA0 SHL SUB DUP1 DUP5 AND PUSH1 0x80 MSTORE DUP3 AND PUSH1 0xA0 MSTORE PUSH1 0x1 PUSH1 0x1 PUSH1 0x40 SHL SUB DUP2 AND PUSH1 0xC0 MSTORE PUSH2 0xE4 PUSH0 DUP6 PUSH2 0x119 JUMP JUMPDEST POP PUSH2 0x10F PUSH32 0xA49807205CE4D355092EF5A8A18F56E8913CF4A201FBE287825B095693C21775 DUP6 PUSH2 0x119 JUMP JUMPDEST POP POP POP POP POP PUSH2 0x240 JUMP JUMPDEST PUSH0 DUP3 DUP2 MSTORE PUSH1 0x20 DUP2 DUP2 MSTORE PUSH1 0x40 DUP1 DUP4 KECCAK256 PUSH1 0x1 PUSH1 0x1 PUSH1 0xA0 SHL SUB DUP6 AND DUP5 MSTORE SWAP1 SWAP2 MSTORE DUP2 KECCAK256 SLOAD PUSH1 0xFF AND PUSH2 0x1B9 JUMPI PUSH0 DUP4 DUP2 MSTORE PUSH1 0x20 DUP2 DUP2 MSTORE PUSH1 0x40 DUP1 DUP4 KECCAK256 PUSH1 0x1 PUSH1 0x1 PUSH1 0xA0 SHL SUB DUP7 AND DUP5 MSTORE SWAP1 SWAP2 MSTORE SWAP1 KECCAK256 DUP1 SLOAD PUSH1 0xFF NOT AND PUSH1 0x1 OR SWAP1 SSTORE PUSH2 0x171 CALLER SWAP1 JUMP JUMPDEST PUSH1 0x1 PUSH1 0x1 PUSH1 0xA0 SHL SUB AND DUP3 PUSH1 0x1 PUSH1 0x1 PUSH1 0xA0 SHL SUB AND DUP5 PUSH32 0x2F8788117E7EFF1D82E926EC794901D17C78024A50270940304540A733656F0D PUSH1 0x40 MLOAD PUSH1 0x40 MLOAD DUP1 SWAP2 SUB SWAP1 LOG4 POP PUSH1 0x1 PUSH2 0x1BC JUMP JUMPDEST POP PUSH0 JUMPDEST SWAP3 SWAP2 POP POP JUMP JUMPDEST PUSH1 0x1 PUSH1 0x1 PUSH1 0xA0 SHL SUB DUP2 AND DUP2 EQ PUSH2 0x1D6 JUMPI PUSH0 DUP1 REVERT JUMPDEST POP JUMP JUMPDEST PUSH0 DUP1 PUSH0 DUP1 PUSH1 0x80 DUP6 DUP8 SUB SLT ISZERO PUSH2 0x1EC JUMPI PUSH0 DUP1 REVERT JUMPDEST DUP5 MLOAD PUSH2 0x1F7 DUP2 PUSH2 0x1C2 JUMP JUMPDEST PUSH1 0x20 DUP7 ADD MLOAD SWAP1 SWAP5 POP PUSH2 0x208 DUP2 PUSH2 0x1C2 JUMP JUMPDEST PUSH1 0x40 DUP7 ADD MLOAD SWAP1 SWAP4 POP PUSH2 0x219 DUP2 PUSH2 0x1C2 JUMP JUMPDEST PUSH1 0x60 DUP7 ADD MLOAD SWAP1 SWAP3 POP PUSH1 0x1 PUSH1 0x1 PUSH1 0x40 SHL SUB DUP2 AND DUP2 EQ PUSH2 0x235 JUMPI PUSH0 DUP1 REVERT JUMPDEST SWAP4 SWAP7 SWAP3 SWAP6 POP SWAP1 SWAP4 POP POP JUMP JUMPDEST PUSH1 0x80 MLOAD PUSH1 0xA0 MLOAD PUSH1 0xC0 MLOAD PUSH2 0xF2E PUSH2 0x294 PUSH0 CODECOPY PUSH0 DUP2 DUP2 PUSH2 0x2EB ADD MSTORE PUSH2 0x85E ADD MSTORE PUSH0 DUP2 DUP2 PUSH2 0x21A ADD MSTORE DUP2 DUP2 PUSH2 0x459 ADD MSTORE PUSH2 0x69A ADD MSTORE PUSH0 DUP2 DUP2 PUSH2 0x325 ADD MSTORE DUP2 DUP2 PUSH2 0x532 ADD MSTORE DUP2 DUP2 PUSH2 0x768 ADD MSTORE PUSH2 0x9DE ADD MSTORE PUSH2 0xF2E PUSH0 RETURN INVALID PUSH1 0x80 PUSH1 0x40 MSTORE CALLVALUE DUP1 ISZERO PUSH2 0xF JUMPI PUSH0 DUP1 REVERT JUMPDEST POP PUSH1 0x4 CALLDATASIZE LT PUSH2 0x11C JUMPI PUSH0 CALLDATALOAD PUSH1 0xE0 SHR DUP1 PUSH4 0x7B103999 GT PUSH2 0xA9 JUMPI DUP1 PUSH4 0xA3B0B5A3 GT PUSH2 0x6E JUMPI DUP1 PUSH4 0xA3B0B5A3 EQ PUSH2 0x2AC JUMPI DUP1 PUSH4 0xB6B55F25 EQ PUSH2 0x2D3 JUMPI DUP1 PUSH4 0xD3E04000 EQ PUSH2 0x2E6 JUMPI DUP1 PUSH4 0xD547741F EQ PUSH2 0x30D JUMPI DUP1 PUSH4 0xFC0C546A EQ PUSH2 0x320 JUMPI PUSH0 DUP1 REVERT JUMPDEST DUP1 PUSH4 0x7B103999 EQ PUSH2 0x215 JUMPI DUP1 PUSH4 0x8456CB59 EQ PUSH2 0x254 JUMPI DUP1 PUSH4 0x91C05B0B EQ PUSH2 0x25C JUMPI DUP1 PUSH4 0x91D14854 EQ PUSH2 0x26F JUMPI DUP1 PUSH4 0xA217FDDF EQ PUSH2 0x2A5 JUMPI PUSH0 DUP1 REVERT JUMPDEST DUP1 PUSH4 0x3F4BA83A GT PUSH2 0xEF JUMPI DUP1 PUSH4 0x3F4BA83A EQ PUSH2 0x1A0 JUMPI DUP1 PUSH4 0x543CA95F EQ PUSH2 0x1A8 JUMPI DUP1 PUSH4 0x5C975ABB EQ PUSH2 0x1B1 JUMPI DUP1 PUSH4 0x75B17350 EQ PUSH2 0x1BC JUMPI DUP1 PUSH4 0x75B238FC EQ PUSH2 0x1EE JUMPI PUSH0 DUP1 REVERT JUMPDEST DUP1 PUSH4 0x1FFC9A7 EQ PUSH2 0x120 JUMPI DUP1 PUSH4 0x248A9CA3 EQ PUSH2 0x148 JUMPI DUP1 PUSH4 0x2F2FF15D EQ PUSH2 0x178 JUMPI DUP1 PUSH4 0x36568ABE EQ PUSH2 0x18D JUMPI JUMPDEST PUSH0 DUP1 REVERT JUMPDEST PUSH2 0x133 PUSH2 0x12E CALLDATASIZE PUSH1 0x4 PUSH2 0xD8C JUMP JUMPDEST PUSH2 0x347 JUMP JUMPDEST PUSH1 0x40 MLOAD SWAP1 ISZERO ISZERO DUP2 MSTORE PUSH1 0x20 ADD JUMPDEST PUSH1 0x40 MLOAD DUP1 SWAP2 SUB SWAP1 RETURN JUMPDEST PUSH2 0x16A PUSH2 0x156 CALLDATASIZE PUSH1 0x4 PUSH2 0xDBA JUMP JUMPDEST PUSH0 SWAP1 DUP2 MSTORE PUSH1 0x20 DUP2 SWAP1 MSTORE PUSH1 0x40 SWAP1 KECCAK256 PUSH1 0x1 ADD SLOAD SWAP1 JUMP JUMPDEST PUSH1 0x40 MLOAD SWAP1 DUP2 MSTORE PUSH1 0x20 ADD PUSH2 0x13F JUMP JUMPDEST PUSH2 0x18B PUSH2 0x186 CALLDATASIZE PUSH1 0x4 PUSH2 0xDE5 JUMP JUMPDEST PUSH2 0x37D JUMP JUMPDEST STOP JUMPDEST PUSH2 0x18B PUSH2 0x19B CALLDATASIZE PUSH1 0x4 PUSH2 0xDE5 JUMP JUMPDEST PUSH2 0x3A7 JUMP JUMPDEST PUSH2 0x18B PUSH2 0x3DF JUMP JUMPDEST PUSH2 0x16A PUSH1 0x3 SLOAD DUP2 JUMP JUMPDEST PUSH1 0x2 SLOAD PUSH1 0xFF AND PUSH2 0x133 JUMP JUMPDEST PUSH1 0x2 SLOAD PUSH2 0x1D5 SWAP1 PUSH2 0x100 SWAP1 DIV PUSH8 0xFFFFFFFFFFFFFFFF AND DUP2 JUMP JUMPDEST PUSH1 0x40 MLOAD PUSH8 0xFFFFFFFFFFFFFFFF SWAP1 SWAP2 AND DUP2 MSTORE PUSH1 0x20 ADD PUSH2 0x13F JUMP JUMPDEST PUSH2 0x16A PUSH32 0xA49807205CE4D355092EF5A8A18F56E8913CF4A201FBE287825B095693C21775 DUP2 JUMP JUMPDEST PUSH2 0x23C PUSH32 0x0 DUP2 JUMP JUMPDEST PUSH1 0x40 MLOAD PUSH1 0x1 PUSH1 0x1 PUSH1 0xA0 SHL SUB SWAP1 SWAP2 AND DUP2 MSTORE PUSH1 0x20 ADD PUSH2 0x13F JUMP JUMPDEST PUSH2 0x18B PUSH2 0x414 JUMP JUMPDEST PUSH2 0x18B PUSH2 0x26A CALLDATASIZE PUSH1 0x4 PUSH2 0xDBA JUMP JUMPDEST PUSH2 0x446 JUMP JUMPDEST PUSH2 0x133 PUSH2 0x27D CALLDATASIZE PUSH1 0x4 PUSH2 0xDE5 JUMP JUMPDEST PUSH0 SWAP2 DUP3 MSTORE PUSH1 0x20 DUP3 DUP2 MSTORE PUSH1 0x40 DUP1 DUP5 KECCAK256 PUSH1 0x1 PUSH1 0x1 PUSH1 0xA0 SHL SUB SWAP4 SWAP1 SWAP4 AND DUP5 MSTORE SWAP2 SWAP1 MSTORE SWAP1 KECCAK256 SLOAD PUSH1 0xFF AND SWAP1 JUMP JUMPDEST PUSH2 0x16A PUSH0 DUP2 JUMP JUMPDEST PUSH2 0x16A PUSH32 0x8F4F2DA22E8AC8F11E15F9FC141CDDBB5DEEA8800186560ABB6E68C5496619A9 DUP2 JUMP JUMPDEST PUSH2 0x18B PUSH2 0x2E1 CALLDATASIZE PUSH1 0x4 PUSH2 0xDBA JUMP JUMPDEST PUSH2 0x970 JUMP JUMPDEST PUSH2 0x1D5 PUSH32 0x0 DUP2 JUMP JUMPDEST PUSH2 0x18B PUSH2 0x31B CALLDATASIZE PUSH1 0x4 PUSH2 0xDE5 JUMP JUMPDEST PUSH2 0xADE JUMP JUMPDEST PUSH2 0x23C PUSH32 0x0 DUP2 JUMP JUMPDEST PUSH0 PUSH1 0x1 PUSH1 0x1 PUSH1 0xE0 SHL SUB NOT DUP3 AND PUSH4 0x7965DB0B PUSH1 0xE0 SHL EQ DUP1 PUSH2 0x377 JUMPI POP PUSH4 0x1FFC9A7 PUSH1 0xE0 SHL PUSH1 0x1 PUSH1 0x1 PUSH1 0xE0 SHL SUB NOT DUP4 AND EQ JUMPDEST SWAP3 SWAP2 POP POP JUMP JUMPDEST PUSH0 DUP3 DUP2 MSTORE PUSH1 0x20 DUP2 SWAP1 MSTORE PUSH1 0x40 SWAP1 KECCAK256 PUSH1 0x1 ADD SLOAD PUSH2 0x397 DUP2 PUSH2 0xB02 JUMP JUMPDEST PUSH2 0x3A1 DUP4 DUP4 PUSH2 0xB0C JUMP JUMPDEST POP POP POP POP JUMP JUMPDEST PUSH1 0x1 PUSH1 0x1 PUSH1 0xA0 SHL SUB DUP2 AND CALLER EQ PUSH2 0x3D0 JUMPI PUSH1 0x40 MLOAD PUSH4 0x334BD919 PUSH1 0xE1 SHL DUP2 MSTORE PUSH1 0x4 ADD PUSH1 0x40 MLOAD DUP1 SWAP2 SUB SWAP1 REVERT JUMPDEST PUSH2 0x3DA DUP3 DUP3 PUSH2 0xBB3 JUMP JUMPDEST POP POP POP JUMP JUMPDEST PUSH32 0xA49807205CE4D355092EF5A8A18F56E8913CF4A201FBE287825B095693C21775 PUSH2 0x409 DUP2 PUSH2 0xB02 JUMP JUMPDEST PUSH2 0x411 PUSH2 0xC34 JUMP JUMPDEST POP JUMP JUMPDEST PUSH32 0xA49807205CE4D355092EF5A8A18F56E8913CF4A201FBE287825B095693C21775 PUSH2 0x43E DUP2 PUSH2 0xB02 JUMP JUMPDEST PUSH2 0x411 PUSH2 0xC86 JUMP JUMPDEST PUSH2 0x44E PUSH2 0xCC3 JUMP JUMPDEST PUSH2 0x456 PUSH2 0xCED JUMP JUMPDEST PUSH0 PUSH32 0x0 PUSH1 0x1 PUSH1 0x1 PUSH1 0xA0 SHL SUB AND PUSH4 0x630CB4DC PUSH1 0x40 MLOAD DUP2 PUSH4 0xFFFFFFFF AND PUSH1 0xE0 SHL DUP2 MSTORE PUSH1 0x4 ADD PUSH1 0x20 PUSH1 0x40 MLOAD DUP1 DUP4 SUB DUP2 DUP7 GAS STATICCALL ISZERO DUP1 ISZERO PUSH2 0x4B3 JUMPI RETURNDATASIZE PUSH0 DUP1 RETURNDATACOPY RETURNDATASIZE PUSH0 REVERT JUMPDEST POP POP POP POP PUSH1 0x40 MLOAD RETURNDATASIZE PUSH1 0x1F NOT PUSH1 0x1F DUP3 ADD AND DUP3 ADD DUP1 PUSH1 0x40 MSTORE POP DUP2 ADD SWAP1 PUSH2 0x4D7 SWAP2 SWAP1 PUSH2 0xE13 JUMP JUMPDEST SWAP1 POP PUSH0 DUP2 GT PUSH2 0x51B JUMPI PUSH1 0x40 MLOAD PUSH3 0x461BCD PUSH1 0xE5 SHL DUP2 MSTORE PUSH1 0x20 PUSH1 0x4 DUP3 ADD MSTORE PUSH1 0xB PUSH1 0x24 DUP3 ADD MSTORE PUSH11 0x6E6F20656C696769626C65 PUSH1 0xA8 SHL PUSH1 0x44 DUP3 ADD MSTORE PUSH1 0x64 ADD JUMPDEST PUSH1 0x40 MLOAD DUP1 SWAP2 SUB SWAP1 REVERT JUMPDEST PUSH1 0x40 MLOAD PUSH4 0x70A08231 PUSH1 0xE0 SHL DUP2 MSTORE ADDRESS PUSH1 0x4 DUP3 ADD MSTORE PUSH0 SWAP1 PUSH32 0x0 PUSH1 0x1 PUSH1 0x1 PUSH1 0xA0 SHL SUB AND SWAP1 PUSH4 0x70A08231 SWAP1 PUSH1 0x24 ADD PUSH1 0x20 PUSH1 0x40 MLOAD DUP1 DUP4 SUB DUP2 DUP7 GAS STATICCALL ISZERO DUP1 ISZERO PUSH2 0x57F JUMPI RETURNDATASIZE PUSH0 DUP1 RETURNDATACOPY RETURNDATASIZE PUSH0 REVERT JUMPDEST POP POP POP POP PUSH1 0x40 MLOAD RETURNDATASIZE PUSH1 0x1F NOT PUSH1 0x1F DUP3 ADD AND DUP3 ADD DUP1 PUSH1 0x40 MSTORE POP DUP2 ADD SWAP1 PUSH2 0x5A3 SWAP2 SWAP1 PUSH2 0xE13 JUMP JUMPDEST SWAP1 POP PUSH0 DUP2 GT PUSH2 0x5E1 JUMPI PUSH1 0x40 MLOAD PUSH3 0x461BCD PUSH1 0xE5 SHL DUP2 MSTORE PUSH1 0x20 PUSH1 0x4 DUP3 ADD MSTORE PUSH1 0xA PUSH1 0x24 DUP3 ADD MSTORE PUSH10 0x6E6F2062616C616E6365 PUSH1 0xB0 SHL PUSH1 0x44 DUP3 ADD MSTORE PUSH1 0x64 ADD PUSH2 0x512 JUMP JUMPDEST PUSH0 DUP3 PUSH1 0x3 SLOAD PUSH2 0x5F0 SWAP2 SWAP1 PUSH2 0xE3E JUMP JUMPDEST PUSH2 0x5FA SWAP1 DUP5 PUSH2 0xE65 JUMP JUMPDEST SWAP1 POP PUSH0 DUP2 DUP6 LT PUSH2 0x60A JUMPI DUP2 PUSH2 0x60C JUMP JUMPDEST DUP5 JUMPDEST SWAP1 POP PUSH0 DUP2 GT PUSH2 0x645 JUMPI PUSH1 0x40 MLOAD PUSH3 0x461BCD PUSH1 0xE5 SHL DUP2 MSTORE PUSH1 0x20 PUSH1 0x4 DUP3 ADD MSTORE PUSH1 0x5 PUSH1 0x24 DUP3 ADD MSTORE PUSH5 0x6E756D3D3 PUSH1 0xDC SHL PUSH1 0x44 DUP3 ADD MSTORE PUSH1 0x64 ADD PUSH2 0x512 JUMP JUMPDEST PUSH0 PUSH2 0x650 DUP3 DUP6 PUSH2 0xE78 JUMP JUMPDEST SWAP1 POP PUSH0 DUP2 GT PUSH2 0x68D JUMPI PUSH1 0x40 MLOAD PUSH3 0x461BCD PUSH1 0xE5 SHL DUP2 MSTORE PUSH1 0x20 PUSH1 0x4 DUP3 ADD MSTORE PUSH1 0x9 PUSH1 0x24 DUP3 ADD MSTORE PUSH9 0x1D1BDBC81CDB585B1B PUSH1 0xBA SHL PUSH1 0x44 DUP3 ADD MSTORE PUSH1 0x64 ADD PUSH2 0x512 JUMP JUMPDEST PUSH0 JUMPDEST DUP3 DUP2 LT ISZERO PUSH2 0x817 JUMPI PUSH0 PUSH32 0x0 PUSH1 0x1 PUSH1 0x1 PUSH1 0xA0 SHL SUB AND PUSH4 0x91D0B7F1 DUP9 DUP5 PUSH1 0x3 SLOAD PUSH2 0x6D6 SWAP2 SWAP1 PUSH2 0xE8B JUMP JUMPDEST PUSH2 0x6E0 SWAP2 SWAP1 PUSH2 0xE3E JUMP JUMPDEST PUSH1 0x40 MLOAD DUP3 PUSH4 0xFFFFFFFF AND PUSH1 0xE0 SHL DUP2 MSTORE PUSH1 0x4 ADD PUSH2 0x6FE SWAP2 DUP2 MSTORE PUSH1 0x20 ADD SWAP1 JUMP JUMPDEST PUSH1 0x20 PUSH1 0x40 MLOAD DUP1 DUP4 SUB DUP2 DUP7 GAS STATICCALL ISZERO DUP1 ISZERO PUSH2 0x719 JUMPI RETURNDATASIZE PUSH0 DUP1 RETURNDATACOPY RETURNDATASIZE PUSH0 REVERT JUMPDEST POP POP POP POP PUSH1 0x40 MLOAD RETURNDATASIZE PUSH1 0x1F NOT PUSH1 0x1F DUP3 ADD AND DUP3 ADD DUP1 PUSH1 0x40 MSTORE POP DUP2 ADD SWAP1 PUSH2 0x73D SWAP2 SWAP1 PUSH2 0xE9E JUMP JUMPDEST PUSH1 0x40 MLOAD PUSH4 0xA9059CBB PUSH1 0xE0 SHL DUP2 MSTORE PUSH1 0x1 PUSH1 0x1 PUSH1 0xA0 SHL SUB DUP1 DUP4 AND PUSH1 0x4 DUP4 ADD MSTORE PUSH1 0x24 DUP3 ADD DUP7 SWAP1 MSTORE SWAP2 SWAP3 POP PUSH0 SWAP2 PUSH32 0x0 AND SWAP1 PUSH4 0xA9059CBB SWAP1 PUSH1 0x44 ADD PUSH1 0x20 PUSH1 0x40 MLOAD DUP1 DUP4 SUB DUP2 PUSH0 DUP8 GAS CALL ISZERO DUP1 ISZERO PUSH2 0x7AE JUMPI RETURNDATASIZE PUSH0 DUP1 RETURNDATACOPY RETURNDATASIZE PUSH0 REVERT JUMPDEST POP POP POP POP PUSH1 0x40 MLOAD RETURNDATASIZE PUSH1 0x1F NOT PUSH1 0x1F DUP3 ADD AND DUP3 ADD DUP1 PUSH1 0x40 MSTORE POP DUP2 ADD SWAP1 PUSH2 0x7D2 SWAP2 SWAP1 PUSH2 0xEB9 JUMP JUMPDEST SWAP1 POP DUP1 PUSH2 0x80D JUMPI PUSH1 0x40 MLOAD PUSH3 0x461BCD PUSH1 0xE5 SHL DUP2 MSTORE PUSH1 0x20 PUSH1 0x4 DUP3 ADD MSTORE PUSH1 0x9 PUSH1 0x24 DUP3 ADD MSTORE PUSH9 0x1E19995C8819985A5B PUSH1 0xBA SHL PUSH1 0x44 DUP3 ADD MSTORE PUSH1 0x64 ADD PUSH2 0x512 JUMP JUMPDEST POP POP PUSH1 0x1 ADD PUSH2 0x68F JUMP JUMPDEST POP DUP5 DUP3 PUSH1 0x3 SLOAD PUSH2 0x827 SWAP2 SWAP1 PUSH2 0xE8B JUMP JUMPDEST PUSH2 0x831 SWAP2 SWAP1 PUSH2 0xE3E JUMP JUMPDEST PUSH1 0x3 DUP2 SWAP1 SSTORE PUSH0 SUB PUSH2 0x90F JUMPI PUSH1 0x2 SLOAD PUSH2 0x100 SWAP1 DIV PUSH8 0xFFFFFFFFFFFFFFFF AND ISZERO DUP1 PUSH2 0x8A0 JUMPI POP PUSH1 0x2 SLOAD PUSH2 0x892 SWAP1 PUSH32 0x0 SWAP1 PUSH2 0x100 SWAP1 DIV PUSH8 0xFFFFFFFFFFFFFFFF AND PUSH2 0xED8 JUMP JUMPDEST PUSH8 0xFFFFFFFFFFFFFFFF AND TIMESTAMP LT ISZERO JUMPDEST PUSH2 0x8EC JUMPI PUSH1 0x40 MLOAD PUSH3 0x461BCD PUSH1 0xE5 SHL DUP2 MSTORE PUSH1 0x20 PUSH1 0x4 DUP3 ADD MSTORE PUSH1 0x14 PUSH1 0x24 DUP3 ADD MSTORE PUSH32 0x696E74657276616C206E6F742072656163686564000000000000000000000000 PUSH1 0x44 DUP3 ADD MSTORE PUSH1 0x64 ADD PUSH2 0x512 JUMP JUMPDEST PUSH1 0x2 DUP1 SLOAD PUSH9 0xFFFFFFFFFFFFFFFF00 NOT AND PUSH2 0x100 TIMESTAMP PUSH8 0xFFFFFFFFFFFFFFFF AND MUL OR SWAP1 SSTORE JUMPDEST PUSH1 0x3 SLOAD PUSH1 0x40 DUP1 MLOAD DUP5 DUP2 MSTORE PUSH1 0x20 DUP2 ADD DUP5 SWAP1 MSTORE TIMESTAMP PUSH8 0xFFFFFFFFFFFFFFFF AND DUP2 DUP4 ADD MSTORE PUSH1 0x60 DUP2 ADD SWAP3 SWAP1 SWAP3 MSTORE MLOAD PUSH32 0x3015830F22D7F1C3EAB2E3551E1D89E56567FB7E354F93978511B6C60F1928F0 SWAP2 DUP2 SWAP1 SUB PUSH1 0x80 ADD SWAP1 LOG1 POP POP POP POP POP PUSH2 0x411 PUSH1 0x1 DUP1 SSTORE JUMP JUMPDEST PUSH2 0x978 PUSH2 0xCC3 JUMP JUMPDEST PUSH2 0x980 PUSH2 0xCED JUMP JUMPDEST PUSH0 DUP2 GT PUSH2 0x9BA JUMPI PUSH1 0x40 MLOAD PUSH3 0x461BCD PUSH1 0xE5 SHL DUP2 MSTORE PUSH1 0x20 PUSH1 0x4 DUP3 ADD MSTORE PUSH1 0x8 PUSH1 0x24 DUP3 ADD MSTORE PUSH8 0x616D6F756E743D3 PUSH1 0xC4 SHL PUSH1 0x44 DUP3 ADD MSTORE PUSH1 0x64 ADD PUSH2 0x512 JUMP JUMPDEST PUSH1 0x40 MLOAD PUSH4 0x23B872DD PUSH1 0xE0 SHL DUP2 MSTORE CALLER PUSH1 0x4 DUP3 ADD MSTORE ADDRESS PUSH1 0x24 DUP3 ADD MSTORE PUSH1 0x44 DUP2 ADD DUP3 SWAP1 MSTORE PUSH0 SWAP1 PUSH32 0x0 PUSH1 0x1 PUSH1 0x1 PUSH1 0xA0 SHL SUB AND SWAP1 PUSH4 0x23B872DD SWAP1 PUSH1 0x64 ADD PUSH1 0x20 PUSH1 0x40 MLOAD DUP1 DUP4 SUB DUP2 PUSH0 DUP8 GAS CALL ISZERO DUP1 ISZERO PUSH2 0xA2C JUMPI RETURNDATASIZE PUSH0 DUP1 RETURNDATACOPY RETURNDATASIZE PUSH0 REVERT JUMPDEST POP POP POP POP PUSH1 0x40 MLOAD RETURNDATASIZE PUSH1 0x1F NOT PUSH1 0x1F DUP3 ADD AND DUP3 ADD DUP1 PUSH1 0x40 MSTORE POP DUP2 ADD SWAP1 PUSH2 0xA50 SWAP2 SWAP1 PUSH2 0xEB9 JUMP JUMPDEST SWAP1 POP DUP1 PUSH2 0xA9F JUMPI PUSH1 0x40 MLOAD PUSH3 0x461BCD PUSH1 0xE5 SHL DUP2 MSTORE PUSH1 0x20 PUSH1 0x4 DUP3 ADD MSTORE PUSH1 0xF PUSH1 0x24 DUP3 ADD MSTORE PUSH32 0x7472616E73666572206661696C65640000000000000000000000000000000000 PUSH1 0x44 DUP3 ADD MSTORE PUSH1 0x64 ADD PUSH2 0x512 JUMP JUMPDEST PUSH1 0x40 MLOAD DUP3 DUP2 MSTORE CALLER SWAP1 PUSH32 0x2DA466A7B24304F47E87FA2E1E5A81B9831CE54FEC19055CE277CA2F39BA42C4 SWAP1 PUSH1 0x20 ADD PUSH1 0x40 MLOAD DUP1 SWAP2 SUB SWAP1 LOG2 POP PUSH2 0x411 PUSH1 0x1 DUP1 SSTORE JUMP JUMPDEST PUSH0 DUP3 DUP2 MSTORE PUSH1 0x20 DUP2 SWAP1 MSTORE PUSH1 0x40 SWAP1 KECCAK256 PUSH1 0x1 ADD SLOAD PUSH2 0xAF8 DUP2 PUSH2 0xB02 JUMP JUMPDEST PUSH2 0x3A1 DUP4 DUP4 PUSH2 0xBB3 JUMP JUMPDEST PUSH2 0x411 DUP2 CALLER PUSH2 0xD13 JUMP JUMPDEST PUSH0 DUP3 DUP2 MSTORE PUSH1 0x20 DUP2 DUP2 MSTORE PUSH1 0x40 DUP1 DUP4 KECCAK256 PUSH1 0x1 PUSH1 0x1 PUSH1 0xA0 SHL SUB DUP6 AND DUP5 MSTORE SWAP1 SWAP2 MSTORE DUP2 KECCAK256 SLOAD PUSH1 0xFF AND PUSH2 0xBAC JUMPI PUSH0 DUP4 DUP2 MSTORE PUSH1 0x20 DUP2 DUP2 MSTORE PUSH1 0x40 DUP1 DUP4 KECCAK256 PUSH1 0x1 PUSH1 0x1 PUSH1 0xA0 SHL SUB DUP7 AND DUP5 MSTORE SWAP1 SWAP2 MSTORE SWAP1 KECCAK256 DUP1 SLOAD PUSH1 0xFF NOT AND PUSH1 0x1 OR SWAP1 SSTORE PUSH2 0xB64 CALLER SWAP1 JUMP JUMPDEST PUSH1 0x1 PUSH1 0x1 PUSH1 0xA0 SHL SUB AND DUP3 PUSH1 0x1 PUSH1 0x1 PUSH1 0xA0 SHL SUB AND DUP5 PUSH32 0x2F8788117E7EFF1D82E926EC794901D17C78024A50270940304540A733656F0D PUSH1 0x40 MLOAD PUSH1 0x40 MLOAD DUP1 SWAP2 SUB SWAP1 LOG4 POP PUSH1 0x1 PUSH2 0x377 JUMP JUMPDEST POP PUSH0 PUSH2 0x377 JUMP JUMPDEST PUSH0 DUP3 DUP2 MSTORE PUSH1 0x20 DUP2 DUP2 MSTORE PUSH1 0x40 DUP1 DUP4 KECCAK256 PUSH1 0x1 PUSH1 0x1 PUSH1 0xA0 SHL SUB DUP6 AND DUP5 MSTORE SWAP1 SWAP2 MSTORE DUP2 KECCAK256 SLOAD PUSH1 0xFF AND ISZERO PUSH2 0xBAC JUMPI PUSH0 DUP4 DUP2 MSTORE PUSH1 0x20 DUP2 DUP2 MSTORE PUSH1 0x40 DUP1 DUP4 KECCAK256 PUSH1 0x1 PUSH1 0x1 PUSH1 0xA0 SHL SUB DUP7 AND DUP1 DUP6 MSTORE SWAP3 MSTORE DUP1 DUP4 KECCAK256 DUP1 SLOAD PUSH1 0xFF NOT AND SWAP1 SSTORE MLOAD CALLER SWAP3 DUP7 SWAP2 PUSH32 0xF6391F5C32D9C69D2A47EA670B442974B53935D1EDC7FD64EB21E047A839171B SWAP2 SWAP1 LOG4 POP PUSH1 0x1 PUSH2 0x377 JUMP JUMPDEST PUSH2 0xC3C PUSH2 0xD69 JUMP JUMPDEST PUSH1 0x2 DUP1 SLOAD PUSH1 0xFF NOT AND SWAP1 SSTORE PUSH32 0x5DB9EE0A495BF2E6FF9C91A7834C1BA4FDD244A5E8AA4E537BD38AEAE4B073AA CALLER JUMPDEST PUSH1 0x40 MLOAD PUSH1 0x1 PUSH1 0x1 PUSH1 0xA0 SHL SUB SWAP1 SWAP2 AND DUP2 MSTORE PUSH1 0x20 ADD PUSH1 0x40 MLOAD DUP1 SWAP2 SUB SWAP1 LOG1 JUMP JUMPDEST PUSH2 0xC8E PUSH2 0xCED JUMP JUMPDEST PUSH1 0x2 DUP1 SLOAD PUSH1 0xFF NOT AND PUSH1 0x1 OR SWAP1 SSTORE PUSH32 0x62E78CEA01BEE320CD4E420270B5EA74000D11B0C9F74754EBDBFC544B05A258 PUSH2 0xC69 CALLER SWAP1 JUMP JUMPDEST PUSH1 0x2 PUSH1 0x1 SLOAD SUB PUSH2 0xCE6 JUMPI PUSH1 0x40 MLOAD PUSH4 0x3EE5AEB5 PUSH1 0xE0 SHL DUP2 MSTORE PUSH1 0x4 ADD PUSH1 0x40 MLOAD DUP1 SWAP2 SUB SWAP1 REVERT JUMPDEST PUSH1 0x2 PUSH1 0x1 SSTORE JUMP JUMPDEST PUSH1 0x2 SLOAD PUSH1 0xFF AND ISZERO PUSH2 0xD11 JUMPI PUSH1 0x40 MLOAD PUSH4 0xD93C0665 PUSH1 0xE0 SHL DUP2 MSTORE PUSH1 0x4 ADD PUSH1 0x40 MLOAD DUP1 SWAP2 SUB SWAP1 REVERT JUMPDEST JUMP JUMPDEST PUSH0 DUP3 DUP2 MSTORE PUSH1 0x20 DUP2 DUP2 MSTORE PUSH1 0x40 DUP1 DUP4 KECCAK256 PUSH1 0x1 PUSH1 0x1 PUSH1 0xA0 SHL SUB DUP6 AND DUP5 MSTORE SWAP1 SWAP2 MSTORE SWAP1 KECCAK256 SLOAD PUSH1 0xFF AND PUSH2 0xD65 JUMPI PUSH1 0x40 MLOAD PUSH4 0xE2517D3F PUSH1 0xE0 SHL DUP2 MSTORE PUSH1 0x1 PUSH1 0x1 PUSH1 0xA0 SHL SUB DUP3 AND PUSH1 0x4 DUP3 ADD MSTORE PUSH1 0x24 DUP2 ADD DUP4 SWAP1 MSTORE PUSH1 0x44 ADD PUSH2 0x512 JUMP JUMPDEST POP POP JUMP JUMPDEST PUSH1 0x2 SLOAD PUSH1 0xFF AND PUSH2 0xD11 JUMPI PUSH1 0x40 MLOAD PUSH4 0x8DFC202B PUSH1 0xE0 SHL DUP2 MSTORE PUSH1 0x4 ADD PUSH1 0x40 MLOAD DUP1 SWAP2 SUB SWAP1 REVERT JUMPDEST PUSH0 PUSH1 0x20 DUP3 DUP5 SUB SLT ISZERO PUSH2 0xD9C JUMPI PUSH0 DUP1 REVERT JUMPDEST DUP2 CALLDATALOAD PUSH1 0x1 PUSH1 0x1 PUSH1 0xE0 SHL SUB NOT DUP2 AND DUP2 EQ PUSH2 0xDB3 JUMPI PUSH0 DUP1 REVERT JUMPDEST SWAP4 SWAP3 POP POP POP JUMP JUMPDEST PUSH0 PUSH1 0x20 DUP3 DUP5 SUB SLT ISZERO PUSH2 0xDCA JUMPI PUSH0 DUP1 REVERT JUMPDEST POP CALLDATALOAD SWAP2 SWAP1 POP JUMP JUMPDEST PUSH1 0x1 PUSH1 0x1 PUSH1 0xA0 SHL SUB DUP2 AND DUP2 EQ PUSH2 0x411 JUMPI PUSH0 DUP1 REVERT JUMPDEST PUSH0 DUP1 PUSH1 0x40 DUP4 DUP6 SUB SLT ISZERO PUSH2 0xDF6 JUMPI PUSH0 DUP1 REVERT JUMPDEST DUP3 CALLDATALOAD SWAP2 POP PUSH1 0x20 DUP4 ADD CALLDATALOAD PUSH2 0xE08 DUP2 PUSH2 0xDD1 JUMP JUMPDEST DUP1 SWAP2 POP POP SWAP3 POP SWAP3 SWAP1 POP JUMP JUMPDEST PUSH0 PUSH1 0x20 DUP3 DUP5 SUB SLT ISZERO PUSH2 0xE23 JUMPI PUSH0 DUP1 REVERT JUMPDEST POP MLOAD SWAP2 SWAP1 POP JUMP JUMPDEST PUSH4 0x4E487B71 PUSH1 0xE0 SHL PUSH0 MSTORE PUSH1 0x12 PUSH1 0x4 MSTORE PUSH1 0x24 PUSH0 REVERT JUMPDEST PUSH0 DUP3 PUSH2 0xE4C JUMPI PUSH2 0xE4C PUSH2 0xE2A JUMP JUMPDEST POP MOD SWAP1 JUMP JUMPDEST PUSH4 0x4E487B71 PUSH1 0xE0 SHL PUSH0 MSTORE PUSH1 0x11 PUSH1 0x4 MSTORE PUSH1 0x24 PUSH0 REVERT JUMPDEST DUP2 DUP2 SUB DUP2 DUP2 GT ISZERO PUSH2 0x377 JUMPI PUSH2 0x377 PUSH2 0xE51 JUMP JUMPDEST PUSH0 DUP3 PUSH2 0xE86 JUMPI PUSH2 0xE86 PUSH2 0xE2A JUMP JUMPDEST POP DIV SWAP1 JUMP JUMPDEST DUP1 DUP3 ADD DUP1 DUP3 GT ISZERO PUSH2 0x377 JUMPI PUSH2 0x377 PUSH2 0xE51 JUMP JUMPDEST PUSH0 PUSH1 0x20 DUP3 DUP5 SUB SLT ISZERO PUSH2 0xEAE JUMPI PUSH0 DUP1 REVERT JUMPDEST DUP2 MLOAD PUSH2 0xDB3 DUP2 PUSH2 0xDD1 JUMP JUMPDEST PUSH0 PUSH1 0x20 DUP3 DUP5 SUB SLT ISZERO PUSH2 0xEC9 JUMPI PUSH0 DUP1 REVERT JUMPDEST DUP2 MLOAD DUP1 ISZERO ISZERO DUP2 EQ PUSH2 0xDB3 JUMPI PUSH0 DUP1 REVERT JUMPDEST PUSH8 0xFFFFFFFFFFFFFFFF DUP2 DUP2 AND DUP4 DUP3 AND ADD SWAP1 DUP2 GT ISZERO PUSH2 0x377 JUMPI PUSH2 0x377 PUSH2 0xE51 JUMP INVALID LOG2 PUSH5 0x6970667358 0x22 SLT KECCAK256 MCOPY 0xF6 SELFBALANCE 0x4D PUSH29 0x3EB3A2438BD8CE331A6C46CEE2B822230657A2710C3D89B0A633656473 PUSH16 0x6C634300081A00330000000000000000 "},"methodIdentifiers":{"ADMIN_ROLE()":"75b238fc","DEFAULT_ADMIN_ROLE()":"a217fddf","DEPOSITOR_ROLE()":"a3b0b5a3","deposit(uint256)":"b6b55f25","distribute(uint256)":"91c05b0b","distributionCursor()":"543ca95f","getRoleAdmin(bytes32)":"248a9ca3","grantRole(bytes32,address)":"2f2ff15d","hasRole(bytes32,address)":"91d14854","lastDistributionTime()":"75b17350","minDistributionInterval()":"d3e04000","pause()":"8456cb59","paused()":"5c975abb","registry()":"7b103999","renounceRole(bytes32,address)":"36568abe","revokeRole(bytes32,address)":"d547741f","supportsInterface(bytes4)":"01ffc9a7","token()":"fc0c546a","unpause()":"3f4ba83a"}}}}}