{"contracts/CompensationLimiter.sol":{"CompensationLimiter":{"abi":[{"inputs":[{"internalType":"address","name":"admin","type":"address"},{"internalType":"uint256","name":"annualCap_","type":"uint256"},{"internalType":"uint256","name":"periodLength_","type":"uint256"}],"stateMutability":"nonpayable","type":"constructor"},{"inputs":[],"name":"AccessControlBadConfirmation","type":"error"},{"inputs":[{"internalType":"address","name":"account","type":"address"},{"internalType":"bytes32","name":"neededRole","type":"bytes32"}],"name":"AccessControlUnauthorizedAccount","type":"error"},{"anonymous":false,"inputs":[{"indexed":true,"internalType":"bytes32","name":"identityId","type":"bytes32"},{"indexed":false,"internalType":"uint256","name":"allowed","type":"uint256"},{"indexed":false,"internalType":"uint256","name":"overflow","type":"uint256"},{"indexed":false,"internalType":"uint64","name":"newPeriodStart","type":"uint64"},{"indexed":false,"internalType":"uint256","name":"paidInPeriod","type":"uint256"}],"name":"Consumed","type":"event"},{"anonymous":false,"inputs":[{"indexed":true,"internalType":"bytes32","name":"role","type":"bytes32"},{"indexed":true,"internalType":"bytes32","name":"previousAdminRole","type":"bytes32"},{"indexed":true,"internalType":"bytes32","name":"newAdminRole","type":"bytes32"}],"name":"RoleAdminChanged","type":"event"},{"anonymous":false,"inputs":[{"indexed":true,"internalType":"bytes32","name":"role","type":"bytes32"},{"indexed":true,"internalType":"address","name":"account","type":"address"},{"indexed":true,"internalType":"address","name":"sender","type":"address"}],"name":"RoleGranted","type":"event"},{"anonymous":false,"inputs":[{"indexed":true,"internalType":"bytes32","name":"role","type":"bytes32"},{"indexed":true,"internalType":"address","name":"account","type":"address"},{"indexed":true,"internalType":"address","name":"sender","type":"address"}],"name":"RoleRevoked","type":"event"},{"inputs":[],"name":"CALLER_ROLE","outputs":[{"internalType":"bytes32","name":"","type":"bytes32"}],"stateMutability":"view","type":"function"},{"inputs":[],"name":"DEFAULT_ADMIN_ROLE","outputs":[{"internalType":"bytes32","name":"","type":"bytes32"}],"stateMutability":"view","type":"function"},{"inputs":[],"name":"annualCap","outputs":[{"internalType":"uint256","name":"","type":"uint256"}],"stateMutability":"view","type":"function"},{"inputs":[{"internalType":"bytes32","name":"identityId","type":"bytes32"},{"internalType":"uint256","name":"requested","type":"uint256"}],"name":"consume","outputs":[{"internalType":"uint256","name":"allowed","type":"uint256"},{"internalType":"uint256","name":"overflow","type":"uint256"}],"stateMutability":"nonpayable","type":"function"},{"inputs":[{"internalType":"bytes32","name":"role","type":"bytes32"}],"name":"getRoleAdmin","outputs":[{"internalType":"bytes32","name":"","type":"bytes32"}],"stateMutability":"view","type":"function"},{"inputs":[{"internalType":"bytes32","name":"role","type":"bytes32"},{"internalType":"address","name":"account","type":"address"}],"name":"grantRole","outputs":[],"stateMutability":"nonpayable","type":"function"},{"inputs":[{"internalType":"bytes32","name":"role","type":"bytes32"},{"internalType":"address","name":"account","type":"address"}],"name":"hasRole","outputs":[{"internalType":"bool","name":"","type":"bool"}],"stateMutability":"view","type":"function"},{"inputs":[],"name":"periodLength","outputs":[{"internalType":"uint256","name":"","type":"uint256"}],"stateMutability":"view","type":"function"},{"inputs":[{"internalType":"bytes32","name":"identityId","type":"bytes32"}],"name":"remainingAllowance","outputs":[{"internalType":"uint256","name":"remaining","type":"uint256"},{"internalType":"uint64","name":"periodStart","type":"uint64"},{"internalType":"uint256","name":"paid","type":"uint256"}],"stateMutability":"view","type":"function"},{"inputs":[{"internalType":"bytes32","name":"role","type":"bytes32"},{"internalType":"address","name":"callerConfirmation","type":"address"}],"name":"renounceRole","outputs":[],"stateMutability":"nonpayable","type":"function"},{"inputs":[{"internalType":"bytes32","name":"role","type":"bytes32"},{"internalType":"address","name":"account","type":"address"}],"name":"revokeRole","outputs":[],"stateMutability":"nonpayable","type":"function"},{"inputs":[{"internalType":"bytes4","name":"interfaceId","type":"bytes4"}],"name":"supportsInterface","outputs":[{"internalType":"bool","name":"","type":"bool"}],"stateMutability":"view","type":"function"}],"evm":{"bytecode":{"linkReferences":{},"object":"60c060405234801561000f575f80fd5b50604051610b69380380610b6983398101604081905261002e916101c4565b6001600160a01b0383166100735760405162461bcd60e51b8152602060048201526007602482015266061646d696e3d360cc1b60448201526064015b60405180910390fd5b5f82116100aa5760405162461bcd60e51b815260206004820152600560248201526406361703d360dc1b604482015260640161006a565b62278d0081101580156100c1575063020f58008111155b6100fe5760405162461bcd60e51b815260206004820152600e60248201526d1c195c9a5bd9081a5b9d985b1a5960921b604482015260640161006a565b608082905260a08190526101125f8461011b565b50505050610203565b5f828152602081815260408083206001600160a01b038516845290915281205460ff166101bb575f838152602081815260408083206001600160a01b03861684529091529020805460ff191660011790556101733390565b6001600160a01b0316826001600160a01b0316847f2f8788117e7eff1d82e926ec794901d17c78024a50270940304540a733656f0d60405160405180910390a45060016101be565b505f5b92915050565b5f805f606084860312156101d6575f80fd5b83516001600160a01b03811681146101ec575f80fd5b602085015160409095015190969495509392505050565b60805160a05161090d61025c5f395f81816102420152818161038201526104d701525f81816102140152818161034d015281816103b9015281816103e8015281816104310152818161052b0152610560015261090d5ff3fe608060405234801561000f575f80fd5b50600436106100cf575f3560e01c806391d148541161007d578063a217fddf11610058578063a217fddf14610236578063d2ca21151461023d578063d547741f14610264575f80fd5b806391d14854146101b157806398017489146101e7578063a05f5d341461020f575f80fd5b806336568abe116100ad57806336568abe14610140578063774237fc146101535780638c114fcc1461017a575f80fd5b806301ffc9a7146100d3578063248a9ca3146100fb5780632f2ff15d1461012b575b5f80fd5b6100e66100e13660046107ff565b610277565b60405190151581526020015b60405180910390f35b61011d61010936600461082d565b5f9081526020819052604090206001015490565b6040519081526020016100f2565b61013e610139366004610844565b6102ad565b005b61013e61014e366004610844565b6102d7565b61011d7f843c3a00fa95510a35f425371231fd3fe4642e719cb4595160763d6d02594b5081565b61018d61018836600461082d565b61030f565b6040805193845267ffffffffffffffff9092166020840152908201526060016100f2565b6100e66101bf366004610844565b5f918252602082815260408084206001600160a01b0393909316845291905290205460ff1690565b6101fa6101f536600461087d565b61046d565b604080519283526020830191909152016100f2565b61011d7f000000000000000000000000000000000000000000000000000000000000000081565b61011d5f81565b61011d7f000000000000000000000000000000000000000000000000000000000000000081565b61013e610272366004610844565b61064c565b5f6001600160e01b03198216637965db0b60e01b14806102a757506301ffc9a760e01b6001600160e01b03198316145b92915050565b5f828152602081905260409020600101546102c781610670565b6102d1838361067d565b50505050565b6001600160a01b03811633146103005760405163334bd91960e11b815260040160405180910390fd5b61030a8282610724565b505050565b5f8181526001602081815260408084208151808301909252805467ffffffffffffffff16808352930154918101919091528291829190820361037a577f0000000000000000000000000000000000000000000000000000000000000000425f93509350935050610466565b80516103b1907f00000000000000000000000000000000000000000000000000000000000000009067ffffffffffffffff166108b1565b42106103e6577f0000000000000000000000000000000000000000000000000000000000000000425f93509350935050610466565b7f00000000000000000000000000000000000000000000000000000000000000008160200151106104265780516020909101515f94509092509050610466565b6020810151610455907f00000000000000000000000000000000000000000000000000000000000000006108c4565b815f01518260200151935093509350505b9193909250565b5f807f843c3a00fa95510a35f425371231fd3fe4642e719cb4595160763d6d02594b5061049981610670565b5f858152600160208181526040928390208351808501909452805467ffffffffffffffff1680855292015490830152158061050a57508051610506907f00000000000000000000000000000000000000000000000000000000000000009067ffffffffffffffff166108b1565b4210155b156105235767ffffffffffffffff421681525f60208201525b5f81602001517f000000000000000000000000000000000000000000000000000000000000000011610555575f610584565b6020820151610584907f00000000000000000000000000000000000000000000000000000000000000006108c4565b9050808611610598578594505f93506105a8565b9350836105a581876108c4565b93505b84826020018181516105ba91906108b1565b9052505f878152600160208181526040928390208551815467ffffffffffffffff191667ffffffffffffffff90911690811782558683015191909301819055835189815291820188905292810191909152606081019190915287907f1a93bfdb6646a74be0dd1a7a85b9ec49fd3dc6a83a28fc9497ced686c5325db29060800160405180910390a25050509250929050565b5f8281526020819052604090206001015461066681610670565b6102d18383610724565b61067a81336107a5565b50565b5f828152602081815260408083206001600160a01b038516845290915281205460ff1661071d575f838152602081815260408083206001600160a01b03861684529091529020805460ff191660011790556106d53390565b6001600160a01b0316826001600160a01b0316847f2f8788117e7eff1d82e926ec794901d17c78024a50270940304540a733656f0d60405160405180910390a45060016102a7565b505f6102a7565b5f828152602081815260408083206001600160a01b038516845290915281205460ff161561071d575f838152602081815260408083206001600160a01b0386168085529252808320805460ff1916905551339286917ff6391f5c32d9c69d2a47ea670b442974b53935d1edc7fd64eb21e047a839171b9190a45060016102a7565b5f828152602081815260408083206001600160a01b038516845290915290205460ff166107fb5760405163e2517d3f60e01b81526001600160a01b03821660048201526024810183905260440160405180910390fd5b5050565b5f6020828403121561080f575f80fd5b81356001600160e01b031981168114610826575f80fd5b9392505050565b5f6020828403121561083d575f80fd5b5035919050565b5f8060408385031215610855575f80fd5b8235915060208301356001600160a01b0381168114610872575f80fd5b809150509250929050565b5f806040838503121561088e575f80fd5b50508035926020909101359150565b634e487b7160e01b5f52601160045260245ffd5b808201808211156102a7576102a761089d565b818103818111156102a7576102a761089d56fea26469706673582212202f0e74d4f01b4478f61caef65015866ca2797e52377493a60cdfc7c32f625c3964736f6c634300081a0033","opcodes":"PUSH1 0xC0 PUSH1 0x40 MSTORE CALLVALUE DUP1 ISZERO PUSH2 0xF JUMPI PUSH0 DUP1 REVERT JUMPDEST POP PUSH1 0x40 MLOAD PUSH2 0xB69 CODESIZE SUB DUP1 PUSH2 0xB69 DUP4 CODECOPY DUP2 ADD PUSH1 0x40 DUP2 SWAP1 MSTORE PUSH2 0x2E SWAP2 PUSH2 0x1C4 JUMP JUMPDEST PUSH1 0x1 PUSH1 0x1 PUSH1 0xA0 SHL SUB DUP4 AND PUSH2 0x73 JUMPI PUSH1 0x40 MLOAD PUSH3 0x461BCD PUSH1 0xE5 SHL DUP2 MSTORE PUSH1 0x20 PUSH1 0x4 DUP3 ADD MSTORE PUSH1 0x7 PUSH1 0x24 DUP3 ADD MSTORE PUSH7 0x61646D696E3D3 PUSH1 0xCC SHL PUSH1 0x44 DUP3 ADD MSTORE PUSH1 0x64 ADD JUMPDEST PUSH1 0x40 MLOAD DUP1 SWAP2 SUB SWAP1 REVERT JUMPDEST PUSH0 DUP3 GT PUSH2 0xAA JUMPI PUSH1 0x40 MLOAD PUSH3 0x461BCD PUSH1 0xE5 SHL DUP2 MSTORE PUSH1 0x20 PUSH1 0x4 DUP3 ADD MSTORE PUSH1 0x5 PUSH1 0x24 DUP3 ADD MSTORE PUSH5 0x6361703D3 PUSH1 0xDC SHL PUSH1 0x44 DUP3 ADD MSTORE PUSH1 0x64 ADD PUSH2 0x6A JUMP JUMPDEST PUSH3 0x278D00 DUP2 LT ISZERO DUP1 ISZERO PUSH2 0xC1 JUMPI POP PUSH4 0x20F5800 DUP2 GT ISZERO JUMPDEST PUSH2 0xFE JUMPI PUSH1 0x40 MLOAD PUSH3 0x461BCD PUSH1 0xE5 SHL DUP2 MSTORE PUSH1 0x20 PUSH1 0x4 DUP3 ADD MSTORE PUSH1 0xE PUSH1 0x24 DUP3 ADD MSTORE PUSH14 0x1C195C9A5BD9081A5B9D985B1A59 PUSH1 0x92 SHL PUSH1 0x44 DUP3 ADD MSTORE PUSH1 0x64 ADD PUSH2 0x6A JUMP JUMPDEST PUSH1 0x80 DUP3 SWAP1 MSTORE PUSH1 0xA0 DUP2 SWAP1 MSTORE PUSH2 0x112 PUSH0 DUP5 PUSH2 0x11B JUMP JUMPDEST POP POP POP POP PUSH2 0x203 JUMP JUMPDEST PUSH0 DUP3 DUP2 MSTORE PUSH1 0x20 DUP2 DUP2 MSTORE PUSH1 0x40 DUP1 DUP4 KECCAK256 PUSH1 0x1 PUSH1 0x1 PUSH1 0xA0 SHL SUB DUP6 AND DUP5 MSTORE SWAP1 SWAP2 MSTORE DUP2 KECCAK256 SLOAD PUSH1 0xFF AND PUSH2 0x1BB JUMPI PUSH0 DUP4 DUP2 MSTORE PUSH1 0x20 DUP2 DUP2 MSTORE PUSH1 0x40 DUP1 DUP4 KECCAK256 PUSH1 0x1 PUSH1 0x1 PUSH1 0xA0 SHL SUB DUP7 AND DUP5 MSTORE SWAP1 SWAP2 MSTORE SWAP1 KECCAK256 DUP1 SLOAD PUSH1 0xFF NOT AND PUSH1 0x1 OR SWAP1 SSTORE PUSH2 0x173 CALLER SWAP1 JUMP JUMPDEST PUSH1 0x1 PUSH1 0x1 PUSH1 0xA0 SHL SUB AND DUP3 PUSH1 0x1 PUSH1 0x1 PUSH1 0xA0 SHL SUB AND DUP5 PUSH32 0x2F8788117E7EFF1D82E926EC794901D17C78024A50270940304540A733656F0D PUSH1 0x40 MLOAD PUSH1 0x40 MLOAD DUP1 SWAP2 SUB SWAP1 LOG4 POP PUSH1 0x1 PUSH2 0x1BE JUMP JUMPDEST POP PUSH0 JUMPDEST SWAP3 SWAP2 POP POP JUMP JUMPDEST PUSH0 DUP1 PUSH0 PUSH1 0x60 DUP5 DUP7 SUB SLT ISZERO PUSH2 0x1D6 JUMPI PUSH0 DUP1 REVERT JUMPDEST DUP4 MLOAD PUSH1 0x1 PUSH1 0x1 PUSH1 0xA0 SHL SUB DUP2 AND DUP2 EQ PUSH2 0x1EC JUMPI PUSH0 DUP1 REVERT JUMPDEST PUSH1 0x20 DUP6 ADD MLOAD PUSH1 0x40 SWAP1 SWAP6 ADD MLOAD SWAP1 SWAP7 SWAP5 SWAP6 POP SWAP4 SWAP3 POP POP POP JUMP JUMPDEST PUSH1 0x80 MLOAD PUSH1 0xA0 MLOAD PUSH2 0x90D PUSH2 0x25C PUSH0 CODECOPY PUSH0 DUP2 DUP2 PUSH2 0x242 ADD MSTORE DUP2 DUP2 PUSH2 0x382 ADD MSTORE PUSH2 0x4D7 ADD MSTORE PUSH0 DUP2 DUP2 PUSH2 0x214 ADD MSTORE DUP2 DUP2 PUSH2 0x34D ADD MSTORE DUP2 DUP2 PUSH2 0x3B9 ADD MSTORE DUP2 DUP2 PUSH2 0x3E8 ADD MSTORE DUP2 DUP2 PUSH2 0x431 ADD MSTORE DUP2 DUP2 PUSH2 0x52B ADD MSTORE PUSH2 0x560 ADD MSTORE PUSH2 0x90D PUSH0 RETURN INVALID PUSH1 0x80 PUSH1 0x40 MSTORE CALLVALUE DUP1 ISZERO PUSH2 0xF JUMPI PUSH0 DUP1 REVERT JUMPDEST POP PUSH1 0x4 CALLDATASIZE LT PUSH2 0xCF JUMPI PUSH0 CALLDATALOAD PUSH1 0xE0 SHR DUP1 PUSH4 0x91D14854 GT PUSH2 0x7D JUMPI DUP1 PUSH4 0xA217FDDF GT PUSH2 0x58 JUMPI DUP1 PUSH4 0xA217FDDF EQ PUSH2 0x236 JUMPI DUP1 PUSH4 0xD2CA2115 EQ PUSH2 0x23D JUMPI DUP1 PUSH4 0xD547741F EQ PUSH2 0x264 JUMPI PUSH0 DUP1 REVERT JUMPDEST DUP1 PUSH4 0x91D14854 EQ PUSH2 0x1B1 JUMPI DUP1 PUSH4 0x98017489 EQ PUSH2 0x1E7 JUMPI DUP1 PUSH4 0xA05F5D34 EQ PUSH2 0x20F JUMPI PUSH0 DUP1 REVERT JUMPDEST DUP1 PUSH4 0x36568ABE GT PUSH2 0xAD JUMPI DUP1 PUSH4 0x36568ABE EQ PUSH2 0x140 JUMPI DUP1 PUSH4 0x774237FC EQ PUSH2 0x153 JUMPI DUP1 PUSH4 0x8C114FCC EQ PUSH2 0x17A JUMPI PUSH0 DUP1 REVERT JUMPDEST DUP1 PUSH4 0x1FFC9A7 EQ PUSH2 0xD3 JUMPI DUP1 PUSH4 0x248A9CA3 EQ PUSH2 0xFB JUMPI DUP1 PUSH4 0x2F2FF15D EQ PUSH2 0x12B JUMPI JUMPDEST PUSH0 DUP1 REVERT JUMPDEST PUSH2 0xE6 PUSH2 0xE1 CALLDATASIZE PUSH1 0x4 PUSH2 0x7FF JUMP JUMPDEST PUSH2 0x277 JUMP JUMPDEST PUSH1 0x40 MLOAD SWAP1 ISZERO ISZERO DUP2 MSTORE PUSH1 0x20 ADD JUMPDEST PUSH1 0x40 MLOAD DUP1 SWAP2 SUB SWAP1 RETURN JUMPDEST PUSH2 0x11D PUSH2 0x109 CALLDATASIZE PUSH1 0x4 PUSH2 0x82D JUMP JUMPDEST PUSH0 SWAP1 DUP2 MSTORE PUSH1 0x20 DUP2 SWAP1 MSTORE PUSH1 0x40 SWAP1 KECCAK256 PUSH1 0x1 ADD SLOAD SWAP1 JUMP JUMPDEST PUSH1 0x40 MLOAD SWAP1 DUP2 MSTORE PUSH1 0x20 ADD PUSH2 0xF2 JUMP JUMPDEST PUSH2 0x13E PUSH2 0x139 CALLDATASIZE PUSH1 0x4 PUSH2 0x844 JUMP JUMPDEST PUSH2 0x2AD JUMP JUMPDEST STOP JUMPDEST PUSH2 0x13E PUSH2 0x14E CALLDATASIZE PUSH1 0x4 PUSH2 0x844 JUMP JUMPDEST PUSH2 0x2D7 JUMP JUMPDEST PUSH2 0x11D PUSH32 0x843C3A00FA95510A35F425371231FD3FE4642E719CB4595160763D6D02594B50 DUP2 JUMP JUMPDEST PUSH2 0x18D PUSH2 0x188 CALLDATASIZE PUSH1 0x4 PUSH2 0x82D JUMP JUMPDEST PUSH2 0x30F JUMP JUMPDEST PUSH1 0x40 DUP1 MLOAD SWAP4 DUP5 MSTORE PUSH8 0xFFFFFFFFFFFFFFFF SWAP1 SWAP3 AND PUSH1 0x20 DUP5 ADD MSTORE SWAP1 DUP3 ADD MSTORE PUSH1 0x60 ADD PUSH2 0xF2 JUMP JUMPDEST PUSH2 0xE6 PUSH2 0x1BF CALLDATASIZE PUSH1 0x4 PUSH2 0x844 JUMP JUMPDEST PUSH0 SWAP2 DUP3 MSTORE PUSH1 0x20 DUP3 DUP2 MSTORE PUSH1 0x40 DUP1 DUP5 KECCAK256 PUSH1 0x1 PUSH1 0x1 PUSH1 0xA0 SHL SUB SWAP4 SWAP1 SWAP4 AND DUP5 MSTORE SWAP2 SWAP1 MSTORE SWAP1 KECCAK256 SLOAD PUSH1 0xFF AND SWAP1 JUMP JUMPDEST PUSH2 0x1FA PUSH2 0x1F5 CALLDATASIZE PUSH1 0x4 PUSH2 0x87D JUMP JUMPDEST PUSH2 0x46D JUMP JUMPDEST PUSH1 0x40 DUP1 MLOAD SWAP3 DUP4 MSTORE PUSH1 0x20 DUP4 ADD SWAP2 SWAP1 SWAP2 MSTORE ADD PUSH2 0xF2 JUMP JUMPDEST PUSH2 0x11D PUSH32 0x0 DUP2 JUMP JUMPDEST PUSH2 0x11D PUSH0 DUP2 JUMP JUMPDEST PUSH2 0x11D PUSH32 0x0 DUP2 JUMP JUMPDEST PUSH2 0x13E PUSH2 0x272 CALLDATASIZE PUSH1 0x4 PUSH2 0x844 JUMP JUMPDEST PUSH2 0x64C JUMP JUMPDEST PUSH0 PUSH1 0x1 PUSH1 0x1 PUSH1 0xE0 SHL SUB NOT DUP3 AND PUSH4 0x7965DB0B PUSH1 0xE0 SHL EQ DUP1 PUSH2 0x2A7 JUMPI POP PUSH4 0x1FFC9A7 PUSH1 0xE0 SHL PUSH1 0x1 PUSH1 0x1 PUSH1 0xE0 SHL SUB NOT DUP4 AND EQ JUMPDEST SWAP3 SWAP2 POP POP JUMP JUMPDEST PUSH0 DUP3 DUP2 MSTORE PUSH1 0x20 DUP2 SWAP1 MSTORE PUSH1 0x40 SWAP1 KECCAK256 PUSH1 0x1 ADD SLOAD PUSH2 0x2C7 DUP2 PUSH2 0x670 JUMP JUMPDEST PUSH2 0x2D1 DUP4 DUP4 PUSH2 0x67D JUMP JUMPDEST POP POP POP POP JUMP JUMPDEST PUSH1 0x1 PUSH1 0x1 PUSH1 0xA0 SHL SUB DUP2 AND CALLER EQ PUSH2 0x300 JUMPI PUSH1 0x40 MLOAD PUSH4 0x334BD919 PUSH1 0xE1 SHL DUP2 MSTORE PUSH1 0x4 ADD PUSH1 0x40 MLOAD DUP1 SWAP2 SUB SWAP1 REVERT JUMPDEST PUSH2 0x30A DUP3 DUP3 PUSH2 0x724 JUMP JUMPDEST POP POP POP JUMP JUMPDEST PUSH0 DUP2 DUP2 MSTORE PUSH1 0x1 PUSH1 0x20 DUP2 DUP2 MSTORE PUSH1 0x40 DUP1 DUP5 KECCAK256 DUP2 MLOAD DUP1 DUP4 ADD SWAP1 SWAP3 MSTORE DUP1 SLOAD PUSH8 0xFFFFFFFFFFFFFFFF AND DUP1 DUP4 MSTORE SWAP4 ADD SLOAD SWAP2 DUP2 ADD SWAP2 SWAP1 SWAP2 MSTORE DUP3 SWAP2 DUP3 SWAP2 SWAP1 DUP3 SUB PUSH2 0x37A JUMPI PUSH32 0x0 TIMESTAMP PUSH0 SWAP4 POP SWAP4 POP SWAP4 POP POP PUSH2 0x466 JUMP JUMPDEST DUP1 MLOAD PUSH2 0x3B1 SWAP1 PUSH32 0x0 SWAP1 PUSH8 0xFFFFFFFFFFFFFFFF AND PUSH2 0x8B1 JUMP JUMPDEST TIMESTAMP LT PUSH2 0x3E6 JUMPI PUSH32 0x0 TIMESTAMP PUSH0 SWAP4 POP SWAP4 POP SWAP4 POP POP PUSH2 0x466 JUMP JUMPDEST PUSH32 0x0 DUP2 PUSH1 0x20 ADD MLOAD LT PUSH2 0x426 JUMPI DUP1 MLOAD PUSH1 0x20 SWAP1 SWAP2 ADD MLOAD PUSH0 SWAP5 POP SWAP1 SWAP3 POP SWAP1 POP PUSH2 0x466 JUMP JUMPDEST PUSH1 0x20 DUP2 ADD MLOAD PUSH2 0x455 SWAP1 PUSH32 0x0 PUSH2 0x8C4 JUMP JUMPDEST DUP2 PUSH0 ADD MLOAD DUP3 PUSH1 0x20 ADD MLOAD SWAP4 POP SWAP4 POP SWAP4 POP POP JUMPDEST SWAP2 SWAP4 SWAP1 SWAP3 POP JUMP JUMPDEST PUSH0 DUP1 PUSH32 0x843C3A00FA95510A35F425371231FD3FE4642E719CB4595160763D6D02594B50 PUSH2 0x499 DUP2 PUSH2 0x670 JUMP JUMPDEST PUSH0 DUP6 DUP2 MSTORE PUSH1 0x1 PUSH1 0x20 DUP2 DUP2 MSTORE PUSH1 0x40 SWAP3 DUP4 SWAP1 KECCAK256 DUP4 MLOAD DUP1 DUP6 ADD SWAP1 SWAP5 MSTORE DUP1 SLOAD PUSH8 0xFFFFFFFFFFFFFFFF AND DUP1 DUP6 MSTORE SWAP3 ADD SLOAD SWAP1 DUP4 ADD MSTORE ISZERO DUP1 PUSH2 0x50A JUMPI POP DUP1 MLOAD PUSH2 0x506 SWAP1 PUSH32 0x0 SWAP1 PUSH8 0xFFFFFFFFFFFFFFFF AND PUSH2 0x8B1 JUMP JUMPDEST TIMESTAMP LT ISZERO JUMPDEST ISZERO PUSH2 0x523 JUMPI PUSH8 0xFFFFFFFFFFFFFFFF TIMESTAMP AND DUP2 MSTORE PUSH0 PUSH1 0x20 DUP3 ADD MSTORE JUMPDEST PUSH0 DUP2 PUSH1 0x20 ADD MLOAD PUSH32 0x0 GT PUSH2 0x555 JUMPI PUSH0 PUSH2 0x584 JUMP JUMPDEST PUSH1 0x20 DUP3 ADD MLOAD PUSH2 0x584 SWAP1 PUSH32 0x0 PUSH2 0x8C4 JUMP JUMPDEST SWAP1 POP DUP1 DUP7 GT PUSH2 0x598 JUMPI DUP6 SWAP5 POP PUSH0 SWAP4 POP PUSH2 0x5A8 JUMP JUMPDEST SWAP4 POP DUP4 PUSH2 0x5A5 DUP2 DUP8 PUSH2 0x8C4 JUMP JUMPDEST SWAP4 POP JUMPDEST DUP5 DUP3 PUSH1 0x20 ADD DUP2 DUP2 MLOAD PUSH2 0x5BA SWAP2 SWAP1 PUSH2 0x8B1 JUMP JUMPDEST SWAP1 MSTORE POP PUSH0 DUP8 DUP2 MSTORE PUSH1 0x1 PUSH1 0x20 DUP2 DUP2 MSTORE PUSH1 0x40 SWAP3 DUP4 SWAP1 KECCAK256 DUP6 MLOAD DUP2 SLOAD PUSH8 0xFFFFFFFFFFFFFFFF NOT AND PUSH8 0xFFFFFFFFFFFFFFFF SWAP1 SWAP2 AND SWAP1 DUP2 OR DUP3 SSTORE DUP7 DUP4 ADD MLOAD SWAP2 SWAP1 SWAP4 ADD DUP2 SWAP1 SSTORE DUP4 MLOAD DUP10 DUP2 MSTORE SWAP2 DUP3 ADD DUP9 SWAP1 MSTORE SWAP3 DUP2 ADD SWAP2 SWAP1 SWAP2 MSTORE PUSH1 0x60 DUP2 ADD SWAP2 SWAP1 SWAP2 MSTORE DUP8 SWAP1 PUSH32 0x1A93BFDB6646A74BE0DD1A7A85B9EC49FD3DC6A83A28FC9497CED686C5325DB2 SWAP1 PUSH1 0x80 ADD PUSH1 0x40 MLOAD DUP1 SWAP2 SUB SWAP1 LOG2 POP POP POP SWAP3 POP SWAP3 SWAP1 POP JUMP JUMPDEST PUSH0 DUP3 DUP2 MSTORE PUSH1 0x20 DUP2 SWAP1 MSTORE PUSH1 0x40 SWAP1 KECCAK256 PUSH1 0x1 ADD SLOAD PUSH2 0x666 DUP2 PUSH2 0x670 JUMP JUMPDEST PUSH2 0x2D1 DUP4 DUP4 PUSH2 0x724 JUMP JUMPDEST PUSH2 0x67A DUP2 CALLER PUSH2 0x7A5 JUMP JUMPDEST POP JUMP JUMPDEST PUSH0 DUP3 DUP2 MSTORE PUSH1 0x20 DUP2 DUP2 MSTORE PUSH1 0x40 DUP1 DUP4 KECCAK256 PUSH1 0x1 PUSH1 0x1 PUSH1 0xA0 SHL SUB DUP6 AND DUP5 MSTORE SWAP1 SWAP2 MSTORE DUP2 KECCAK256 SLOAD PUSH1 0xFF AND PUSH2 0x71D JUMPI PUSH0 DUP4 DUP2 MSTORE PUSH1 0x20 DUP2 DUP2 MSTORE PUSH1 0x40 DUP1 DUP4 KECCAK256 PUSH1 0x1 PUSH1 0x1 PUSH1 0xA0 SHL SUB DUP7 AND DUP5 MSTORE SWAP1 SWAP2 MSTORE SWAP1 KECCAK256 DUP1 SLOAD PUSH1 0xFF NOT AND PUSH1 0x1 OR SWAP1 SSTORE PUSH2 0x6D5 CALLER SWAP1 JUMP JUMPDEST PUSH1 0x1 PUSH1 0x1 PUSH1 0xA0 SHL SUB AND DUP3 PUSH1 0x1 PUSH1 0x1 PUSH1 0xA0 SHL SUB AND DUP5 PUSH32 0x2F8788117E7EFF1D82E926EC794901D17C78024A50270940304540A733656F0D PUSH1 0x40 MLOAD PUSH1 0x40 MLOAD DUP1 SWAP2 SUB SWAP1 LOG4 POP PUSH1 0x1 PUSH2 0x2A7 JUMP JUMPDEST POP PUSH0 PUSH2 0x2A7 JUMP JUMPDEST PUSH0 DUP3 DUP2 MSTORE PUSH1 0x20 DUP2 DUP2 MSTORE PUSH1 0x40 DUP1 DUP4 KECCAK256 PUSH1 0x1 PUSH1 0x1 PUSH1 0xA0 SHL SUB DUP6 AND DUP5 MSTORE SWAP1 SWAP2 MSTORE DUP2 KECCAK256 SLOAD PUSH1 0xFF AND ISZERO PUSH2 0x71D JUMPI PUSH0 DUP4 DUP2 MSTORE PUSH1 0x20 DUP2 DUP2 MSTORE PUSH1 0x40 DUP1 DUP4 KECCAK256 PUSH1 0x1 PUSH1 0x1 PUSH1 0xA0 SHL SUB DUP7 AND DUP1 DUP6 MSTORE SWAP3 MSTORE DUP1 DUP4 KECCAK256 DUP1 SLOAD PUSH1 0xFF NOT AND SWAP1 SSTORE MLOAD CALLER SWAP3 DUP7 SWAP2 PUSH32 0xF6391F5C32D9C69D2A47EA670B442974B53935D1EDC7FD64EB21E047A839171B SWAP2 SWAP1 LOG4 POP PUSH1 0x1 PUSH2 0x2A7 JUMP JUMPDEST PUSH0 DUP3 DUP2 MSTORE PUSH1 0x20 DUP2 DUP2 MSTORE PUSH1 0x40 DUP1 DUP4 KECCAK256 PUSH1 0x1 PUSH1 0x1 PUSH1 0xA0 SHL SUB DUP6 AND DUP5 MSTORE SWAP1 SWAP2 MSTORE SWAP1 KECCAK256 SLOAD PUSH1 0xFF AND PUSH2 0x7FB JUMPI PUSH1 0x40 MLOAD PUSH4 0xE2517D3F PUSH1 0xE0 SHL DUP2 MSTORE PUSH1 0x1 PUSH1 0x1 PUSH1 0xA0 SHL SUB DUP3 AND PUSH1 0x4 DUP3 ADD MSTORE PUSH1 0x24 DUP2 ADD DUP4 SWAP1 MSTORE PUSH1 0x44 ADD PUSH1 0x40 MLOAD DUP1 SWAP2 SUB SWAP1 REVERT JUMPDEST POP POP JUMP JUMPDEST PUSH0 PUSH1 0x20 DUP3 DUP5 SUB SLT ISZERO PUSH2 0x80F JUMPI PUSH0 DUP1 REVERT JUMPDEST DUP2 CALLDATALOAD PUSH1 0x1 PUSH1 0x1 PUSH1 0xE0 SHL SUB NOT DUP2 AND DUP2 EQ PUSH2 0x826 JUMPI PUSH0 DUP1 REVERT JUMPDEST SWAP4 SWAP3 POP POP POP JUMP JUMPDEST PUSH0 PUSH1 0x20 DUP3 DUP5 SUB SLT ISZERO PUSH2 0x83D JUMPI PUSH0 DUP1 REVERT JUMPDEST POP CALLDATALOAD SWAP2 SWAP1 POP JUMP JUMPDEST PUSH0 DUP1 PUSH1 0x40 DUP4 DUP6 SUB SLT ISZERO PUSH2 0x855 JUMPI PUSH0 DUP1 REVERT JUMPDEST DUP3 CALLDATALOAD SWAP2 POP PUSH1 0x20 DUP4 ADD CALLDATALOAD PUSH1 0x1 PUSH1 0x1 PUSH1 0xA0 SHL SUB DUP2 AND DUP2 EQ PUSH2 0x872 JUMPI PUSH0 DUP1 REVERT JUMPDEST DUP1 SWAP2 POP POP SWAP3 POP SWAP3 SWAP1 POP JUMP JUMPDEST PUSH0 DUP1 PUSH1 0x40 DUP4 DUP6 SUB SLT ISZERO PUSH2 0x88E JUMPI PUSH0 DUP1 REVERT JUMPDEST POP POP DUP1 CALLDATALOAD SWAP3 PUSH1 0x20 SWAP1 SWAP2 ADD CALLDATALOAD SWAP2 POP JUMP JUMPDEST PUSH4 0x4E487B71 PUSH1 0xE0 SHL PUSH0 MSTORE PUSH1 0x11 PUSH1 0x4 MSTORE PUSH1 0x24 PUSH0 REVERT JUMPDEST DUP1 DUP3 ADD DUP1 DUP3 GT ISZERO PUSH2 0x2A7 JUMPI PUSH2 0x2A7 PUSH2 0x89D JUMP JUMPDEST DUP2 DUP2 SUB DUP2 DUP2 GT ISZERO PUSH2 0x2A7 JUMPI PUSH2 0x2A7 PUSH2 0x89D JUMP INVALID LOG2 PUSH5 0x6970667358 0x22 SLT KECCAK256 0x2F 0xE PUSH21 0xD4F01B4478F61CAEF65015866CA2797E52377493A6 0xC 0xDF 0xC7 0xC3 0x2F PUSH3 0x5C3964 PUSH20 0x6F6C634300081A00330000000000000000000000 "},"methodIdentifiers":{"CALLER_ROLE()":"774237fc","DEFAULT_ADMIN_ROLE()":"a217fddf","annualCap()":"a05f5d34","consume(bytes32,uint256)":"98017489","getRoleAdmin(bytes32)":"248a9ca3","grantRole(bytes32,address)":"2f2ff15d","hasRole(bytes32,address)":"91d14854","periodLength()":"d2ca2115","remainingAllowance(bytes32)":"8c114fcc","renounceRole(bytes32,address)":"36568abe","revokeRole(bytes32,address)":"d547741f","supportsInterface(bytes4)":"01ffc9a7"}}}}}