{
  "_format": "hh-sol-artifact-1",
  "contractName": "EligibilityRegistry",
  "sourceName": "contracts/EligibilityRegistry.sol",
  "abi": [
    {
      "inputs": [
        {
          "internalType": "address",
          "name": "admin",
          "type": "address"
        }
      ],
      "stateMutability": "nonpayable",
      "type": "constructor"
    },
    {
      "inputs": [],
      "name": "AccessControlBadConfirmation",
      "type": "error"
    },
    {
      "inputs": [
        {
          "internalType": "address",
          "name": "account",
          "type": "address"
        },
        {
          "internalType": "bytes32",
          "name": "neededRole",
          "type": "bytes32"
        }
      ],
      "name": "AccessControlUnauthorizedAccount",
      "type": "error"
    },
    {
      "anonymous": false,
      "inputs": [
        {
          "indexed": true,
          "internalType": "address",
          "name": "subject",
          "type": "address"
        },
        {
          "indexed": true,
          "internalType": "bytes32",
          "name": "identityId",
          "type": "bytes32"
        }
      ],
      "name": "EligibilityGranted",
      "type": "event"
    },
    {
      "anonymous": false,
      "inputs": [
        {
          "indexed": true,
          "internalType": "address",
          "name": "subject",
          "type": "address"
        },
        {
          "indexed": true,
          "internalType": "bytes32",
          "name": "identityId",
          "type": "bytes32"
        }
      ],
      "name": "EligibilityRevoked",
      "type": "event"
    },
    {
      "anonymous": false,
      "inputs": [
        {
          "indexed": true,
          "internalType": "address",
          "name": "subject",
          "type": "address"
        },
        {
          "indexed": true,
          "internalType": "bytes32",
          "name": "identityId",
          "type": "bytes32"
        }
      ],
      "name": "IdentityRegistered",
      "type": "event"
    },
    {
      "anonymous": false,
      "inputs": [
        {
          "indexed": true,
          "internalType": "bytes32",
          "name": "role",
          "type": "bytes32"
        },
        {
          "indexed": true,
          "internalType": "bytes32",
          "name": "previousAdminRole",
          "type": "bytes32"
        },
        {
          "indexed": true,
          "internalType": "bytes32",
          "name": "newAdminRole",
          "type": "bytes32"
        }
      ],
      "name": "RoleAdminChanged",
      "type": "event"
    },
    {
      "anonymous": false,
      "inputs": [
        {
          "indexed": true,
          "internalType": "bytes32",
          "name": "role",
          "type": "bytes32"
        },
        {
          "indexed": true,
          "internalType": "address",
          "name": "account",
          "type": "address"
        },
        {
          "indexed": true,
          "internalType": "address",
          "name": "sender",
          "type": "address"
        }
      ],
      "name": "RoleGranted",
      "type": "event"
    },
    {
      "anonymous": false,
      "inputs": [
        {
          "indexed": true,
          "internalType": "bytes32",
          "name": "role",
          "type": "bytes32"
        },
        {
          "indexed": true,
          "internalType": "address",
          "name": "account",
          "type": "address"
        },
        {
          "indexed": true,
          "internalType": "address",
          "name": "sender",
          "type": "address"
        }
      ],
      "name": "RoleRevoked",
      "type": "event"
    },
    {
      "anonymous": false,
      "inputs": [
        {
          "indexed": true,
          "internalType": "address",
          "name": "verifier",
          "type": "address"
        }
      ],
      "name": "VerifierSet",
      "type": "event"
    },
    {
      "inputs": [],
      "name": "ADMIN_ROLE",
      "outputs": [
        {
          "internalType": "bytes32",
          "name": "",
          "type": "bytes32"
        }
      ],
      "stateMutability": "view",
      "type": "function"
    },
    {
      "inputs": [],
      "name": "ATTESTER_ROLE",
      "outputs": [
        {
          "internalType": "bytes32",
          "name": "",
          "type": "bytes32"
        }
      ],
      "stateMutability": "view",
      "type": "function"
    },
    {
      "inputs": [],
      "name": "DEFAULT_ADMIN_ROLE",
      "outputs": [
        {
          "internalType": "bytes32",
          "name": "",
          "type": "bytes32"
        }
      ],
      "stateMutability": "view",
      "type": "function"
    },
    {
      "inputs": [
        {
          "internalType": "uint256",
          "name": "index",
          "type": "uint256"
        }
      ],
      "name": "eligibleAtIndex",
      "outputs": [
        {
          "internalType": "address",
          "name": "",
          "type": "address"
        }
      ],
      "stateMutability": "view",
      "type": "function"
    },
    {
      "inputs": [],
      "name": "eligibleCount",
      "outputs": [
        {
          "internalType": "uint256",
          "name": "",
          "type": "uint256"
        }
      ],
      "stateMutability": "view",
      "type": "function"
    },
    {
      "inputs": [
        {
          "internalType": "address",
          "name": "subject",
          "type": "address"
        }
      ],
      "name": "getIdentityId",
      "outputs": [
        {
          "internalType": "bytes32",
          "name": "",
          "type": "bytes32"
        }
      ],
      "stateMutability": "view",
      "type": "function"
    },
    {
      "inputs": [
        {
          "internalType": "bytes32",
          "name": "role",
          "type": "bytes32"
        }
      ],
      "name": "getRoleAdmin",
      "outputs": [
        {
          "internalType": "bytes32",
          "name": "",
          "type": "bytes32"
        }
      ],
      "stateMutability": "view",
      "type": "function"
    },
    {
      "inputs": [
        {
          "internalType": "address",
          "name": "subject",
          "type": "address"
        }
      ],
      "name": "grantEligibility",
      "outputs": [],
      "stateMutability": "nonpayable",
      "type": "function"
    },
    {
      "inputs": [
        {
          "internalType": "address[]",
          "name": "subjects",
          "type": "address[]"
        }
      ],
      "name": "grantEligibilityBatch",
      "outputs": [],
      "stateMutability": "nonpayable",
      "type": "function"
    },
    {
      "inputs": [
        {
          "internalType": "bytes32",
          "name": "role",
          "type": "bytes32"
        },
        {
          "internalType": "address",
          "name": "account",
          "type": "address"
        }
      ],
      "name": "grantRole",
      "outputs": [],
      "stateMutability": "nonpayable",
      "type": "function"
    },
    {
      "inputs": [
        {
          "internalType": "bytes32",
          "name": "role",
          "type": "bytes32"
        },
        {
          "internalType": "address",
          "name": "account",
          "type": "address"
        }
      ],
      "name": "hasRole",
      "outputs": [
        {
          "internalType": "bool",
          "name": "",
          "type": "bool"
        }
      ],
      "stateMutability": "view",
      "type": "function"
    },
    {
      "inputs": [
        {
          "internalType": "address",
          "name": "subject",
          "type": "address"
        }
      ],
      "name": "isEligible",
      "outputs": [
        {
          "internalType": "bool",
          "name": "",
          "type": "bool"
        }
      ],
      "stateMutability": "view",
      "type": "function"
    },
    {
      "inputs": [
        {
          "internalType": "address",
          "name": "subject",
          "type": "address"
        },
        {
          "internalType": "bytes32",
          "name": "identityId",
          "type": "bytes32"
        }
      ],
      "name": "registerIdentity",
      "outputs": [],
      "stateMutability": "nonpayable",
      "type": "function"
    },
    {
      "inputs": [
        {
          "internalType": "address",
          "name": "subject",
          "type": "address"
        },
        {
          "internalType": "bytes32",
          "name": "identityId",
          "type": "bytes32"
        },
        {
          "internalType": "bytes",
          "name": "data",
          "type": "bytes"
        }
      ],
      "name": "registerIdentityWithProof",
      "outputs": [],
      "stateMutability": "nonpayable",
      "type": "function"
    },
    {
      "inputs": [
        {
          "internalType": "bytes32",
          "name": "role",
          "type": "bytes32"
        },
        {
          "internalType": "address",
          "name": "callerConfirmation",
          "type": "address"
        }
      ],
      "name": "renounceRole",
      "outputs": [],
      "stateMutability": "nonpayable",
      "type": "function"
    },
    {
      "inputs": [
        {
          "internalType": "address",
          "name": "subject",
          "type": "address"
        }
      ],
      "name": "revokeEligibility",
      "outputs": [],
      "stateMutability": "nonpayable",
      "type": "function"
    },
    {
      "inputs": [
        {
          "internalType": "bytes32",
          "name": "role",
          "type": "bytes32"
        },
        {
          "internalType": "address",
          "name": "account",
          "type": "address"
        }
      ],
      "name": "revokeRole",
      "outputs": [],
      "stateMutability": "nonpayable",
      "type": "function"
    },
    {
      "inputs": [
        {
          "internalType": "address",
          "name": "attester",
          "type": "address"
        },
        {
          "internalType": "bool",
          "name": "isAttester",
          "type": "bool"
        }
      ],
      "name": "setAttester",
      "outputs": [],
      "stateMutability": "nonpayable",
      "type": "function"
    },
    {
      "inputs": [
        {
          "internalType": "address",
          "name": "newVerifier",
          "type": "address"
        }
      ],
      "name": "setVerifier",
      "outputs": [],
      "stateMutability": "nonpayable",
      "type": "function"
    },
    {
      "inputs": [
        {
          "internalType": "bytes4",
          "name": "interfaceId",
          "type": "bytes4"
        }
      ],
      "name": "supportsInterface",
      "outputs": [
        {
          "internalType": "bool",
          "name": "",
          "type": "bool"
        }
      ],
      "stateMutability": "view",
      "type": "function"
    },
    {
      "inputs": [],
      "name": "verifier",
      "outputs": [
        {
          "internalType": "address",
          "name": "",
          "type": "address"
        }
      ],
      "stateMutability": "view",
      "type": "function"
    }
  ],
  "bytecode": "0x608060405234801561000f575f80fd5b5060405161117f38038061117f83398101604081905261002e91610113565b6100385f8261006a565b506100637fa49807205ce4d355092ef5a8a18f56e8913cf4a201fbe287825b095693c217758261006a565b5050610140565b5f828152602081815260408083206001600160a01b038516845290915281205460ff1661010a575f838152602081815260408083206001600160a01b03861684529091529020805460ff191660011790556100c23390565b6001600160a01b0316826001600160a01b0316847f2f8788117e7eff1d82e926ec794901d17c78024a50270940304540a733656f0d60405160405180910390a450600161010d565b505f5b92915050565b5f60208284031215610123575f80fd5b81516001600160a01b0381168114610139575f80fd5b9392505050565b6110328061014d5f395ff3fe608060405234801561000f575f80fd5b5060043610610141575f3560e01c8063630cb4dc116100c357806391d1485411610088578063c3afcbd911610063578063c3afcbd91461031d578063d547741f14610330578063e2706d0714610343575f80fd5b806391d14854146102cd5780639ef4361514610303578063a217fddf14610316575f80fd5b8063630cb4dc1461025057806366e305fd1461025857806375b238fc1461026b578063867a46801461029257806391d0b7f1146102ba575f80fd5b80632f81bb58116101095780632f81bb58146101f057806336568abe1461020457806342324835146102175780635437988d1461022a5780635c0204d91461023d575f80fd5b806301ffc9a71461014557806303cdfdc91461016d578063248a9ca3146101825780632b7ac3f3146101b25780632f2ff15d146101dd575b5f80fd5b610158610153366004610d3c565b610356565b60405190151581526020015b60405180910390f35b61018061017b366004610d7e565b61038c565b005b6101a4610190366004610d97565b5f9081526020819052604090206001015490565b604051908152602001610164565b6001546101c5906001600160a01b031681565b6040516001600160a01b039091168152602001610164565b6101806101eb366004610dae565b610485565b6101a45f80516020610fdd83398151915281565b610180610212366004610dae565b6104af565b610180610225366004610dd8565b6104e7565b610180610238366004610d7e565b6106a0565b61018061024b366004610e68565b610721565b6101a461077f565b610158610266366004610d7e565b61078f565b6101a47fa49807205ce4d355092ef5a8a18f56e8913cf4a201fbe287825b095693c2177581565b6101a46102a0366004610d7e565b6001600160a01b03165f9081526002602052604090205490565b6101c56102c8366004610d97565b61079b565b6101586102db366004610dae565b5f918252602082815260408084206001600160a01b0393909316845291905290205460ff1690565b610180610311366004610e9d565b6107a7565b6101a45f81565b61018061032b366004610d7e565b6107fa565b61018061033e366004610dae565b6108ff565b610180610351366004610f0e565b610923565b5f6001600160e01b03198216637965db0b60e01b148061038657506301ffc9a760e01b6001600160e01b03198316145b92915050565b5f80516020610fdd8339815191526103a3816109ff565b6001600160a01b0382165f90815260026020526040902054806104005760405162461bcd60e51b815260206004820152601060248201526f1a59195b9d1a5d1e481b9bdd081cd95d60821b60448201526064015b60405180910390fd5b5f61040c600385610a0c565b90508061044a5760405162461bcd60e51b815260206004820152600c60248201526b6e6f7420656c696769626c6560a01b60448201526064016103f7565b60405182906001600160a01b038616907f3ebf686f8620a7ee825b6694b6c63752cdc20854df6cb5fc8a96723a52de35ad905f90a350505050565b5f8281526020819052604090206001015461049f816109ff565b6104a98383610a27565b50505050565b6001600160a01b03811633146104d85760405163334bd91960e11b815260040160405180910390fd5b6104e28282610ace565b505050565b6001546001600160a01b031661053f5760405162461bcd60e51b815260206004820152600e60248201527f766572696669657220756e73657400000000000000000000000000000000000060448201526064016103f7565b6001546040515f9182916001600160a01b03909116906105659086908690602401610f36565b60408051601f198184030181529181526020820180517bffffffffffffffffffffffffffffffffffffffffffffffffffffffff1663473b057f60e11b179052516105af9190610f64565b5f60405180830381855afa9150503d805f81146105e7576040519150601f19603f3d011682016040523d82523d5f602084013e6105ec565b606091505b50915091508180156105ff575080516020145b801561061a57508080602001905181019061061a9190610f7a565b6106565760405162461bcd60e51b815260206004820152600d60248201526c34b73b30b634b210383937b7b360991b60448201526064016103f7565b6001600160a01b0386165f81815260026020526040808220889055518792917f209ae2eb4ff1890ce972a80ec3e167b52d41ab089135cc6430447b1430e824be91a3505050505050565b7fa49807205ce4d355092ef5a8a18f56e8913cf4a201fbe287825b095693c217756106ca816109ff565b6001805473ffffffffffffffffffffffffffffffffffffffff19166001600160a01b0384169081179091556040517f480b37e3d134e44cb444c9703493c7db564c707cb8a18cecea165f340431da1f905f90a25050565b7fa49807205ce4d355092ef5a8a18f56e8913cf4a201fbe287825b095693c2177561074b816109ff565b8115610768576104a95f80516020610fdd83398151915284610a27565b6104a95f80516020610fdd83398151915284610ace565b5f61078a6003610b4f565b905090565b5f610386600383610b58565b5f610386600383610b79565b5f80516020610fdd8339815191526107be816109ff565b5f5b828110156104a9576107f28484838181106107dd576107dd610f95565b905060200201602081019061032b9190610d7e565b6001016107c0565b5f80516020610fdd833981519152610811816109ff565b6001600160a01b0382165f90815260026020526040902054806108695760405162461bcd60e51b815260206004820152601060248201526f1a59195b9d1a5d1e481b9bdd081cd95d60821b60448201526064016103f7565b5f610875600385610b84565b9050806108c45760405162461bcd60e51b815260206004820152601060248201527f616c726561647920656c696769626c650000000000000000000000000000000060448201526064016103f7565b60405182906001600160a01b038616907faf314d4830e0426a89f6781de7b9ee5584d5c017e0c96495fc09a7a825ced7f9905f90a350505050565b5f82815260208190526040902060010154610919816109ff565b6104a98383610ace565b5f80516020610fdd83398151915261093a816109ff565b6001600160a01b03831661097c5760405162461bcd60e51b815260206004820152600960248201526807375626a6563743d360bc1b60448201526064016103f7565b816109b85760405162461bcd60e51b815260206004820152600c60248201526b06964656e7469747949643d360a41b60448201526064016103f7565b6001600160a01b0383165f81815260026020526040808220859055518492917f209ae2eb4ff1890ce972a80ec3e167b52d41ab089135cc6430447b1430e824be91a3505050565b610a098133610b98565b50565b5f610a20836001600160a01b038416610bee565b9392505050565b5f828152602081815260408083206001600160a01b038516845290915281205460ff16610ac7575f838152602081815260408083206001600160a01b03861684529091529020805460ff19166001179055610a7f3390565b6001600160a01b0316826001600160a01b0316847f2f8788117e7eff1d82e926ec794901d17c78024a50270940304540a733656f0d60405160405180910390a4506001610386565b505f610386565b5f828152602081815260408083206001600160a01b038516845290915281205460ff1615610ac7575f838152602081815260408083206001600160a01b0386168085529252808320805460ff1916905551339286917ff6391f5c32d9c69d2a47ea670b442974b53935d1edc7fd64eb21e047a839171b9190a4506001610386565b5f610386825490565b6001600160a01b0381165f9081526001830160205260408120541515610a20565b5f610a208383610cd1565b5f610a20836001600160a01b038416610cf7565b5f828152602081815260408083206001600160a01b038516845290915290205460ff16610bea5760405163e2517d3f60e01b81526001600160a01b0382166004820152602481018390526044016103f7565b5050565b5f8181526001830160205260408120548015610cc8575f610c10600183610fa9565b85549091505f90610c2390600190610fa9565b9050808214610c82575f865f018281548110610c4157610c41610f95565b905f5260205f200154905080875f018481548110610c6157610c61610f95565b5f918252602080832090910192909255918252600188019052604090208390555b8554869080610c9357610c93610fc8565b600190038181905f5260205f20015f90559055856001015f8681526020019081526020015f205f905560019350505050610386565b5f915050610386565b5f825f018281548110610ce657610ce6610f95565b905f5260205f200154905092915050565b5f818152600183016020526040812054610ac757508154600181810184555f848152602080822090930184905584548482528286019093526040902091909155610386565b5f60208284031215610d4c575f80fd5b81356001600160e01b031981168114610a20575f80fd5b80356001600160a01b0381168114610d79575f80fd5b919050565b5f60208284031215610d8e575f80fd5b610a2082610d63565b5f60208284031215610da7575f80fd5b5035919050565b5f8060408385031215610dbf575f80fd5b82359150610dcf60208401610d63565b90509250929050565b5f805f8060608587031215610deb575f80fd5b610df485610d63565b935060208501359250604085013567ffffffffffffffff811115610e16575f80fd5b8501601f81018713610e26575f80fd5b803567ffffffffffffffff811115610e3c575f80fd5b876020828401011115610e4d575f80fd5b949793965060200194505050565b8015158114610a09575f80fd5b5f8060408385031215610e79575f80fd5b610e8283610d63565b91506020830135610e9281610e5b565b809150509250929050565b5f8060208385031215610eae575f80fd5b823567ffffffffffffffff811115610ec4575f80fd5b8301601f81018513610ed4575f80fd5b803567ffffffffffffffff811115610eea575f80fd5b8560208260051b8401011115610efe575f80fd5b6020919091019590945092505050565b5f8060408385031215610f1f575f80fd5b610f2883610d63565b946020939093013593505050565b60208152816020820152818360408301375f818301604090810191909152601f909201601f19160101919050565b5f82518060208501845e5f920191825250919050565b5f60208284031215610f8a575f80fd5b8151610a2081610e5b565b634e487b7160e01b5f52603260045260245ffd5b8181038181111561038657634e487b7160e01b5f52601160045260245ffd5b634e487b7160e01b5f52603160045260245ffdfeca77cd8f9856ef5fcd36f6b15bf469fe216c2f9114f60dd031f0a2b97b67aaa9a2646970667358221220bbfb0c879cba20b75d197e8e5193d5de5f1cb3d26562975bc6ba803fc1a0278664736f6c634300081a0033",
  "linkReferences": {},
  "deployedLinkReferences": {}
}