{
  "_format": "hh-sol-artifact-1",
  "contractName": "RedistributionPool",
  "sourceName": "contracts/RedistributionPool.sol",
  "abi": [
    {
      "inputs": [
        {
          "internalType": "address",
          "name": "admin",
          "type": "address"
        },
        {
          "internalType": "contract IERC20",
          "name": "token_",
          "type": "address"
        },
        {
          "internalType": "contract EligibilityRegistry",
          "name": "registry_",
          "type": "address"
        },
        {
          "internalType": "uint64",
          "name": "minIntervalSeconds",
          "type": "uint64"
        }
      ],
      "stateMutability": "nonpayable",
      "type": "constructor"
    },
    {
      "inputs": [],
      "name": "AccessControlBadConfirmation",
      "type": "error"
    },
    {
      "inputs": [
        {
          "internalType": "address",
          "name": "account",
          "type": "address"
        },
        {
          "internalType": "bytes32",
          "name": "neededRole",
          "type": "bytes32"
        }
      ],
      "name": "AccessControlUnauthorizedAccount",
      "type": "error"
    },
    {
      "inputs": [],
      "name": "ReentrancyGuardReentrantCall",
      "type": "error"
    },
    {
      "anonymous": false,
      "inputs": [
        {
          "indexed": true,
          "internalType": "address",
          "name": "from",
          "type": "address"
        },
        {
          "indexed": false,
          "internalType": "uint256",
          "name": "amount",
          "type": "uint256"
        }
      ],
      "name": "Deposited",
      "type": "event"
    },
    {
      "anonymous": false,
      "inputs": [
        {
          "indexed": false,
          "internalType": "uint256",
          "name": "recipientsProcessed",
          "type": "uint256"
        },
        {
          "indexed": false,
          "internalType": "uint256",
          "name": "amountPerRecipient",
          "type": "uint256"
        },
        {
          "indexed": false,
          "internalType": "uint64",
          "name": "timestamp",
          "type": "uint64"
        },
        {
          "indexed": false,
          "internalType": "uint256",
          "name": "newCursor",
          "type": "uint256"
        }
      ],
      "name": "Distributed",
      "type": "event"
    },
    {
      "anonymous": false,
      "inputs": [
        {
          "indexed": true,
          "internalType": "bytes32",
          "name": "role",
          "type": "bytes32"
        },
        {
          "indexed": true,
          "internalType": "bytes32",
          "name": "previousAdminRole",
          "type": "bytes32"
        },
        {
          "indexed": true,
          "internalType": "bytes32",
          "name": "newAdminRole",
          "type": "bytes32"
        }
      ],
      "name": "RoleAdminChanged",
      "type": "event"
    },
    {
      "anonymous": false,
      "inputs": [
        {
          "indexed": true,
          "internalType": "bytes32",
          "name": "role",
          "type": "bytes32"
        },
        {
          "indexed": true,
          "internalType": "address",
          "name": "account",
          "type": "address"
        },
        {
          "indexed": true,
          "internalType": "address",
          "name": "sender",
          "type": "address"
        }
      ],
      "name": "RoleGranted",
      "type": "event"
    },
    {
      "anonymous": false,
      "inputs": [
        {
          "indexed": true,
          "internalType": "bytes32",
          "name": "role",
          "type": "bytes32"
        },
        {
          "indexed": true,
          "internalType": "address",
          "name": "account",
          "type": "address"
        },
        {
          "indexed": true,
          "internalType": "address",
          "name": "sender",
          "type": "address"
        }
      ],
      "name": "RoleRevoked",
      "type": "event"
    },
    {
      "inputs": [],
      "name": "ADMIN_ROLE",
      "outputs": [
        {
          "internalType": "bytes32",
          "name": "",
          "type": "bytes32"
        }
      ],
      "stateMutability": "view",
      "type": "function"
    },
    {
      "inputs": [],
      "name": "DEFAULT_ADMIN_ROLE",
      "outputs": [
        {
          "internalType": "bytes32",
          "name": "",
          "type": "bytes32"
        }
      ],
      "stateMutability": "view",
      "type": "function"
    },
    {
      "inputs": [],
      "name": "DEPOSITOR_ROLE",
      "outputs": [
        {
          "internalType": "bytes32",
          "name": "",
          "type": "bytes32"
        }
      ],
      "stateMutability": "view",
      "type": "function"
    },
    {
      "inputs": [
        {
          "internalType": "uint256",
          "name": "amount",
          "type": "uint256"
        }
      ],
      "name": "deposit",
      "outputs": [],
      "stateMutability": "nonpayable",
      "type": "function"
    },
    {
      "inputs": [
        {
          "internalType": "uint256",
          "name": "maxRecipients",
          "type": "uint256"
        }
      ],
      "name": "distribute",
      "outputs": [],
      "stateMutability": "nonpayable",
      "type": "function"
    },
    {
      "inputs": [],
      "name": "distributionCursor",
      "outputs": [
        {
          "internalType": "uint256",
          "name": "",
          "type": "uint256"
        }
      ],
      "stateMutability": "view",
      "type": "function"
    },
    {
      "inputs": [
        {
          "internalType": "bytes32",
          "name": "role",
          "type": "bytes32"
        }
      ],
      "name": "getRoleAdmin",
      "outputs": [
        {
          "internalType": "bytes32",
          "name": "",
          "type": "bytes32"
        }
      ],
      "stateMutability": "view",
      "type": "function"
    },
    {
      "inputs": [
        {
          "internalType": "bytes32",
          "name": "role",
          "type": "bytes32"
        },
        {
          "internalType": "address",
          "name": "account",
          "type": "address"
        }
      ],
      "name": "grantRole",
      "outputs": [],
      "stateMutability": "nonpayable",
      "type": "function"
    },
    {
      "inputs": [
        {
          "internalType": "bytes32",
          "name": "role",
          "type": "bytes32"
        },
        {
          "internalType": "address",
          "name": "account",
          "type": "address"
        }
      ],
      "name": "hasRole",
      "outputs": [
        {
          "internalType": "bool",
          "name": "",
          "type": "bool"
        }
      ],
      "stateMutability": "view",
      "type": "function"
    },
    {
      "inputs": [],
      "name": "lastDistributionTime",
      "outputs": [
        {
          "internalType": "uint64",
          "name": "",
          "type": "uint64"
        }
      ],
      "stateMutability": "view",
      "type": "function"
    },
    {
      "inputs": [],
      "name": "minDistributionInterval",
      "outputs": [
        {
          "internalType": "uint64",
          "name": "",
          "type": "uint64"
        }
      ],
      "stateMutability": "view",
      "type": "function"
    },
    {
      "inputs": [],
      "name": "registry",
      "outputs": [
        {
          "internalType": "contract EligibilityRegistry",
          "name": "",
          "type": "address"
        }
      ],
      "stateMutability": "view",
      "type": "function"
    },
    {
      "inputs": [
        {
          "internalType": "bytes32",
          "name": "role",
          "type": "bytes32"
        },
        {
          "internalType": "address",
          "name": "callerConfirmation",
          "type": "address"
        }
      ],
      "name": "renounceRole",
      "outputs": [],
      "stateMutability": "nonpayable",
      "type": "function"
    },
    {
      "inputs": [
        {
          "internalType": "bytes32",
          "name": "role",
          "type": "bytes32"
        },
        {
          "internalType": "address",
          "name": "account",
          "type": "address"
        }
      ],
      "name": "revokeRole",
      "outputs": [],
      "stateMutability": "nonpayable",
      "type": "function"
    },
    {
      "inputs": [
        {
          "internalType": "bytes4",
          "name": "interfaceId",
          "type": "bytes4"
        }
      ],
      "name": "supportsInterface",
      "outputs": [
        {
          "internalType": "bool",
          "name": "",
          "type": "bool"
        }
      ],
      "stateMutability": "view",
      "type": "function"
    },
    {
      "inputs": [],
      "name": "token",
      "outputs": [
        {
          "internalType": "contract IERC20",
          "name": "",
          "type": "address"
        }
      ],
      "stateMutability": "view",
      "type": "function"
    }
  ],
  "bytecode": "0x60e060405234801561000f575f80fd5b5060405161102638038061102683398101604081905261002e916101d9565b600180556001600160a01b0383166100775760405162461bcd60e51b81526020600482015260076024820152660746f6b656e3d360cc1b60448201526064015b60405180910390fd5b6001600160a01b0382166100ba5760405162461bcd60e51b815260206004820152600a602482015269072656769737472793d360b41b604482015260640161006e565b6001600160a01b03808416608052821660a0526001600160401b03811660c0526100e45f85610119565b5061010f7fa49807205ce4d355092ef5a8a18f56e8913cf4a201fbe287825b095693c2177585610119565b5050505050610240565b5f828152602081815260408083206001600160a01b038516845290915281205460ff166101b9575f838152602081815260408083206001600160a01b03861684529091529020805460ff191660011790556101713390565b6001600160a01b0316826001600160a01b0316847f2f8788117e7eff1d82e926ec794901d17c78024a50270940304540a733656f0d60405160405180910390a45060016101bc565b505f5b92915050565b6001600160a01b03811681146101d6575f80fd5b50565b5f805f80608085870312156101ec575f80fd5b84516101f7816101c2565b6020860151909450610208816101c2565b6040860151909350610219816101c2565b60608601519092506001600160401b0381168114610235575f80fd5b939692955090935050565b60805160a05160c051610d926102945f395f81816102aa01526107a901525f81816101e1015281816103a901526105ea01525f81816102e401528181610482015281816106b8015261091a0152610d925ff3fe608060405234801561000f575f80fd5b50600436106100fb575f3560e01c806391c05b0b11610093578063b6b55f2511610063578063b6b55f2514610292578063d3e04000146102a5578063d547741f146102cc578063fc0c546a146102df575f80fd5b806391c05b0b1461021b57806391d148541461022e578063a217fddf14610264578063a3b0b5a31461026b575f80fd5b8063543ca95f116100ce578063543ca95f1461017f57806375b173501461018857806375b238fc146101b55780637b103999146101dc575f80fd5b806301ffc9a7146100ff578063248a9ca3146101275780632f2ff15d1461015757806336568abe1461016c575b5f80fd5b61011261010d366004610bf0565b610306565b60405190151581526020015b60405180910390f35b610149610135366004610c1e565b5f9081526020819052604090206001015490565b60405190815260200161011e565b61016a610165366004610c49565b61033c565b005b61016a61017a366004610c49565b610366565b61014960035481565b60025461019c9067ffffffffffffffff1681565b60405167ffffffffffffffff909116815260200161011e565b6101497fa49807205ce4d355092ef5a8a18f56e8913cf4a201fbe287825b095693c2177581565b6102037f000000000000000000000000000000000000000000000000000000000000000081565b6040516001600160a01b03909116815260200161011e565b61016a610229366004610c1e565b61039e565b61011261023c366004610c49565b5f918252602082815260408084206001600160a01b0393909316845291905290205460ff1690565b6101495f81565b6101497f8f4f2da22e8ac8f11e15f9fc141cddbb5deea8800186560abb6e68c5496619a981565b61016a6102a0366004610c1e565b6108b4565b61019c7f000000000000000000000000000000000000000000000000000000000000000081565b61016a6102da366004610c49565b610a1a565b6102037f000000000000000000000000000000000000000000000000000000000000000081565b5f6001600160e01b03198216637965db0b60e01b148061033657506301ffc9a760e01b6001600160e01b03198316145b92915050565b5f8281526020819052604090206001015461035681610a3e565b6103608383610a48565b50505050565b6001600160a01b038116331461038f5760405163334bd91960e11b815260040160405180910390fd5b6103998282610aef565b505050565b6103a6610b70565b5f7f00000000000000000000000000000000000000000000000000000000000000006001600160a01b031663630cb4dc6040518163ffffffff1660e01b8152600401602060405180830381865afa158015610403573d5f803e3d5ffd5b505050506040513d601f19601f820116820180604052508101906104279190610c77565b90505f811161046b5760405162461bcd60e51b815260206004820152600b60248201526a6e6f20656c696769626c6560a81b60448201526064015b60405180910390fd5b6040516370a0823160e01b81523060048201525f907f00000000000000000000000000000000000000000000000000000000000000006001600160a01b0316906370a0823190602401602060405180830381865afa1580156104cf573d5f803e3d5ffd5b505050506040513d601f19601f820116820180604052508101906104f39190610c77565b90505f81116105315760405162461bcd60e51b815260206004820152600a6024820152696e6f2062616c616e636560b01b6044820152606401610462565b5f826003546105409190610ca2565b61054a9084610cc9565b90505f81851061055a578161055c565b845b90505f81116105955760405162461bcd60e51b815260206004820152600560248201526406e756d3d360dc1b6044820152606401610462565b5f6105a08285610cdc565b90505f81116105dd5760405162461bcd60e51b81526020600482015260096024820152681d1bdbc81cdb585b1b60ba1b6044820152606401610462565b5f5b82811015610767575f7f00000000000000000000000000000000000000000000000000000000000000006001600160a01b03166391d0b7f188846003546106269190610cef565b6106309190610ca2565b6040518263ffffffff1660e01b815260040161064e91815260200190565b602060405180830381865afa158015610669573d5f803e3d5ffd5b505050506040513d601f19601f8201168201806040525081019061068d9190610d02565b60405163a9059cbb60e01b81526001600160a01b038083166004830152602482018690529192505f917f0000000000000000000000000000000000000000000000000000000000000000169063a9059cbb906044016020604051808303815f875af11580156106fe573d5f803e3d5ffd5b505050506040513d601f19601f820116820180604052508101906107229190610d1d565b90508061075d5760405162461bcd60e51b81526020600482015260096024820152681e19995c8819985a5b60ba1b6044820152606401610462565b50506001016105df565b5084826003546107779190610cef565b6107819190610ca2565b60038190555f036108505760025467ffffffffffffffff1615806107e657506002546107d8907f00000000000000000000000000000000000000000000000000000000000000009067ffffffffffffffff16610d3c565b67ffffffffffffffff164210155b6108325760405162461bcd60e51b815260206004820152601460248201527f696e74657276616c206e6f7420726561636865640000000000000000000000006044820152606401610462565b6002805467ffffffffffffffff19164267ffffffffffffffff161790555b60035460408051848152602081018490524267ffffffffffffffff16818301526060810192909252517f3015830f22d7f1c3eab2e3551e1d89e56567fb7e354f93978511b6c60f1928f09181900360800190a150505050506108b160018055565b50565b6108bc610b70565b5f81116108f65760405162461bcd60e51b81526020600482015260086024820152670616d6f756e743d360c41b6044820152606401610462565b6040516323b872dd60e01b8152336004820152306024820152604481018290525f907f00000000000000000000000000000000000000000000000000000000000000006001600160a01b0316906323b872dd906064016020604051808303815f875af1158015610968573d5f803e3d5ffd5b505050506040513d601f19601f8201168201806040525081019061098c9190610d1d565b9050806109db5760405162461bcd60e51b815260206004820152600f60248201527f7472616e73666572206661696c656400000000000000000000000000000000006044820152606401610462565b60405182815233907f2da466a7b24304f47e87fa2e1e5a81b9831ce54fec19055ce277ca2f39ba42c49060200160405180910390a2506108b160018055565b5f82815260208190526040902060010154610a3481610a3e565b6103608383610aef565b6108b18133610b9a565b5f828152602081815260408083206001600160a01b038516845290915281205460ff16610ae8575f838152602081815260408083206001600160a01b03861684529091529020805460ff19166001179055610aa03390565b6001600160a01b0316826001600160a01b0316847f2f8788117e7eff1d82e926ec794901d17c78024a50270940304540a733656f0d60405160405180910390a4506001610336565b505f610336565b5f828152602081815260408083206001600160a01b038516845290915281205460ff1615610ae8575f838152602081815260408083206001600160a01b0386168085529252808320805460ff1916905551339286917ff6391f5c32d9c69d2a47ea670b442974b53935d1edc7fd64eb21e047a839171b9190a4506001610336565b600260015403610b9357604051633ee5aeb560e01b815260040160405180910390fd5b6002600155565b5f828152602081815260408083206001600160a01b038516845290915290205460ff16610bec5760405163e2517d3f60e01b81526001600160a01b038216600482015260248101839052604401610462565b5050565b5f60208284031215610c00575f80fd5b81356001600160e01b031981168114610c17575f80fd5b9392505050565b5f60208284031215610c2e575f80fd5b5035919050565b6001600160a01b03811681146108b1575f80fd5b5f8060408385031215610c5a575f80fd5b823591506020830135610c6c81610c35565b809150509250929050565b5f60208284031215610c87575f80fd5b5051919050565b634e487b7160e01b5f52601260045260245ffd5b5f82610cb057610cb0610c8e565b500690565b634e487b7160e01b5f52601160045260245ffd5b8181038181111561033657610336610cb5565b5f82610cea57610cea610c8e565b500490565b8082018082111561033657610336610cb5565b5f60208284031215610d12575f80fd5b8151610c1781610c35565b5f60208284031215610d2d575f80fd5b81518015158114610c17575f80fd5b67ffffffffffffffff818116838216019081111561033657610336610cb556fea2646970667358221220cff5548f2b49a54ff85b88559005201bc6945fb6ec779ee6485fdda4455b32f964736f6c634300081a0033",
  "linkReferences": {},
  "deployedLinkReferences": {}
}