{
  "_format": "hh-sol-artifact-1",
  "contractName": "AutomationDistributor",
  "sourceName": "contracts/automation/AutomationDistributor.sol",
  "abi": [
    {
      "inputs": [
        {
          "internalType": "address",
          "name": "admin",
          "type": "address"
        },
        {
          "internalType": "contract RedistributionPool",
          "name": "pool_",
          "type": "address"
        },
        {
          "internalType": "uint64",
          "name": "minInterval_",
          "type": "uint64"
        },
        {
          "internalType": "uint256",
          "name": "batchSize_",
          "type": "uint256"
        }
      ],
      "stateMutability": "nonpayable",
      "type": "constructor"
    },
    {
      "inputs": [],
      "name": "AccessControlBadConfirmation",
      "type": "error"
    },
    {
      "inputs": [
        {
          "internalType": "address",
          "name": "account",
          "type": "address"
        },
        {
          "internalType": "bytes32",
          "name": "neededRole",
          "type": "bytes32"
        }
      ],
      "name": "AccessControlUnauthorizedAccount",
      "type": "error"
    },
    {
      "anonymous": false,
      "inputs": [
        {
          "indexed": false,
          "internalType": "uint64",
          "name": "when",
          "type": "uint64"
        },
        {
          "indexed": false,
          "internalType": "uint256",
          "name": "batchSize",
          "type": "uint256"
        }
      ],
      "name": "Performed",
      "type": "event"
    },
    {
      "anonymous": false,
      "inputs": [
        {
          "indexed": true,
          "internalType": "bytes32",
          "name": "role",
          "type": "bytes32"
        },
        {
          "indexed": true,
          "internalType": "bytes32",
          "name": "previousAdminRole",
          "type": "bytes32"
        },
        {
          "indexed": true,
          "internalType": "bytes32",
          "name": "newAdminRole",
          "type": "bytes32"
        }
      ],
      "name": "RoleAdminChanged",
      "type": "event"
    },
    {
      "anonymous": false,
      "inputs": [
        {
          "indexed": true,
          "internalType": "bytes32",
          "name": "role",
          "type": "bytes32"
        },
        {
          "indexed": true,
          "internalType": "address",
          "name": "account",
          "type": "address"
        },
        {
          "indexed": true,
          "internalType": "address",
          "name": "sender",
          "type": "address"
        }
      ],
      "name": "RoleGranted",
      "type": "event"
    },
    {
      "anonymous": false,
      "inputs": [
        {
          "indexed": true,
          "internalType": "bytes32",
          "name": "role",
          "type": "bytes32"
        },
        {
          "indexed": true,
          "internalType": "address",
          "name": "account",
          "type": "address"
        },
        {
          "indexed": true,
          "internalType": "address",
          "name": "sender",
          "type": "address"
        }
      ],
      "name": "RoleRevoked",
      "type": "event"
    },
    {
      "inputs": [],
      "name": "ADMIN_ROLE",
      "outputs": [
        {
          "internalType": "bytes32",
          "name": "",
          "type": "bytes32"
        }
      ],
      "stateMutability": "view",
      "type": "function"
    },
    {
      "inputs": [],
      "name": "DEFAULT_ADMIN_ROLE",
      "outputs": [
        {
          "internalType": "bytes32",
          "name": "",
          "type": "bytes32"
        }
      ],
      "stateMutability": "view",
      "type": "function"
    },
    {
      "inputs": [],
      "name": "batchSize",
      "outputs": [
        {
          "internalType": "uint256",
          "name": "",
          "type": "uint256"
        }
      ],
      "stateMutability": "view",
      "type": "function"
    },
    {
      "inputs": [
        {
          "internalType": "bytes",
          "name": "",
          "type": "bytes"
        }
      ],
      "name": "checkUpkeep",
      "outputs": [
        {
          "internalType": "bool",
          "name": "upkeepNeeded",
          "type": "bool"
        },
        {
          "internalType": "bytes",
          "name": "performData",
          "type": "bytes"
        }
      ],
      "stateMutability": "view",
      "type": "function"
    },
    {
      "inputs": [
        {
          "internalType": "bytes32",
          "name": "role",
          "type": "bytes32"
        }
      ],
      "name": "getRoleAdmin",
      "outputs": [
        {
          "internalType": "bytes32",
          "name": "",
          "type": "bytes32"
        }
      ],
      "stateMutability": "view",
      "type": "function"
    },
    {
      "inputs": [
        {
          "internalType": "bytes32",
          "name": "role",
          "type": "bytes32"
        },
        {
          "internalType": "address",
          "name": "account",
          "type": "address"
        }
      ],
      "name": "grantRole",
      "outputs": [],
      "stateMutability": "nonpayable",
      "type": "function"
    },
    {
      "inputs": [
        {
          "internalType": "bytes32",
          "name": "role",
          "type": "bytes32"
        },
        {
          "internalType": "address",
          "name": "account",
          "type": "address"
        }
      ],
      "name": "hasRole",
      "outputs": [
        {
          "internalType": "bool",
          "name": "",
          "type": "bool"
        }
      ],
      "stateMutability": "view",
      "type": "function"
    },
    {
      "inputs": [],
      "name": "lastRun",
      "outputs": [
        {
          "internalType": "uint64",
          "name": "",
          "type": "uint64"
        }
      ],
      "stateMutability": "view",
      "type": "function"
    },
    {
      "inputs": [],
      "name": "minInterval",
      "outputs": [
        {
          "internalType": "uint64",
          "name": "",
          "type": "uint64"
        }
      ],
      "stateMutability": "view",
      "type": "function"
    },
    {
      "inputs": [
        {
          "internalType": "bytes",
          "name": "performData",
          "type": "bytes"
        }
      ],
      "name": "performUpkeep",
      "outputs": [],
      "stateMutability": "nonpayable",
      "type": "function"
    },
    {
      "inputs": [],
      "name": "pool",
      "outputs": [
        {
          "internalType": "contract RedistributionPool",
          "name": "",
          "type": "address"
        }
      ],
      "stateMutability": "view",
      "type": "function"
    },
    {
      "inputs": [
        {
          "internalType": "bytes32",
          "name": "role",
          "type": "bytes32"
        },
        {
          "internalType": "address",
          "name": "callerConfirmation",
          "type": "address"
        }
      ],
      "name": "renounceRole",
      "outputs": [],
      "stateMutability": "nonpayable",
      "type": "function"
    },
    {
      "inputs": [
        {
          "internalType": "bytes32",
          "name": "role",
          "type": "bytes32"
        },
        {
          "internalType": "address",
          "name": "account",
          "type": "address"
        }
      ],
      "name": "revokeRole",
      "outputs": [],
      "stateMutability": "nonpayable",
      "type": "function"
    },
    {
      "inputs": [
        {
          "internalType": "uint256",
          "name": "newSize",
          "type": "uint256"
        }
      ],
      "name": "setBatchSize",
      "outputs": [],
      "stateMutability": "nonpayable",
      "type": "function"
    },
    {
      "inputs": [
        {
          "internalType": "bytes4",
          "name": "interfaceId",
          "type": "bytes4"
        }
      ],
      "name": "supportsInterface",
      "outputs": [
        {
          "internalType": "bool",
          "name": "",
          "type": "bool"
        }
      ],
      "stateMutability": "view",
      "type": "function"
    }
  ],
  "bytecode": "0x60c060405234801561000f575f80fd5b50604051610a4c380380610a4c83398101604081905261002e9161014c565b6001600160a01b0383166080526001600160401b03821660a05260018190556100575f8561008c565b506100827fa49807205ce4d355092ef5a8a18f56e8913cf4a201fbe287825b095693c217758561008c565b50505050506101a7565b5f828152602081815260408083206001600160a01b038516845290915281205460ff1661012c575f838152602081815260408083206001600160a01b03861684529091529020805460ff191660011790556100e43390565b6001600160a01b0316826001600160a01b0316847f2f8788117e7eff1d82e926ec794901d17c78024a50270940304540a733656f0d60405160405180910390a450600161012f565b505f5b92915050565b6001600160a01b0381168114610149575f80fd5b50565b5f805f806080858703121561015f575f80fd5b845161016a81610135565b602086015190945061017b81610135565b60408601519093506001600160401b0381168114610197575f80fd5b6060959095015193969295505050565b60805160a0516108766101d65f395f81816101b801526104d001525f8181610121015261039701526108765ff3fe608060405234801561000f575f80fd5b50600436106100f0575f3560e01c8063576f35e31161009357806391d148541161006357806391d1485414610275578063a217fddf146102ab578063d547741f146102b2578063f4daaba1146102c5575f80fd5b8063576f35e3146102065780636ba18f92146102195780636e04ff0d1461022d57806375b238fc1461024e575f80fd5b80632f2ff15d116100ce5780632f2ff15d1461018b57806336568abe146101a05780633fb19a53146101b35780634585e33b146101f3575f80fd5b806301ffc9a7146100f457806316f0115b1461011c578063248a9ca31461015b575b5f80fd5b6101076101023660046106ea565b6102ce565b60405190151581526020015b60405180910390f35b6101437f000000000000000000000000000000000000000000000000000000000000000081565b6040516001600160a01b039091168152602001610113565b61017d610169366004610718565b5f9081526020819052604090206001015490565b604051908152602001610113565b61019e61019936600461072f565b610304565b005b61019e6101ae36600461072f565b61032e565b6101da7f000000000000000000000000000000000000000000000000000000000000000081565b60405167ffffffffffffffff9091168152602001610113565b61019e610201366004610768565b610366565b61019e610214366004610718565b610455565b6002546101da9067ffffffffffffffff1681565b61024061023b366004610768565b6104c2565b6040516101139291906107d6565b61017d7fa49807205ce4d355092ef5a8a18f56e8913cf4a201fbe287825b095693c2177581565b61010761028336600461072f565b5f918252602082815260408084206001600160a01b0393909316845291905290205460ff1690565b61017d5f81565b61019e6102c036600461072f565b61053b565b61017d60015481565b5f6001600160e01b03198216637965db0b60e01b14806102fe57506301ffc9a760e01b6001600160e01b03198316145b92915050565b5f8281526020819052604090206001015461031e8161055f565b610328838361056c565b50505050565b6001600160a01b03811633146103575760405163334bd91960e11b815260040160405180910390fd5b6103618282610613565b505050565b5f61037382840184610718565b9050805f0361038157506001545b6040516391c05b0b60e01b8152600481018290527f00000000000000000000000000000000000000000000000000000000000000006001600160a01b0316906391c05b0b906024015f604051808303815f87803b1580156103e0575f80fd5b505af11580156103f2573d5f803e3d5ffd5b50506002805467ffffffffffffffff19164267ffffffffffffffff1690811790915560408051918252602082018590527f6a6eb291a51085668112d526777258331657af040ef73945d4825bf712f5e498935001905060405180910390a1505050565b7fa49807205ce4d355092ef5a8a18f56e8913cf4a201fbe287825b095693c2177561047f8161055f565b5f82116104bc5760405162461bcd60e51b8152602060048201526006602482015265073697a653d360d41b60448201526064015b60405180910390fd5b50600155565b6002545f906060906104ff907f00000000000000000000000000000000000000000000000000000000000000009067ffffffffffffffff16610814565b67ffffffffffffffff16421015915060015460405160200161052391815260200190565b60405160208183030381529060405290509250929050565b5f828152602081905260409020600101546105558161055f565b6103288383610613565b6105698133610694565b50565b5f828152602081815260408083206001600160a01b038516845290915281205460ff1661060c575f838152602081815260408083206001600160a01b03861684529091529020805460ff191660011790556105c43390565b6001600160a01b0316826001600160a01b0316847f2f8788117e7eff1d82e926ec794901d17c78024a50270940304540a733656f0d60405160405180910390a45060016102fe565b505f6102fe565b5f828152602081815260408083206001600160a01b038516845290915281205460ff161561060c575f838152602081815260408083206001600160a01b0386168085529252808320805460ff1916905551339286917ff6391f5c32d9c69d2a47ea670b442974b53935d1edc7fd64eb21e047a839171b9190a45060016102fe565b5f828152602081815260408083206001600160a01b038516845290915290205460ff166106e65760405163e2517d3f60e01b81526001600160a01b0382166004820152602481018390526044016104b3565b5050565b5f602082840312156106fa575f80fd5b81356001600160e01b031981168114610711575f80fd5b9392505050565b5f60208284031215610728575f80fd5b5035919050565b5f8060408385031215610740575f80fd5b8235915060208301356001600160a01b038116811461075d575f80fd5b809150509250929050565b5f8060208385031215610779575f80fd5b823567ffffffffffffffff81111561078f575f80fd5b8301601f8101851361079f575f80fd5b803567ffffffffffffffff8111156107b5575f80fd5b8560208284010111156107c6575f80fd5b6020919091019590945092505050565b8215158152604060208201525f82518060408401528060208501606085015e5f606082850101526060601f19601f8301168401019150509392505050565b67ffffffffffffffff81811683821601908111156102fe57634e487b7160e01b5f52601160045260245ffdfea26469706673582212206ce5e1d6e91424031b29b31ca570ca9f2c05bf25300a6bcb15d7d6a3b35f1e6a64736f6c634300081a0033",
  "linkReferences": {},
  "deployedLinkReferences": {}
}