{
  "_format": "hh-sol-artifact-1",
  "contractName": "GovernanceToken",
  "sourceName": "contracts/GovernanceToken.sol",
  "abi": [
    {
      "inputs": [
        {
          "internalType": "address",
          "name": "admin",
          "type": "address"
        }
      ],
      "stateMutability": "nonpayable",
      "type": "constructor"
    },
    {
      "inputs": [],
      "name": "AccessControlBadConfirmation",
      "type": "error"
    },
    {
      "inputs": [
        {
          "internalType": "address",
          "name": "account",
          "type": "address"
        },
        {
          "internalType": "bytes32",
          "name": "neededRole",
          "type": "bytes32"
        }
      ],
      "name": "AccessControlUnauthorizedAccount",
      "type": "error"
    },
    {
      "inputs": [],
      "name": "CheckpointUnorderedInsertion",
      "type": "error"
    },
    {
      "inputs": [],
      "name": "ECDSAInvalidSignature",
      "type": "error"
    },
    {
      "inputs": [
        {
          "internalType": "uint256",
          "name": "length",
          "type": "uint256"
        }
      ],
      "name": "ECDSAInvalidSignatureLength",
      "type": "error"
    },
    {
      "inputs": [
        {
          "internalType": "bytes32",
          "name": "s",
          "type": "bytes32"
        }
      ],
      "name": "ECDSAInvalidSignatureS",
      "type": "error"
    },
    {
      "inputs": [
        {
          "internalType": "uint256",
          "name": "increasedSupply",
          "type": "uint256"
        },
        {
          "internalType": "uint256",
          "name": "cap",
          "type": "uint256"
        }
      ],
      "name": "ERC20ExceededSafeSupply",
      "type": "error"
    },
    {
      "inputs": [
        {
          "internalType": "address",
          "name": "spender",
          "type": "address"
        },
        {
          "internalType": "uint256",
          "name": "allowance",
          "type": "uint256"
        },
        {
          "internalType": "uint256",
          "name": "needed",
          "type": "uint256"
        }
      ],
      "name": "ERC20InsufficientAllowance",
      "type": "error"
    },
    {
      "inputs": [
        {
          "internalType": "address",
          "name": "sender",
          "type": "address"
        },
        {
          "internalType": "uint256",
          "name": "balance",
          "type": "uint256"
        },
        {
          "internalType": "uint256",
          "name": "needed",
          "type": "uint256"
        }
      ],
      "name": "ERC20InsufficientBalance",
      "type": "error"
    },
    {
      "inputs": [
        {
          "internalType": "address",
          "name": "approver",
          "type": "address"
        }
      ],
      "name": "ERC20InvalidApprover",
      "type": "error"
    },
    {
      "inputs": [
        {
          "internalType": "address",
          "name": "receiver",
          "type": "address"
        }
      ],
      "name": "ERC20InvalidReceiver",
      "type": "error"
    },
    {
      "inputs": [
        {
          "internalType": "address",
          "name": "sender",
          "type": "address"
        }
      ],
      "name": "ERC20InvalidSender",
      "type": "error"
    },
    {
      "inputs": [
        {
          "internalType": "address",
          "name": "spender",
          "type": "address"
        }
      ],
      "name": "ERC20InvalidSpender",
      "type": "error"
    },
    {
      "inputs": [
        {
          "internalType": "uint256",
          "name": "deadline",
          "type": "uint256"
        }
      ],
      "name": "ERC2612ExpiredSignature",
      "type": "error"
    },
    {
      "inputs": [
        {
          "internalType": "address",
          "name": "signer",
          "type": "address"
        },
        {
          "internalType": "address",
          "name": "owner",
          "type": "address"
        }
      ],
      "name": "ERC2612InvalidSigner",
      "type": "error"
    },
    {
      "inputs": [
        {
          "internalType": "uint256",
          "name": "timepoint",
          "type": "uint256"
        },
        {
          "internalType": "uint48",
          "name": "clock",
          "type": "uint48"
        }
      ],
      "name": "ERC5805FutureLookup",
      "type": "error"
    },
    {
      "inputs": [],
      "name": "ERC6372InconsistentClock",
      "type": "error"
    },
    {
      "inputs": [
        {
          "internalType": "address",
          "name": "account",
          "type": "address"
        },
        {
          "internalType": "uint256",
          "name": "currentNonce",
          "type": "uint256"
        }
      ],
      "name": "InvalidAccountNonce",
      "type": "error"
    },
    {
      "inputs": [],
      "name": "InvalidShortString",
      "type": "error"
    },
    {
      "inputs": [
        {
          "internalType": "uint8",
          "name": "bits",
          "type": "uint8"
        },
        {
          "internalType": "uint256",
          "name": "value",
          "type": "uint256"
        }
      ],
      "name": "SafeCastOverflowedUintDowncast",
      "type": "error"
    },
    {
      "inputs": [
        {
          "internalType": "string",
          "name": "str",
          "type": "string"
        }
      ],
      "name": "StringTooLong",
      "type": "error"
    },
    {
      "inputs": [
        {
          "internalType": "uint256",
          "name": "expiry",
          "type": "uint256"
        }
      ],
      "name": "VotesExpiredSignature",
      "type": "error"
    },
    {
      "anonymous": false,
      "inputs": [
        {
          "indexed": true,
          "internalType": "address",
          "name": "owner",
          "type": "address"
        },
        {
          "indexed": true,
          "internalType": "address",
          "name": "spender",
          "type": "address"
        },
        {
          "indexed": false,
          "internalType": "uint256",
          "name": "value",
          "type": "uint256"
        }
      ],
      "name": "Approval",
      "type": "event"
    },
    {
      "anonymous": false,
      "inputs": [
        {
          "indexed": true,
          "internalType": "address",
          "name": "delegator",
          "type": "address"
        },
        {
          "indexed": true,
          "internalType": "address",
          "name": "fromDelegate",
          "type": "address"
        },
        {
          "indexed": true,
          "internalType": "address",
          "name": "toDelegate",
          "type": "address"
        }
      ],
      "name": "DelegateChanged",
      "type": "event"
    },
    {
      "anonymous": false,
      "inputs": [
        {
          "indexed": true,
          "internalType": "address",
          "name": "delegate",
          "type": "address"
        },
        {
          "indexed": false,
          "internalType": "uint256",
          "name": "previousVotes",
          "type": "uint256"
        },
        {
          "indexed": false,
          "internalType": "uint256",
          "name": "newVotes",
          "type": "uint256"
        }
      ],
      "name": "DelegateVotesChanged",
      "type": "event"
    },
    {
      "anonymous": false,
      "inputs": [],
      "name": "EIP712DomainChanged",
      "type": "event"
    },
    {
      "anonymous": false,
      "inputs": [
        {
          "indexed": true,
          "internalType": "bytes32",
          "name": "role",
          "type": "bytes32"
        },
        {
          "indexed": true,
          "internalType": "bytes32",
          "name": "previousAdminRole",
          "type": "bytes32"
        },
        {
          "indexed": true,
          "internalType": "bytes32",
          "name": "newAdminRole",
          "type": "bytes32"
        }
      ],
      "name": "RoleAdminChanged",
      "type": "event"
    },
    {
      "anonymous": false,
      "inputs": [
        {
          "indexed": true,
          "internalType": "bytes32",
          "name": "role",
          "type": "bytes32"
        },
        {
          "indexed": true,
          "internalType": "address",
          "name": "account",
          "type": "address"
        },
        {
          "indexed": true,
          "internalType": "address",
          "name": "sender",
          "type": "address"
        }
      ],
      "name": "RoleGranted",
      "type": "event"
    },
    {
      "anonymous": false,
      "inputs": [
        {
          "indexed": true,
          "internalType": "bytes32",
          "name": "role",
          "type": "bytes32"
        },
        {
          "indexed": true,
          "internalType": "address",
          "name": "account",
          "type": "address"
        },
        {
          "indexed": true,
          "internalType": "address",
          "name": "sender",
          "type": "address"
        }
      ],
      "name": "RoleRevoked",
      "type": "event"
    },
    {
      "anonymous": false,
      "inputs": [
        {
          "indexed": true,
          "internalType": "address",
          "name": "from",
          "type": "address"
        },
        {
          "indexed": true,
          "internalType": "address",
          "name": "to",
          "type": "address"
        },
        {
          "indexed": false,
          "internalType": "uint256",
          "name": "value",
          "type": "uint256"
        }
      ],
      "name": "Transfer",
      "type": "event"
    },
    {
      "inputs": [],
      "name": "CLOCK_MODE",
      "outputs": [
        {
          "internalType": "string",
          "name": "",
          "type": "string"
        }
      ],
      "stateMutability": "view",
      "type": "function"
    },
    {
      "inputs": [],
      "name": "DEFAULT_ADMIN_ROLE",
      "outputs": [
        {
          "internalType": "bytes32",
          "name": "",
          "type": "bytes32"
        }
      ],
      "stateMutability": "view",
      "type": "function"
    },
    {
      "inputs": [],
      "name": "DOMAIN_SEPARATOR",
      "outputs": [
        {
          "internalType": "bytes32",
          "name": "",
          "type": "bytes32"
        }
      ],
      "stateMutability": "view",
      "type": "function"
    },
    {
      "inputs": [],
      "name": "MINTER_ROLE",
      "outputs": [
        {
          "internalType": "bytes32",
          "name": "",
          "type": "bytes32"
        }
      ],
      "stateMutability": "view",
      "type": "function"
    },
    {
      "inputs": [
        {
          "internalType": "address",
          "name": "owner",
          "type": "address"
        },
        {
          "internalType": "address",
          "name": "spender",
          "type": "address"
        }
      ],
      "name": "allowance",
      "outputs": [
        {
          "internalType": "uint256",
          "name": "",
          "type": "uint256"
        }
      ],
      "stateMutability": "view",
      "type": "function"
    },
    {
      "inputs": [
        {
          "internalType": "address",
          "name": "spender",
          "type": "address"
        },
        {
          "internalType": "uint256",
          "name": "value",
          "type": "uint256"
        }
      ],
      "name": "approve",
      "outputs": [
        {
          "internalType": "bool",
          "name": "",
          "type": "bool"
        }
      ],
      "stateMutability": "nonpayable",
      "type": "function"
    },
    {
      "inputs": [
        {
          "internalType": "address",
          "name": "account",
          "type": "address"
        }
      ],
      "name": "balanceOf",
      "outputs": [
        {
          "internalType": "uint256",
          "name": "",
          "type": "uint256"
        }
      ],
      "stateMutability": "view",
      "type": "function"
    },
    {
      "inputs": [
        {
          "internalType": "address",
          "name": "account",
          "type": "address"
        },
        {
          "internalType": "uint32",
          "name": "pos",
          "type": "uint32"
        }
      ],
      "name": "checkpoints",
      "outputs": [
        {
          "components": [
            {
              "internalType": "uint48",
              "name": "_key",
              "type": "uint48"
            },
            {
              "internalType": "uint208",
              "name": "_value",
              "type": "uint208"
            }
          ],
          "internalType": "struct Checkpoints.Checkpoint208",
          "name": "",
          "type": "tuple"
        }
      ],
      "stateMutability": "view",
      "type": "function"
    },
    {
      "inputs": [],
      "name": "clock",
      "outputs": [
        {
          "internalType": "uint48",
          "name": "",
          "type": "uint48"
        }
      ],
      "stateMutability": "view",
      "type": "function"
    },
    {
      "inputs": [],
      "name": "decimals",
      "outputs": [
        {
          "internalType": "uint8",
          "name": "",
          "type": "uint8"
        }
      ],
      "stateMutability": "view",
      "type": "function"
    },
    {
      "inputs": [
        {
          "internalType": "address",
          "name": "delegatee",
          "type": "address"
        }
      ],
      "name": "delegate",
      "outputs": [],
      "stateMutability": "nonpayable",
      "type": "function"
    },
    {
      "inputs": [
        {
          "internalType": "address",
          "name": "delegatee",
          "type": "address"
        },
        {
          "internalType": "uint256",
          "name": "nonce",
          "type": "uint256"
        },
        {
          "internalType": "uint256",
          "name": "expiry",
          "type": "uint256"
        },
        {
          "internalType": "uint8",
          "name": "v",
          "type": "uint8"
        },
        {
          "internalType": "bytes32",
          "name": "r",
          "type": "bytes32"
        },
        {
          "internalType": "bytes32",
          "name": "s",
          "type": "bytes32"
        }
      ],
      "name": "delegateBySig",
      "outputs": [],
      "stateMutability": "nonpayable",
      "type": "function"
    },
    {
      "inputs": [
        {
          "internalType": "address",
          "name": "account",
          "type": "address"
        }
      ],
      "name": "delegates",
      "outputs": [
        {
          "internalType": "address",
          "name": "",
          "type": "address"
        }
      ],
      "stateMutability": "view",
      "type": "function"
    },
    {
      "inputs": [],
      "name": "eip712Domain",
      "outputs": [
        {
          "internalType": "bytes1",
          "name": "fields",
          "type": "bytes1"
        },
        {
          "internalType": "string",
          "name": "name",
          "type": "string"
        },
        {
          "internalType": "string",
          "name": "version",
          "type": "string"
        },
        {
          "internalType": "uint256",
          "name": "chainId",
          "type": "uint256"
        },
        {
          "internalType": "address",
          "name": "verifyingContract",
          "type": "address"
        },
        {
          "internalType": "bytes32",
          "name": "salt",
          "type": "bytes32"
        },
        {
          "internalType": "uint256[]",
          "name": "extensions",
          "type": "uint256[]"
        }
      ],
      "stateMutability": "view",
      "type": "function"
    },
    {
      "inputs": [
        {
          "internalType": "uint256",
          "name": "timepoint",
          "type": "uint256"
        }
      ],
      "name": "getPastTotalSupply",
      "outputs": [
        {
          "internalType": "uint256",
          "name": "",
          "type": "uint256"
        }
      ],
      "stateMutability": "view",
      "type": "function"
    },
    {
      "inputs": [
        {
          "internalType": "address",
          "name": "account",
          "type": "address"
        },
        {
          "internalType": "uint256",
          "name": "timepoint",
          "type": "uint256"
        }
      ],
      "name": "getPastVotes",
      "outputs": [
        {
          "internalType": "uint256",
          "name": "",
          "type": "uint256"
        }
      ],
      "stateMutability": "view",
      "type": "function"
    },
    {
      "inputs": [
        {
          "internalType": "bytes32",
          "name": "role",
          "type": "bytes32"
        }
      ],
      "name": "getRoleAdmin",
      "outputs": [
        {
          "internalType": "bytes32",
          "name": "",
          "type": "bytes32"
        }
      ],
      "stateMutability": "view",
      "type": "function"
    },
    {
      "inputs": [
        {
          "internalType": "address",
          "name": "account",
          "type": "address"
        }
      ],
      "name": "getVotes",
      "outputs": [
        {
          "internalType": "uint256",
          "name": "",
          "type": "uint256"
        }
      ],
      "stateMutability": "view",
      "type": "function"
    },
    {
      "inputs": [
        {
          "internalType": "bytes32",
          "name": "role",
          "type": "bytes32"
        },
        {
          "internalType": "address",
          "name": "account",
          "type": "address"
        }
      ],
      "name": "grantRole",
      "outputs": [],
      "stateMutability": "nonpayable",
      "type": "function"
    },
    {
      "inputs": [
        {
          "internalType": "bytes32",
          "name": "role",
          "type": "bytes32"
        },
        {
          "internalType": "address",
          "name": "account",
          "type": "address"
        }
      ],
      "name": "hasRole",
      "outputs": [
        {
          "internalType": "bool",
          "name": "",
          "type": "bool"
        }
      ],
      "stateMutability": "view",
      "type": "function"
    },
    {
      "inputs": [
        {
          "internalType": "address",
          "name": "to",
          "type": "address"
        },
        {
          "internalType": "uint256",
          "name": "amount",
          "type": "uint256"
        }
      ],
      "name": "mint",
      "outputs": [],
      "stateMutability": "nonpayable",
      "type": "function"
    },
    {
      "inputs": [],
      "name": "name",
      "outputs": [
        {
          "internalType": "string",
          "name": "",
          "type": "string"
        }
      ],
      "stateMutability": "view",
      "type": "function"
    },
    {
      "inputs": [
        {
          "internalType": "address",
          "name": "owner",
          "type": "address"
        }
      ],
      "name": "nonces",
      "outputs": [
        {
          "internalType": "uint256",
          "name": "",
          "type": "uint256"
        }
      ],
      "stateMutability": "view",
      "type": "function"
    },
    {
      "inputs": [
        {
          "internalType": "address",
          "name": "account",
          "type": "address"
        }
      ],
      "name": "numCheckpoints",
      "outputs": [
        {
          "internalType": "uint32",
          "name": "",
          "type": "uint32"
        }
      ],
      "stateMutability": "view",
      "type": "function"
    },
    {
      "inputs": [
        {
          "internalType": "address",
          "name": "owner",
          "type": "address"
        },
        {
          "internalType": "address",
          "name": "spender",
          "type": "address"
        },
        {
          "internalType": "uint256",
          "name": "value",
          "type": "uint256"
        },
        {
          "internalType": "uint256",
          "name": "deadline",
          "type": "uint256"
        },
        {
          "internalType": "uint8",
          "name": "v",
          "type": "uint8"
        },
        {
          "internalType": "bytes32",
          "name": "r",
          "type": "bytes32"
        },
        {
          "internalType": "bytes32",
          "name": "s",
          "type": "bytes32"
        }
      ],
      "name": "permit",
      "outputs": [],
      "stateMutability": "nonpayable",
      "type": "function"
    },
    {
      "inputs": [
        {
          "internalType": "bytes32",
          "name": "role",
          "type": "bytes32"
        },
        {
          "internalType": "address",
          "name": "callerConfirmation",
          "type": "address"
        }
      ],
      "name": "renounceRole",
      "outputs": [],
      "stateMutability": "nonpayable",
      "type": "function"
    },
    {
      "inputs": [
        {
          "internalType": "bytes32",
          "name": "role",
          "type": "bytes32"
        },
        {
          "internalType": "address",
          "name": "account",
          "type": "address"
        }
      ],
      "name": "revokeRole",
      "outputs": [],
      "stateMutability": "nonpayable",
      "type": "function"
    },
    {
      "inputs": [
        {
          "internalType": "bytes4",
          "name": "interfaceId",
          "type": "bytes4"
        }
      ],
      "name": "supportsInterface",
      "outputs": [
        {
          "internalType": "bool",
          "name": "",
          "type": "bool"
        }
      ],
      "stateMutability": "view",
      "type": "function"
    },
    {
      "inputs": [],
      "name": "symbol",
      "outputs": [
        {
          "internalType": "string",
          "name": "",
          "type": "string"
        }
      ],
      "stateMutability": "view",
      "type": "function"
    },
    {
      "inputs": [],
      "name": "totalSupply",
      "outputs": [
        {
          "internalType": "uint256",
          "name": "",
          "type": "uint256"
        }
      ],
      "stateMutability": "view",
      "type": "function"
    },
    {
      "inputs": [
        {
          "internalType": "address",
          "name": "to",
          "type": "address"
        },
        {
          "internalType": "uint256",
          "name": "value",
          "type": "uint256"
        }
      ],
      "name": "transfer",
      "outputs": [
        {
          "internalType": "bool",
          "name": "",
          "type": "bool"
        }
      ],
      "stateMutability": "nonpayable",
      "type": "function"
    },
    {
      "inputs": [
        {
          "internalType": "address",
          "name": "from",
          "type": "address"
        },
        {
          "internalType": "address",
          "name": "to",
          "type": "address"
        },
        {
          "internalType": "uint256",
          "name": "value",
          "type": "uint256"
        }
      ],
      "name": "transferFrom",
      "outputs": [
        {
          "internalType": "bool",
          "name": "",
          "type": "bool"
        }
      ],
      "stateMutability": "nonpayable",
      "type": "function"
    }
  ],
  "bytecode": "0x610160604052348015610010575f80fd5b5060405161268b38038061268b83398101604081905261002f91610302565b6040518060400160405280601881526020017f457175616c697320476f7665726e616e636520546f6b656e000000000000000081525080604051806040016040528060018152602001603160f81b8152506040518060400160405280601881526020017f457175616c697320476f7665726e616e636520546f6b656e00000000000000008152506040518060400160405280600381526020016211545560ea1b81525081600390816100e191906103c7565b5060046100ee82826103c7565b506100fe915083905060056101df565b6101205261010d8160066101df565b61014052815160208084019190912060e052815190820120610100524660a05261019960e05161010051604080517f8b73c3c69bb8fe3d512ecc4cf759cc79239f7b179b0ffacaa9a75d522b39400f60208201529081019290925260608201524660808201523060a08201525f9060c00160405160208183030381529060405280519060200120905090565b60805250503060c052506101ad5f82610211565b506101d87f9f2df0fed2c77648de5860a4cc508cd0818c85b8b8a1ab4ceeef8d981c8956a682610211565b50506104d9565b5f6020835110156101fa576101f3836102bc565b905061020b565b8161020584826103c7565b5060ff90505b92915050565b5f828152600b602090815260408083206001600160a01b038516845290915281205460ff166102b5575f838152600b602090815260408083206001600160a01b03861684529091529020805460ff1916600117905561026d3390565b6001600160a01b0316826001600160a01b0316847f2f8788117e7eff1d82e926ec794901d17c78024a50270940304540a733656f0d60405160405180910390a450600161020b565b505f61020b565b5f80829050601f815111156102ef578260405163305a27a960e01b81526004016102e69190610481565b60405180910390fd5b80516102fa826104b6565b179392505050565b5f60208284031215610312575f80fd5b81516001600160a01b0381168114610328575f80fd5b9392505050565b634e487b7160e01b5f52604160045260245ffd5b600181811c9082168061035757607f821691505b60208210810361037557634e487b7160e01b5f52602260045260245ffd5b50919050565b601f8211156103c257805f5260205f20601f840160051c810160208510156103a05750805b601f840160051c820191505b818110156103bf575f81556001016103ac565b50505b505050565b81516001600160401b038111156103e0576103e061032f565b6103f4816103ee8454610343565b8461037b565b6020601f821160018114610426575f831561040f5750848201515b5f19600385901b1c1916600184901b1784556103bf565b5f84815260208120601f198516915b828110156104555787850151825560209485019460019092019101610435565b508482101561047257868401515f19600387901b60f8161c191681555b50505050600190811b01905550565b602081525f82518060208401528060208501604085015e5f604082850101526040601f19601f83011684010191505092915050565b80516020808301519190811015610375575f1960209190910360031b1b16919050565b60805160a05160c05160e05161010051610120516101405161216161052a5f395f61100e01525f610fe101525f610d0d01525f610ce501525f610c4001525f610c6a01525f610c9401526121615ff3fe608060405234801561000f575f80fd5b50600436106101e7575f3560e01c806370a0823111610109578063a217fddf1161009e578063d53913931161006e578063d539139314610488578063d547741f146104af578063dd62ed3e146104c2578063f1127ed8146104fa575f80fd5b8063a217fddf14610448578063a9059cbb1461044f578063c3cda52014610462578063d505accf14610475575f80fd5b806391d14854116100d957806391d14854146103d657806391ddadf41461040e57806395d89b411461042d5780639ab24eb014610435575f80fd5b806370a082311461036d5780637ecebe001461039557806384b0196e146103a85780638e539e8c146103c3575f80fd5b80633644e5151161017f5780634bf5d7e91161014f5780634bf5d7e9146102e7578063587cde1e146102ef5780635c19a95c146103325780636fcfff4514610345575f80fd5b80633644e515146102a657806336568abe146102ae5780633a46b1a8146102c157806340c10f19146102d4575f80fd5b806323b872dd116101ba57806323b872dd1461024d578063248a9ca3146102605780632f2ff15d14610282578063313ce56714610297575f80fd5b806301ffc9a7146101eb57806306fdde0314610213578063095ea7b31461022857806318160ddd1461023b575b5f80fd5b6101fe6101f9366004611d1d565b610539565b60405190151581526020015b60405180910390f35b61021b61056f565b60405161020a9190611d72565b6101fe610236366004611d9f565b6105ff565b6002545b60405190815260200161020a565b6101fe61025b366004611dc7565b610616565b61023f61026e366004611e01565b5f908152600b602052604090206001015490565b610295610290366004611e18565b610639565b005b6040516012815260200161020a565b61023f610663565b6102956102bc366004611e18565b610671565b61023f6102cf366004611d9f565b6106a9565b6102956102e2366004611d9f565b6106e3565b61021b610717565b61031a6102fd366004611e42565b6001600160a01b039081165f908152600860205260409020541690565b6040516001600160a01b03909116815260200161020a565b610295610340366004611e42565b61078f565b610358610353366004611e42565b61079e565b60405163ffffffff909116815260200161020a565b61023f61037b366004611e42565b6001600160a01b03165f9081526020819052604090205490565b61023f6103a3366004611e42565b6107a8565b6103b06107b2565b60405161020a9796959493929190611e5b565b61023f6103d1366004611e01565b6107f4565b6101fe6103e4366004611e18565b5f918252600b602090815260408084206001600160a01b0393909316845291905290205460ff1690565b610416610818565b60405165ffffffffffff909116815260200161020a565b61021b610821565b61023f610443366004611e42565b610830565b61023f5f81565b6101fe61045d366004611d9f565b610850565b610295610470366004611f01565b61085d565b610295610483366004611f55565b61091e565b61023f7f9f2df0fed2c77648de5860a4cc508cd0818c85b8b8a1ab4ceeef8d981c8956a681565b6102956104bd366004611e18565b610a54565b61023f6104d0366004611fbb565b6001600160a01b039182165f90815260016020908152604080832093909416825291909152205490565b61050d610508366004611fe3565b610a78565b60408051825165ffffffffffff1681526020928301516001600160d01b0316928101929092520161020a565b5f6001600160e01b03198216637965db0b60e01b148061056957506301ffc9a760e01b6001600160e01b03198316145b92915050565b60606003805461057e90612020565b80601f01602080910402602001604051908101604052809291908181526020018280546105aa90612020565b80156105f55780601f106105cc576101008083540402835291602001916105f5565b820191905f5260205f20905b8154815290600101906020018083116105d857829003601f168201915b5050505050905090565b5f3361060c818585610a9c565b5060019392505050565b5f33610623858285610aa9565b61062e858585610b1f565b506001949350505050565b5f828152600b602052604090206001015461065381610b7c565b61065d8383610b89565b50505050565b5f61066c610c34565b905090565b6001600160a01b038116331461069a5760405163334bd91960e11b815260040160405180910390fd5b6106a48282610d5d565b505050565b5f6106d36106b683610de2565b6001600160a01b0385165f90815260096020526040902090610e30565b6001600160d01b03169392505050565b7f9f2df0fed2c77648de5860a4cc508cd0818c85b8b8a1ab4ceeef8d981c8956a661070d81610b7c565b6106a48383610ee0565b6060610721610f14565b65ffffffffffff16610731610818565b65ffffffffffff1614610757576040516301bfc1c560e61b815260040160405180910390fd5b5060408051808201909152601d81527f6d6f64653d626c6f636b6e756d6265722666726f6d3d64656661756c74000000602082015290565b3361079a8183610f1e565b5050565b5f61056982610f9c565b5f61056982610fbd565b5f6060805f805f60606107c3610fda565b6107cb611007565b604080515f80825260208201909252600f60f81b9b939a50919850469750309650945092509050565b5f61080961080183610de2565b600a90610e30565b6001600160d01b031692915050565b5f61066c610f14565b60606004805461057e90612020565b6001600160a01b0381165f90815260096020526040812061080990611034565b5f3361060c818585610b1f565b8342111561088657604051632341d78760e11b8152600481018590526024015b60405180910390fd5b604080517fe48329057bfd03d55e49b547132e39cffd9c1820ad7b9d4c5307691425d15adf60208201526001600160a01b0388169181019190915260608101869052608081018590525f906108ff906108f79060a0016040516020818303038152906040528051906020012061106b565b858585611097565b905061090b81876110c3565b6109158188610f1e565b50505050505050565b834211156109425760405163313c898160e11b81526004810185905260240161087d565b5f7f6e71edae12b1b97f4d1f60370fef10105fa2faae0126114a169c64845d6126c988888861098d8c6001600160a01b03165f90815260076020526040902080546001810190915590565b6040805160208101969096526001600160a01b0394851690860152929091166060840152608083015260a082015260c0810186905260e0016040516020818303038152906040528051906020012090505f6109e78261106b565b90505f6109f682878787611097565b9050896001600160a01b0316816001600160a01b031614610a3d576040516325c0072360e11b81526001600160a01b0380831660048301528b16602482015260440161087d565b610a488a8a8a610a9c565b50505050505050505050565b5f828152600b6020526040902060010154610a6e81610b7c565b61065d8383610d5d565b604080518082019091525f8082526020820152610a958383611115565b9392505050565b6106a48383836001611149565b6001600160a01b038381165f908152600160209081526040808320938616835292905220545f1981101561065d5781811015610b1157604051637dc7a0d960e11b81526001600160a01b0384166004820152602481018290526044810183905260640161087d565b61065d84848484035f611149565b6001600160a01b038316610b4857604051634b637e8f60e11b81525f600482015260240161087d565b6001600160a01b038216610b715760405163ec442f0560e01b81525f600482015260240161087d565b6106a483838361121b565b610b868133611226565b50565b5f828152600b602090815260408083206001600160a01b038516845290915281205460ff16610c2d575f838152600b602090815260408083206001600160a01b03861684529091529020805460ff19166001179055610be53390565b6001600160a01b0316826001600160a01b0316847f2f8788117e7eff1d82e926ec794901d17c78024a50270940304540a733656f0d60405160405180910390a4506001610569565b505f610569565b5f306001600160a01b037f000000000000000000000000000000000000000000000000000000000000000016148015610c8c57507f000000000000000000000000000000000000000000000000000000000000000046145b15610cb657507f000000000000000000000000000000000000000000000000000000000000000090565b61066c604080517f8b73c3c69bb8fe3d512ecc4cf759cc79239f7b179b0ffacaa9a75d522b39400f60208201527f0000000000000000000000000000000000000000000000000000000000000000918101919091527f000000000000000000000000000000000000000000000000000000000000000060608201524660808201523060a08201525f9060c00160405160208183030381529060405280519060200120905090565b5f828152600b602090815260408083206001600160a01b038516845290915281205460ff1615610c2d575f838152600b602090815260408083206001600160a01b0386168085529252808320805460ff1916905551339286917ff6391f5c32d9c69d2a47ea670b442974b53935d1edc7fd64eb21e047a839171b9190a4506001610569565b5f80610dec610818565b90508065ffffffffffff168310610e2757604051637669fc0f60e11b81526004810184905265ffffffffffff8216602482015260440161087d565b610a958361127a565b81545f9081816005811115610e8c575f610e49846112b0565b610e53908561206c565b5f8881526020902090915081015465ffffffffffff9081169087161015610e7c57809150610e8a565b610e8781600161207f565b92505b505b5f610e9987878585611415565b90508015610ed357610ebd87610eb060018461206c565b5f91825260209091200190565b54600160301b90046001600160d01b0316610ed5565b5f5b979650505050505050565b6001600160a01b038216610f095760405163ec442f0560e01b81525f600482015260240161087d565b61079a5f838361121b565b5f61066c4361127a565b6001600160a01b038281165f81815260086020526040808220805486861673ffffffffffffffffffffffffffffffffffffffff19821681179092559151919094169392849290917f3134e8a2e6d97e929a7e54011ea5485d7d196dd5f0ba4d4ef95803e8e3fc257f9190a46106a48183610f9786611474565b611491565b6001600160a01b0381165f90815260096020526040812054610569906115fa565b6001600160a01b0381165f90815260076020526040812054610569565b606061066c7f0000000000000000000000000000000000000000000000000000000000000000600561162a565b606061066c7f0000000000000000000000000000000000000000000000000000000000000000600661162a565b80545f9080156110635761104d83610eb060018461206c565b54600160301b90046001600160d01b0316610a95565b5f9392505050565b5f610569611077610c34565b8360405161190160f01b8152600281019290925260228201526042902090565b5f805f806110a7888888886116d3565b9250925092506110b7828261179b565b50909695505050505050565b6001600160a01b0382165f9081526007602052604090208054600181019091558181146106a4576040516301d4b62360e61b81526001600160a01b03841660048201526024810182905260440161087d565b604080518082019091525f80825260208201526001600160a01b0383165f908152600960205260409020610a959083611853565b6001600160a01b0384166111725760405163e602df0560e01b81525f600482015260240161087d565b6001600160a01b03831661119b57604051634a1406b160e11b81525f600482015260240161087d565b6001600160a01b038085165f908152600160209081526040808320938716835292905220829055801561065d57826001600160a01b0316846001600160a01b03167f8c5be1e5ebec7d5bd14f71427d1e84f3dd0314c0f7b2291e5b200ac8c7c3b9258460405161120d91815260200190565b60405180910390a350505050565b6106a48383836118c0565b5f828152600b602090815260408083206001600160a01b038516845290915290205460ff1661079a5760405163e2517d3f60e01b81526001600160a01b03821660048201526024810183905260440161087d565b5f65ffffffffffff8211156112ac576040516306dfcc6560e41b8152603060048201526024810183905260440161087d565b5090565b5f600182116112bd575090565b81600170010000000000000000000000000000000082106112e35760809190911c9060401b5b6801000000000000000082106112fe5760409190911c9060201b5b64010000000082106113155760209190911c9060101b5b62010000821061132a5760109190911c9060081b5b610100821061133e5760089190911c9060041b5b601082106113515760049190911c9060021b5b6004821061135d5760011b5b600302600190811c9081858161137557611375612092565b048201901c9050600181858161138d5761138d612092565b048201901c905060018185816113a5576113a5612092565b048201901c905060018185816113bd576113bd612092565b048201901c905060018185816113d5576113d5612092565b048201901c905060018185816113ed576113ed612092565b048201901c905061140c81858161140657611406612092565b04821190565b90039392505050565b5f5b8183101561146c575f61142a8484611926565b5f8781526020902090915065ffffffffffff86169082015465ffffffffffff16111561145857809250611466565b61146381600161207f565b93505b50611417565b509392505050565b6001600160a01b0381165f90815260208190526040812054610569565b816001600160a01b0316836001600160a01b0316141580156114b257505f81115b156106a4576001600160a01b03831615611559576001600160a01b0383165f90815260096020526040812081906114f4906119406114ef8661194b565b61197e565b6001600160d01b031691506001600160d01b03169150846001600160a01b03167fdec2bacdd2f05b59de34da9b523dff8be42e5e38e818c82fdb0bae774387a724838360405161154e929190918252602082015260400190565b60405180910390a250505b6001600160a01b038216156106a4576001600160a01b0382165f9081526009602052604081208190611591906119b66114ef8661194b565b6001600160d01b031691506001600160d01b03169150836001600160a01b03167fdec2bacdd2f05b59de34da9b523dff8be42e5e38e818c82fdb0bae774387a72483836040516115eb929190918252602082015260400190565b60405180910390a25050505050565b5f63ffffffff8211156112ac576040516306dfcc6560e41b8152602060048201526024810183905260440161087d565b606060ff83146116445761163d836119c1565b9050610569565b81805461165090612020565b80601f016020809104026020016040519081016040528092919081815260200182805461167c90612020565b80156116c75780601f1061169e576101008083540402835291602001916116c7565b820191905f5260205f20905b8154815290600101906020018083116116aa57829003601f168201915b50505050509050610569565b5f80807f7fffffffffffffffffffffffffffffff5d576e7357a4501ddfe92f46681b20a084111561170c57505f91506003905082611791565b604080515f808252602082018084528a905260ff891692820192909252606081018790526080810186905260019060a0016020604051602081039080840390855afa15801561175d573d5f803e3d5ffd5b5050604051601f1901519150506001600160a01b03811661178857505f925060019150829050611791565b92505f91508190505b9450945094915050565b5f8260038111156117ae576117ae6120a6565b036117b7575050565b60018260038111156117cb576117cb6120a6565b036117e95760405163f645eedf60e01b815260040160405180910390fd5b60028260038111156117fd576117fd6120a6565b0361181e5760405163fce698f760e01b81526004810182905260240161087d565b6003826003811115611832576118326120a6565b0361079a576040516335e2f38360e21b81526004810182905260240161087d565b604080518082019091525f8082526020820152825f018263ffffffff1681548110611880576118806120ba565b5f9182526020918290206040805180820190915291015465ffffffffffff81168252600160301b90046001600160d01b0316918101919091529392505050565b6118cb8383836119fe565b6001600160a01b03831661191b575f6118e360025490565b90506001600160d01b038082111561191857604051630e58ae9360e11b8152600481018390526024810182905260440161087d565b50505b6106a4838383611b24565b5f61193460028484186120ce565b610a959084841661207f565b5f610a9582846120ed565b5f6001600160d01b038211156112ac576040516306dfcc6560e41b815260d060048201526024810183905260440161087d565b5f806119a961198b610818565b6119a161199788611034565b868863ffffffff16565b879190611b99565b915091505b935093915050565b5f610a95828461210c565b60605f6119cd83611ba6565b6040805160208082528183019092529192505f91906020820181803683375050509182525060208101929092525090565b6001600160a01b038316611a28578060025f828254611a1d919061207f565b90915550611a989050565b6001600160a01b0383165f9081526020819052604090205481811015611a7a5760405163391434e360e21b81526001600160a01b0385166004820152602481018290526044810183905260640161087d565b6001600160a01b0384165f9081526020819052604090209082900390555b6001600160a01b038216611ab457600280548290039055611ad2565b6001600160a01b0382165f9081526020819052604090208054820190555b816001600160a01b0316836001600160a01b03167fddf252ad1be2c89b69c2b068fc378daa952ba7f163c4a11628f55a4df523b3ef83604051611b1791815260200190565b60405180910390a3505050565b6001600160a01b038316611b4657611b43600a6119b66114ef8461194b565b50505b6001600160a01b038216611b6857611b65600a6119406114ef8461194b565b50505b6001600160a01b038381165f908152600860205260408082205485841683529120546106a492918216911683611491565b5f806119a9858585611bcd565b5f60ff8216601f81111561056957604051632cd44ac360e21b815260040160405180910390fd5b82545f9081908015611cc3575f611be987610eb060018561206c565b805490915065ffffffffffff80821691600160301b90046001600160d01b0316908816821115611c2c57604051632520601d60e01b815260040160405180910390fd5b8765ffffffffffff168265ffffffffffff1603611c6557825465ffffffffffff16600160301b6001600160d01b03891602178355611cb5565b6040805180820190915265ffffffffffff808a1682526001600160d01b03808a1660208085019182528d54600181018f555f8f81529190912094519151909216600160301b029216919091179101555b94508593506119ae92505050565b50506040805180820190915265ffffffffffff80851682526001600160d01b0380851660208085019182528854600181018a555f8a815291822095519251909316600160301b0291909316179201919091559050816119ae565b5f60208284031215611d2d575f80fd5b81356001600160e01b031981168114610a95575f80fd5b5f81518084528060208401602086015e5f602082860101526020601f19601f83011685010191505092915050565b602081525f610a956020830184611d44565b80356001600160a01b0381168114611d9a575f80fd5b919050565b5f8060408385031215611db0575f80fd5b611db983611d84565b946020939093013593505050565b5f805f60608486031215611dd9575f80fd5b611de284611d84565b9250611df060208501611d84565b929592945050506040919091013590565b5f60208284031215611e11575f80fd5b5035919050565b5f8060408385031215611e29575f80fd5b82359150611e3960208401611d84565b90509250929050565b5f60208284031215611e52575f80fd5b610a9582611d84565b60ff60f81b8816815260e060208201525f611e7960e0830189611d44565b8281036040840152611e8b8189611d44565b606084018890526001600160a01b038716608085015260a0840186905283810360c0850152845180825260208087019350909101905f5b81811015611ee0578351835260209384019390920191600101611ec2565b50909b9a5050505050505050505050565b803560ff81168114611d9a575f80fd5b5f805f805f8060c08789031215611f16575f80fd5b611f1f87611d84565b95506020870135945060408701359350611f3b60608801611ef1565b9598949750929560808101359460a0909101359350915050565b5f805f805f805f60e0888a031215611f6b575f80fd5b611f7488611d84565b9650611f8260208901611d84565b95506040880135945060608801359350611f9e60808901611ef1565b9699959850939692959460a0840135945060c09093013592915050565b5f8060408385031215611fcc575f80fd5b611fd583611d84565b9150611e3960208401611d84565b5f8060408385031215611ff4575f80fd5b611ffd83611d84565b9150602083013563ffffffff81168114612015575f80fd5b809150509250929050565b600181811c9082168061203457607f821691505b60208210810361205257634e487b7160e01b5f52602260045260245ffd5b50919050565b634e487b7160e01b5f52601160045260245ffd5b8181038181111561056957610569612058565b8082018082111561056957610569612058565b634e487b7160e01b5f52601260045260245ffd5b634e487b7160e01b5f52602160045260245ffd5b634e487b7160e01b5f52603260045260245ffd5b5f826120e857634e487b7160e01b5f52601260045260245ffd5b500490565b6001600160d01b03828116828216039081111561056957610569612058565b6001600160d01b0381811683821601908111156105695761056961205856fea2646970667358221220231a040c1dfb3e49f27c76fbabb25000db3eb7e3511e863ae7e77f5d8c2f163e64736f6c634300081a0033",
  "linkReferences": {},
  "deployedLinkReferences": {}
}