{
  "_format": "hh-sol-artifact-1",
  "contractName": "RedistributivePayroll",
  "sourceName": "contracts/RedistributivePayroll.sol",
  "abi": [
    {
      "inputs": [
        {
          "internalType": "address",
          "name": "admin",
          "type": "address"
        },
        {
          "internalType": "contract IERC20",
          "name": "token_",
          "type": "address"
        },
        {
          "internalType": "contract EligibilityRegistry",
          "name": "registry_",
          "type": "address"
        },
        {
          "internalType": "contract CompensationLimiter",
          "name": "limiter_",
          "type": "address"
        },
        {
          "internalType": "contract RedistributionPool",
          "name": "pool_",
          "type": "address"
        }
      ],
      "stateMutability": "nonpayable",
      "type": "constructor"
    },
    {
      "inputs": [],
      "name": "AccessControlBadConfirmation",
      "type": "error"
    },
    {
      "inputs": [
        {
          "internalType": "address",
          "name": "account",
          "type": "address"
        },
        {
          "internalType": "bytes32",
          "name": "neededRole",
          "type": "bytes32"
        }
      ],
      "name": "AccessControlUnauthorizedAccount",
      "type": "error"
    },
    {
      "inputs": [],
      "name": "ReentrancyGuardReentrantCall",
      "type": "error"
    },
    {
      "anonymous": false,
      "inputs": [
        {
          "indexed": true,
          "internalType": "address",
          "name": "employer",
          "type": "address"
        },
        {
          "indexed": true,
          "internalType": "address",
          "name": "employee",
          "type": "address"
        },
        {
          "indexed": true,
          "internalType": "bytes32",
          "name": "identityId",
          "type": "bytes32"
        },
        {
          "indexed": false,
          "internalType": "uint256",
          "name": "paid",
          "type": "uint256"
        },
        {
          "indexed": false,
          "internalType": "uint256",
          "name": "overflow",
          "type": "uint256"
        }
      ],
      "name": "Paid",
      "type": "event"
    },
    {
      "anonymous": false,
      "inputs": [
        {
          "indexed": true,
          "internalType": "bytes32",
          "name": "role",
          "type": "bytes32"
        },
        {
          "indexed": true,
          "internalType": "bytes32",
          "name": "previousAdminRole",
          "type": "bytes32"
        },
        {
          "indexed": true,
          "internalType": "bytes32",
          "name": "newAdminRole",
          "type": "bytes32"
        }
      ],
      "name": "RoleAdminChanged",
      "type": "event"
    },
    {
      "anonymous": false,
      "inputs": [
        {
          "indexed": true,
          "internalType": "bytes32",
          "name": "role",
          "type": "bytes32"
        },
        {
          "indexed": true,
          "internalType": "address",
          "name": "account",
          "type": "address"
        },
        {
          "indexed": true,
          "internalType": "address",
          "name": "sender",
          "type": "address"
        }
      ],
      "name": "RoleGranted",
      "type": "event"
    },
    {
      "anonymous": false,
      "inputs": [
        {
          "indexed": true,
          "internalType": "bytes32",
          "name": "role",
          "type": "bytes32"
        },
        {
          "indexed": true,
          "internalType": "address",
          "name": "account",
          "type": "address"
        },
        {
          "indexed": true,
          "internalType": "address",
          "name": "sender",
          "type": "address"
        }
      ],
      "name": "RoleRevoked",
      "type": "event"
    },
    {
      "inputs": [],
      "name": "ADMIN_ROLE",
      "outputs": [
        {
          "internalType": "bytes32",
          "name": "",
          "type": "bytes32"
        }
      ],
      "stateMutability": "view",
      "type": "function"
    },
    {
      "inputs": [],
      "name": "DEFAULT_ADMIN_ROLE",
      "outputs": [
        {
          "internalType": "bytes32",
          "name": "",
          "type": "bytes32"
        }
      ],
      "stateMutability": "view",
      "type": "function"
    },
    {
      "inputs": [],
      "name": "EMPLOYER_ROLE",
      "outputs": [
        {
          "internalType": "bytes32",
          "name": "",
          "type": "bytes32"
        }
      ],
      "stateMutability": "view",
      "type": "function"
    },
    {
      "inputs": [
        {
          "internalType": "address",
          "name": "employee",
          "type": "address"
        },
        {
          "internalType": "uint256",
          "name": "amount",
          "type": "uint256"
        }
      ],
      "name": "fundAndPay",
      "outputs": [],
      "stateMutability": "nonpayable",
      "type": "function"
    },
    {
      "inputs": [
        {
          "internalType": "bytes32",
          "name": "role",
          "type": "bytes32"
        }
      ],
      "name": "getRoleAdmin",
      "outputs": [
        {
          "internalType": "bytes32",
          "name": "",
          "type": "bytes32"
        }
      ],
      "stateMutability": "view",
      "type": "function"
    },
    {
      "inputs": [
        {
          "internalType": "bytes32",
          "name": "role",
          "type": "bytes32"
        },
        {
          "internalType": "address",
          "name": "account",
          "type": "address"
        }
      ],
      "name": "grantRole",
      "outputs": [],
      "stateMutability": "nonpayable",
      "type": "function"
    },
    {
      "inputs": [
        {
          "internalType": "bytes32",
          "name": "role",
          "type": "bytes32"
        },
        {
          "internalType": "address",
          "name": "account",
          "type": "address"
        }
      ],
      "name": "hasRole",
      "outputs": [
        {
          "internalType": "bool",
          "name": "",
          "type": "bool"
        }
      ],
      "stateMutability": "view",
      "type": "function"
    },
    {
      "inputs": [],
      "name": "limiter",
      "outputs": [
        {
          "internalType": "contract CompensationLimiter",
          "name": "",
          "type": "address"
        }
      ],
      "stateMutability": "view",
      "type": "function"
    },
    {
      "inputs": [],
      "name": "pool",
      "outputs": [
        {
          "internalType": "contract RedistributionPool",
          "name": "",
          "type": "address"
        }
      ],
      "stateMutability": "view",
      "type": "function"
    },
    {
      "inputs": [],
      "name": "registry",
      "outputs": [
        {
          "internalType": "contract EligibilityRegistry",
          "name": "",
          "type": "address"
        }
      ],
      "stateMutability": "view",
      "type": "function"
    },
    {
      "inputs": [
        {
          "internalType": "bytes32",
          "name": "role",
          "type": "bytes32"
        },
        {
          "internalType": "address",
          "name": "callerConfirmation",
          "type": "address"
        }
      ],
      "name": "renounceRole",
      "outputs": [],
      "stateMutability": "nonpayable",
      "type": "function"
    },
    {
      "inputs": [
        {
          "internalType": "bytes32",
          "name": "role",
          "type": "bytes32"
        },
        {
          "internalType": "address",
          "name": "account",
          "type": "address"
        }
      ],
      "name": "revokeRole",
      "outputs": [],
      "stateMutability": "nonpayable",
      "type": "function"
    },
    {
      "inputs": [
        {
          "internalType": "address",
          "name": "employer",
          "type": "address"
        },
        {
          "internalType": "bool",
          "name": "isEmployer",
          "type": "bool"
        }
      ],
      "name": "setEmployer",
      "outputs": [],
      "stateMutability": "nonpayable",
      "type": "function"
    },
    {
      "inputs": [
        {
          "internalType": "bytes4",
          "name": "interfaceId",
          "type": "bytes4"
        }
      ],
      "name": "supportsInterface",
      "outputs": [
        {
          "internalType": "bool",
          "name": "",
          "type": "bool"
        }
      ],
      "stateMutability": "view",
      "type": "function"
    },
    {
      "inputs": [],
      "name": "token",
      "outputs": [
        {
          "internalType": "contract IERC20",
          "name": "",
          "type": "address"
        }
      ],
      "stateMutability": "view",
      "type": "function"
    }
  ],
  "bytecode": "0x610100604052348015610010575f80fd5b506040516110c93803806110c983398101604081905261002f9161025b565b600180556001600160a01b0384166100785760405162461bcd60e51b81526020600482015260076024820152660746f6b656e3d360cc1b60448201526064015b60405180910390fd5b6001600160a01b0383166100bb5760405162461bcd60e51b815260206004820152600a602482015269072656769737472793d360b41b604482015260640161006f565b6001600160a01b0382166100fd5760405162461bcd60e51b815260206004820152600960248201526806c696d697465723d360bc1b604482015260640161006f565b6001600160a01b03811661013c5760405162461bcd60e51b81526020600482015260066024820152650706f6f6c3d360d41b604482015260640161006f565b6001600160a01b0380851660805283811660a05282811660c052811660e0526101655f8661019b565b506101907fa49807205ce4d355092ef5a8a18f56e8913cf4a201fbe287825b095693c217758661019b565b5050505050506102cc565b5f828152602081815260408083206001600160a01b038516845290915281205460ff1661023b575f838152602081815260408083206001600160a01b03861684529091529020805460ff191660011790556101f33390565b6001600160a01b0316826001600160a01b0316847f2f8788117e7eff1d82e926ec794901d17c78024a50270940304540a733656f0d60405160405180910390a450600161023e565b505f5b92915050565b6001600160a01b0381168114610258575f80fd5b50565b5f805f805f60a0868803121561026f575f80fd5b855161027a81610244565b602087015190955061028b81610244565b604087015190945061029c81610244565b60608701519093506102ad81610244565b60808701519092506102be81610244565b809150509295509295909350565b60805160a05160c05160e051610d996103305f395f818161013601528181610882015261097301525f818161020501526106c301525f818161025301526105ae01525f81816102ca015281816104e0015281816107bd01526108b30152610d995ff3fe608060405234801561000f575f80fd5b50600436106100f0575f3560e01c8063660122c61161009357806391d148541161006357806391d1485414610275578063a217fddf146102ab578063d547741f146102b2578063fc0c546a146102c5575f80fd5b8063660122c6146101ed57806374b87f671461020057806375b238fc146102275780637b1039991461024e575f80fd5b80632426bb38116100ce5780632426bb3814610170578063248a9ca3146101a55780632f2ff15d146101c757806336568abe146101da575f80fd5b806301ffc9a7146100f457806311b75db11461011c57806316f0115b14610131575b5f80fd5b610107610102366004610c05565b6102ec565b60405190151581526020015b60405180910390f35b61012f61012a366004610c5b565b610322565b005b6101587f000000000000000000000000000000000000000000000000000000000000000081565b6040516001600160a01b039091168152602001610113565b6101977ffc7c36207174f786648d2e624616a4b40e15fd7f0268b4e36af5057f0c43c83581565b604051908152602001610113565b6101976101b3366004610c90565b5f9081526020819052604090206001015490565b61012f6101d5366004610ca7565b6103b1565b61012f6101e8366004610ca7565b6103d5565b61012f6101fb366004610cd1565b610408565b6101587f000000000000000000000000000000000000000000000000000000000000000081565b6101977fa49807205ce4d355092ef5a8a18f56e8913cf4a201fbe287825b095693c2177581565b6101587f000000000000000000000000000000000000000000000000000000000000000081565b610107610283366004610ca7565b5f918252602082815260408084206001600160a01b0393909316845291905290205460ff1690565b6101975f81565b61012f6102c0366004610ca7565b610a30565b6101587f000000000000000000000000000000000000000000000000000000000000000081565b5f6001600160e01b03198216637965db0b60e01b148061031c57506301ffc9a760e01b6001600160e01b03198316145b92915050565b7fa49807205ce4d355092ef5a8a18f56e8913cf4a201fbe287825b095693c2177561034c81610a54565b81156103825761037c7ffc7c36207174f786648d2e624616a4b40e15fd7f0268b4e36af5057f0c43c83584610a61565b50505050565b61037c7ffc7c36207174f786648d2e624616a4b40e15fd7f0268b4e36af5057f0c43c83584610b08565b505050565b5f828152602081905260409020600101546103cb81610a54565b61037c8383610a61565b6001600160a01b03811633146103fe5760405163334bd91960e11b815260040160405180910390fd5b6103ac8282610b08565b610410610b89565b7ffc7c36207174f786648d2e624616a4b40e15fd7f0268b4e36af5057f0c43c83561043a81610a54565b6001600160a01b0383166104825760405162461bcd60e51b815260206004820152600a6024820152690656d706c6f7965653d360b41b60448201526064015b60405180910390fd5b5f82116104bc5760405162461bcd60e51b81526020600482015260086024820152670616d6f756e743d360c41b6044820152606401610479565b6040516323b872dd60e01b8152336004820152306024820152604481018390525f907f00000000000000000000000000000000000000000000000000000000000000006001600160a01b0316906323b872dd906064016020604051808303815f875af115801561052e573d5f803e3d5ffd5b505050506040513d601f19601f820116820180604052508101906105529190610cf9565b90508061058d5760405162461bcd60e51b81526020600482015260096024820152681c1d5b1b0819985a5b60ba1b6044820152606401610479565b60405163010cf48d60e71b81526001600160a01b0385811660048301525f917f00000000000000000000000000000000000000000000000000000000000000009091169063867a468090602401602060405180830381865afa1580156105f5573d5f803e3d5ffd5b505050506040513d601f19601f820116820180604052508101906106199190610d14565b9050806106685760405162461bcd60e51b815260206004820152601060248201527f6964656e74697479206d697373696e67000000000000000000000000000000006044820152606401610479565b6040805160248101839052604480820187905282518083039091018152606490910182526020810180517bffffffffffffffffffffffffffffffffffffffffffffffffffffffff16639801748960e01b17905290515f9182917f00000000000000000000000000000000000000000000000000000000000000006001600160a01b0316916106f591610d2b565b5f604051808303815f865af19150503d805f811461072e576040519150601f19603f3d011682016040523d82523d5f602084013e610733565b606091505b5091509150816107745760405162461bcd60e51b815260206004820152600c60248201526b1b1a5b5a5d195c8819985a5b60a21b6044820152606401610479565b5f808280602001905181019061078a9190610d41565b909250905081156108655760405163a9059cbb60e01b81526001600160a01b038a81166004830152602482018490525f917f00000000000000000000000000000000000000000000000000000000000000009091169063a9059cbb906044016020604051808303815f875af1158015610805573d5f803e3d5ffd5b505050506040513d601f19601f820116820180604052508101906108299190610cf9565b9050806108635760405162461bcd60e51b81526020600482015260086024820152671c185e4819985a5b60c21b6044820152606401610479565b505b80156109d45760405163095ea7b360e01b81526001600160a01b037f000000000000000000000000000000000000000000000000000000000000000081166004830152602482018390525f917f00000000000000000000000000000000000000000000000000000000000000009091169063095ea7b3906044016020604051808303815f875af11580156108fb573d5f803e3d5ffd5b505050506040513d601f19601f8201168201806040525081019061091f9190610cf9565b90508061095d5760405162461bcd60e51b815260206004820152600c60248201526b185c1c1c9bdd994819985a5b60a21b6044820152606401610479565b60405163b6b55f2560e01b8152600481018390527f00000000000000000000000000000000000000000000000000000000000000006001600160a01b03169063b6b55f25906024015f604051808303815f87803b1580156109bc575f80fd5b505af11580156109ce573d5f803e3d5ffd5b50505050505b604080518381526020810183905286916001600160a01b038c169133917fd56bd66d88b32d3be3ce941b0583d226db715ff80336148925cb9acf8800c34a910160405180910390a450505050505050610a2c60018055565b5050565b5f82815260208190526040902060010154610a4a81610a54565b61037c8383610b08565b610a5e8133610bb3565b50565b5f828152602081815260408083206001600160a01b038516845290915281205460ff16610b01575f838152602081815260408083206001600160a01b03861684529091529020805460ff19166001179055610ab93390565b6001600160a01b0316826001600160a01b0316847f2f8788117e7eff1d82e926ec794901d17c78024a50270940304540a733656f0d60405160405180910390a450600161031c565b505f61031c565b5f828152602081815260408083206001600160a01b038516845290915281205460ff1615610b01575f838152602081815260408083206001600160a01b0386168085529252808320805460ff1916905551339286917ff6391f5c32d9c69d2a47ea670b442974b53935d1edc7fd64eb21e047a839171b9190a450600161031c565b600260015403610bac57604051633ee5aeb560e01b815260040160405180910390fd5b6002600155565b5f828152602081815260408083206001600160a01b038516845290915290205460ff16610a2c5760405163e2517d3f60e01b81526001600160a01b038216600482015260248101839052604401610479565b5f60208284031215610c15575f80fd5b81356001600160e01b031981168114610c2c575f80fd5b9392505050565b80356001600160a01b0381168114610c49575f80fd5b919050565b8015158114610a5e575f80fd5b5f8060408385031215610c6c575f80fd5b610c7583610c33565b91506020830135610c8581610c4e565b809150509250929050565b5f60208284031215610ca0575f80fd5b5035919050565b5f8060408385031215610cb8575f80fd5b82359150610cc860208401610c33565b90509250929050565b5f8060408385031215610ce2575f80fd5b610ceb83610c33565b946020939093013593505050565b5f60208284031215610d09575f80fd5b8151610c2c81610c4e565b5f60208284031215610d24575f80fd5b5051919050565b5f82518060208501845e5f920191825250919050565b5f8060408385031215610d52575f80fd5b50508051602090910151909290915056fea2646970667358221220c32972431519408944b413afbd70350db6c7abd999da4d5eba50fb69040995d364736f6c634300081a0033",
  "linkReferences": {},
  "deployedLinkReferences": {}
}