{
  "_format": "hh-sol-artifact-1",
  "contractName": "AttesterStaking",
  "sourceName": "contracts/attestation/AttesterStaking.sol",
  "abi": [
    {
      "inputs": [
        {
          "internalType": "address",
          "name": "admin",
          "type": "address"
        },
        {
          "internalType": "contract IERC20",
          "name": "stakeToken_",
          "type": "address"
        },
        {
          "internalType": "uint256",
          "name": "minStake_",
          "type": "uint256"
        }
      ],
      "stateMutability": "nonpayable",
      "type": "constructor"
    },
    {
      "inputs": [],
      "name": "AccessControlBadConfirmation",
      "type": "error"
    },
    {
      "inputs": [
        {
          "internalType": "address",
          "name": "account",
          "type": "address"
        },
        {
          "internalType": "bytes32",
          "name": "neededRole",
          "type": "bytes32"
        }
      ],
      "name": "AccessControlUnauthorizedAccount",
      "type": "error"
    },
    {
      "anonymous": false,
      "inputs": [
        {
          "indexed": true,
          "internalType": "bytes32",
          "name": "role",
          "type": "bytes32"
        },
        {
          "indexed": true,
          "internalType": "bytes32",
          "name": "previousAdminRole",
          "type": "bytes32"
        },
        {
          "indexed": true,
          "internalType": "bytes32",
          "name": "newAdminRole",
          "type": "bytes32"
        }
      ],
      "name": "RoleAdminChanged",
      "type": "event"
    },
    {
      "anonymous": false,
      "inputs": [
        {
          "indexed": true,
          "internalType": "bytes32",
          "name": "role",
          "type": "bytes32"
        },
        {
          "indexed": true,
          "internalType": "address",
          "name": "account",
          "type": "address"
        },
        {
          "indexed": true,
          "internalType": "address",
          "name": "sender",
          "type": "address"
        }
      ],
      "name": "RoleGranted",
      "type": "event"
    },
    {
      "anonymous": false,
      "inputs": [
        {
          "indexed": true,
          "internalType": "bytes32",
          "name": "role",
          "type": "bytes32"
        },
        {
          "indexed": true,
          "internalType": "address",
          "name": "account",
          "type": "address"
        },
        {
          "indexed": true,
          "internalType": "address",
          "name": "sender",
          "type": "address"
        }
      ],
      "name": "RoleRevoked",
      "type": "event"
    },
    {
      "anonymous": false,
      "inputs": [
        {
          "indexed": true,
          "internalType": "address",
          "name": "attester",
          "type": "address"
        },
        {
          "indexed": false,
          "internalType": "uint256",
          "name": "amount",
          "type": "uint256"
        },
        {
          "indexed": true,
          "internalType": "address",
          "name": "recipient",
          "type": "address"
        }
      ],
      "name": "Slashed",
      "type": "event"
    },
    {
      "anonymous": false,
      "inputs": [
        {
          "indexed": true,
          "internalType": "address",
          "name": "attester",
          "type": "address"
        },
        {
          "indexed": false,
          "internalType": "uint256",
          "name": "amount",
          "type": "uint256"
        }
      ],
      "name": "Staked",
      "type": "event"
    },
    {
      "anonymous": false,
      "inputs": [
        {
          "indexed": true,
          "internalType": "address",
          "name": "attester",
          "type": "address"
        },
        {
          "indexed": false,
          "internalType": "uint256",
          "name": "amount",
          "type": "uint256"
        }
      ],
      "name": "Unstaked",
      "type": "event"
    },
    {
      "inputs": [],
      "name": "ADMIN_ROLE",
      "outputs": [
        {
          "internalType": "bytes32",
          "name": "",
          "type": "bytes32"
        }
      ],
      "stateMutability": "view",
      "type": "function"
    },
    {
      "inputs": [],
      "name": "DEFAULT_ADMIN_ROLE",
      "outputs": [
        {
          "internalType": "bytes32",
          "name": "",
          "type": "bytes32"
        }
      ],
      "stateMutability": "view",
      "type": "function"
    },
    {
      "inputs": [],
      "name": "SLASHER_ROLE",
      "outputs": [
        {
          "internalType": "bytes32",
          "name": "",
          "type": "bytes32"
        }
      ],
      "stateMutability": "view",
      "type": "function"
    },
    {
      "inputs": [
        {
          "internalType": "bytes32",
          "name": "role",
          "type": "bytes32"
        }
      ],
      "name": "getRoleAdmin",
      "outputs": [
        {
          "internalType": "bytes32",
          "name": "",
          "type": "bytes32"
        }
      ],
      "stateMutability": "view",
      "type": "function"
    },
    {
      "inputs": [
        {
          "internalType": "bytes32",
          "name": "role",
          "type": "bytes32"
        },
        {
          "internalType": "address",
          "name": "account",
          "type": "address"
        }
      ],
      "name": "grantRole",
      "outputs": [],
      "stateMutability": "nonpayable",
      "type": "function"
    },
    {
      "inputs": [
        {
          "internalType": "bytes32",
          "name": "role",
          "type": "bytes32"
        },
        {
          "internalType": "address",
          "name": "account",
          "type": "address"
        }
      ],
      "name": "hasRole",
      "outputs": [
        {
          "internalType": "bool",
          "name": "",
          "type": "bool"
        }
      ],
      "stateMutability": "view",
      "type": "function"
    },
    {
      "inputs": [
        {
          "internalType": "address",
          "name": "attester",
          "type": "address"
        }
      ],
      "name": "isStaked",
      "outputs": [
        {
          "internalType": "bool",
          "name": "",
          "type": "bool"
        }
      ],
      "stateMutability": "view",
      "type": "function"
    },
    {
      "inputs": [],
      "name": "minStake",
      "outputs": [
        {
          "internalType": "uint256",
          "name": "",
          "type": "uint256"
        }
      ],
      "stateMutability": "view",
      "type": "function"
    },
    {
      "inputs": [
        {
          "internalType": "bytes32",
          "name": "role",
          "type": "bytes32"
        },
        {
          "internalType": "address",
          "name": "callerConfirmation",
          "type": "address"
        }
      ],
      "name": "renounceRole",
      "outputs": [],
      "stateMutability": "nonpayable",
      "type": "function"
    },
    {
      "inputs": [
        {
          "internalType": "bytes32",
          "name": "role",
          "type": "bytes32"
        },
        {
          "internalType": "address",
          "name": "account",
          "type": "address"
        }
      ],
      "name": "revokeRole",
      "outputs": [],
      "stateMutability": "nonpayable",
      "type": "function"
    },
    {
      "inputs": [
        {
          "internalType": "address",
          "name": "attester",
          "type": "address"
        },
        {
          "internalType": "uint256",
          "name": "amount",
          "type": "uint256"
        },
        {
          "internalType": "address",
          "name": "recipient",
          "type": "address"
        }
      ],
      "name": "slash",
      "outputs": [],
      "stateMutability": "nonpayable",
      "type": "function"
    },
    {
      "inputs": [
        {
          "internalType": "uint256",
          "name": "amount",
          "type": "uint256"
        }
      ],
      "name": "stake",
      "outputs": [],
      "stateMutability": "nonpayable",
      "type": "function"
    },
    {
      "inputs": [
        {
          "internalType": "address",
          "name": "",
          "type": "address"
        }
      ],
      "name": "stakeOf",
      "outputs": [
        {
          "internalType": "uint256",
          "name": "",
          "type": "uint256"
        }
      ],
      "stateMutability": "view",
      "type": "function"
    },
    {
      "inputs": [],
      "name": "stakeToken",
      "outputs": [
        {
          "internalType": "contract IERC20",
          "name": "",
          "type": "address"
        }
      ],
      "stateMutability": "view",
      "type": "function"
    },
    {
      "inputs": [
        {
          "internalType": "bytes4",
          "name": "interfaceId",
          "type": "bytes4"
        }
      ],
      "name": "supportsInterface",
      "outputs": [
        {
          "internalType": "bool",
          "name": "",
          "type": "bool"
        }
      ],
      "stateMutability": "view",
      "type": "function"
    },
    {
      "inputs": [
        {
          "internalType": "uint256",
          "name": "amount",
          "type": "uint256"
        }
      ],
      "name": "withdraw",
      "outputs": [],
      "stateMutability": "nonpayable",
      "type": "function"
    }
  ],
  "bytecode": "0x60c060405234801561000f575f80fd5b50604051610e35380380610e3583398101604081905261002e91610169565b6001600160a01b03821660805260a081905261004a5f846100a9565b506100757fa49807205ce4d355092ef5a8a18f56e8913cf4a201fbe287825b095693c21775846100a9565b506100a07f12b42e8a160f6064dc959c6f251e3af0750ad213dbecf573b4710d67d6c28e39846100a9565b505050506101a9565b5f828152602081815260408083206001600160a01b038516845290915281205460ff16610149575f838152602081815260408083206001600160a01b03861684529091529020805460ff191660011790556101013390565b6001600160a01b0316826001600160a01b0316847f2f8788117e7eff1d82e926ec794901d17c78024a50270940304540a733656f0d60405160405180910390a450600161014c565b505f5b92915050565b6001600160a01b0381168114610166575f80fd5b50565b5f805f6060848603121561017b575f80fd5b835161018681610152565b602085015190935061019781610152565b80925050604084015190509250925092565b60805160a051610c486101ed5f395f818161019701528181610265015261040001525f8181610204015281816104920152818161062c01526108360152610c485ff3fe608060405234801561000f575f80fd5b50600436106100fb575f3560e01c806351ed6a3011610093578063a217fddf11610063578063a217fddf146102e6578063a694fc3a146102ed578063bfac599014610300578063d547741f14610313575f80fd5b806351ed6a30146101ff5780636177fd181461023e57806375b238fc1461028957806391d14854146102b0575f80fd5b806336568abe116100ce57806336568abe1461017f578063375b3c0a1461019257806342623360146101b95780635095af64146101d8575f80fd5b806301ffc9a7146100ff578063248a9ca3146101275780632e1a7d4d146101575780632f2ff15d1461016c575b5f80fd5b61011261010d366004610add565b610326565b60405190151581526020015b60405180910390f35b610149610135366004610b0b565b5f9081526020819052604090206001015490565b60405190815260200161011e565b61016a610165366004610b0b565b61035c565b005b61016a61017a366004610b3d565b61056e565b61016a61018d366004610b3d565b610598565b6101497f000000000000000000000000000000000000000000000000000000000000000081565b6101496101c7366004610b67565b60016020525f908152604090205481565b6101497f12b42e8a160f6064dc959c6f251e3af0750ad213dbecf573b4710d67d6c28e3981565b6102267f000000000000000000000000000000000000000000000000000000000000000081565b6040516001600160a01b03909116815260200161011e565b61011261024c366004610b67565b6001600160a01b03165f908152600160205260409020547f0000000000000000000000000000000000000000000000000000000000000000111590565b6101497fa49807205ce4d355092ef5a8a18f56e8913cf4a201fbe287825b095693c2177581565b6101126102be366004610b3d565b5f918252602082815260408084206001600160a01b0393909316845291905290205460ff1690565b6101495f81565b61016a6102fb366004610b0b565b6105d0565b61016a61030e366004610b80565b610731565b61016a610321366004610b3d565b61092e565b5f6001600160e01b03198216637965db0b60e01b148061035657506301ffc9a760e01b6001600160e01b03198316145b92915050565b5f811161039b5760405162461bcd60e51b81526020600482015260086024820152670616d6f756e743d360c41b60448201526064015b60405180910390fd5b335f90815260016020526040902054818110156103e95760405162461bcd60e51b815260206004820152600c60248201526b1a5b9cdd59999a58da595b9d60a21b6044820152606401610392565b5f6103f48383610bcd565b905080158061042357507f00000000000000000000000000000000000000000000000000000000000000008110155b61045b5760405162461bcd60e51b81526020600482015260096024820152683132b637bb9036b4b760b91b6044820152606401610392565b335f81815260016020526040908190208390555163a9059cbb60e01b81526004810191909152602481018490526001600160a01b037f0000000000000000000000000000000000000000000000000000000000000000169063a9059cbb906044016020604051808303815f875af11580156104d8573d5f803e3d5ffd5b505050506040513d601f19601f820116820180604052508101906104fc9190610be0565b6105345760405162461bcd60e51b81526020600482015260096024820152681e19995c8819985a5b60ba1b6044820152606401610392565b60405183815233907f0f5bb82176feb1b5e747e28471aa92156a04d9f3ab9f45f28e2d704232b93f759060200160405180910390a2505050565b5f8281526020819052604090206001015461058881610952565b610592838361095f565b50505050565b6001600160a01b03811633146105c15760405163334bd91960e11b815260040160405180910390fd5b6105cb8282610a06565b505050565b5f811161060a5760405162461bcd60e51b81526020600482015260086024820152670616d6f756e743d360c41b6044820152606401610392565b6040516323b872dd60e01b8152336004820152306024820152604481018290527f00000000000000000000000000000000000000000000000000000000000000006001600160a01b0316906323b872dd906064016020604051808303815f875af115801561067a573d5f803e3d5ffd5b505050506040513d601f19601f8201168201806040525081019061069e9190610be0565b6106d65760405162461bcd60e51b81526020600482015260096024820152681e19995c8819985a5b60ba1b6044820152606401610392565b335f90815260016020526040812080548392906106f4908490610bff565b909155505060405181815233907f9e71bc8eea02a63969f509818f2dafb9254532904319f9dbda79b67bd34a5f3d9060200160405180910390a250565b7f12b42e8a160f6064dc959c6f251e3af0750ad213dbecf573b4710d67d6c28e3961075b81610952565b6001600160a01b03821661079f5760405162461bcd60e51b815260206004820152600b60248201526a0726563697069656e743d360ac1b6044820152606401610392565b6001600160a01b0384165f90815260016020526040902054838110156107f15760405162461bcd60e51b81526020600482015260076024820152666578636565647360c81b6044820152606401610392565b6107fb8482610bcd565b6001600160a01b038681165f908152600160205260409081902092909255905163a9059cbb60e01b81528482166004820152602481018690527f00000000000000000000000000000000000000000000000000000000000000009091169063a9059cbb906044016020604051808303815f875af115801561087e573d5f803e3d5ffd5b505050506040513d601f19601f820116820180604052508101906108a29190610be0565b6108da5760405162461bcd60e51b81526020600482015260096024820152681e19995c8819985a5b60ba1b6044820152606401610392565b826001600160a01b0316856001600160a01b03167fd87c3348a79019696e9b472cb0efe979015741dd3a1c95f43cc26dd1ace903c08660405161091f91815260200190565b60405180910390a35050505050565b5f8281526020819052604090206001015461094881610952565b6105928383610a06565b61095c8133610a87565b50565b5f828152602081815260408083206001600160a01b038516845290915281205460ff166109ff575f838152602081815260408083206001600160a01b03861684529091529020805460ff191660011790556109b73390565b6001600160a01b0316826001600160a01b0316847f2f8788117e7eff1d82e926ec794901d17c78024a50270940304540a733656f0d60405160405180910390a4506001610356565b505f610356565b5f828152602081815260408083206001600160a01b038516845290915281205460ff16156109ff575f838152602081815260408083206001600160a01b0386168085529252808320805460ff1916905551339286917ff6391f5c32d9c69d2a47ea670b442974b53935d1edc7fd64eb21e047a839171b9190a4506001610356565b5f828152602081815260408083206001600160a01b038516845290915290205460ff16610ad95760405163e2517d3f60e01b81526001600160a01b038216600482015260248101839052604401610392565b5050565b5f60208284031215610aed575f80fd5b81356001600160e01b031981168114610b04575f80fd5b9392505050565b5f60208284031215610b1b575f80fd5b5035919050565b80356001600160a01b0381168114610b38575f80fd5b919050565b5f8060408385031215610b4e575f80fd5b82359150610b5e60208401610b22565b90509250929050565b5f60208284031215610b77575f80fd5b610b0482610b22565b5f805f60608486031215610b92575f80fd5b610b9b84610b22565b925060208401359150610bb060408501610b22565b90509250925092565b634e487b7160e01b5f52601160045260245ffd5b8181038181111561035657610356610bb9565b5f60208284031215610bf0575f80fd5b81518015158114610b04575f80fd5b8082018082111561035657610356610bb956fea2646970667358221220f510d2a41e2f142a759317aa60903e1f36e7245b44f62c6617f5c51ed6a3dd7664736f6c634300081a0033",
  "linkReferences": {},
  "deployedLinkReferences": {}
}